:020000040800F2
:10000000380500209D010008791D0008D11800085E
:10001000111C0008B9040008A12400080000000019
:10002000000000000000000000000000091E0008A1
:10003000BB040008000000007B1D00080B1E000828
:10004000B7010008B7010008B7010008B7010008B0
:10005000B7010008B7010008B7010008B7010008A0
:10006000B7010008B7010008B7010008B701000890
:10007000B7010008B7010008B7010008B701000880
:10008000B7010008B7010008B7010008B701000870
:10009000B7010008B7010008B7010008B701000860
:1000A000B7010008B7010008B7010008B701000850
:1000B000B7010008B51E0008B7010008B701000825
:1000C000B7010008B7010008B7010008B701000830
:1000D000B701000895240008B7010008B70100081F
:1000E000B7010008B7010008B7010008B701000810
:1000F000B7010008B7010008B7010008B701000800
:10010000B7010008B7010008B7010008B7010008EF
:10011000B7010008B7010008B7010008B7010008DF
:10012000B7010008B7010008B7010008B7010008CF
:10013000B7010008B7010008B7010008B7010008BF
:10014000B7010008B7010008B7010008B7010008AF
:10015000B7010008B7010008B7010008B70100089F
:10016000B7010008B7010008B7010008B70100088F
:10017000B7010008B7010008B7010008000000003F
:10018000B7010008B7010008DFF80CD000F082F9D1
:1001900000480047712600083805002006488047BF
:1001A00006480047FEE7FEE7FEE7FEE7FEE7FEE75C
:1001B000FEE7FEE7FEE7FEE7A51E0008890100084E
:1001C0002DE9F05F0546002092469B46884606468C
:1001D000814640241BE0284641464746224600F01F
:1001E000ECF853465A46C01A914110D311461846AE
:1001F000224600F0D3F82D1A67EB01084F4622463D
:100200000120002100F0CAF817EB00094E41201E22
:10021000A4F10104DFDC484631462A464346BDE8E6
:10022000F09FD2B201E000F8012B491EFBD27047CB
:100230000022F6E710B513460A4604461946FFF7B2
:10024000F0FF204610BD2DE9F04D81EA030404F0D3
:10025000004B21F0004514464FF0000A23F0004106
:1002600050EA050220D054EA01021DD0C5F30A5716
:100270000246C5F31303C1F31300C1F30A5640F459
:10028000801543F48013A7EB0608101BD64608F22E
:10029000FD3873EB050002D308F1010801E0921864
:1002A0005B41B8F1000F03DA00200146BDE8F08D94
:1002B00000204FF48011064684460EE0171B73EBB6
:1002C000050705D3121B63EB050306434CEA010C3B
:1002D00049084FEA300092185B4150EA0107EDD11E
:1002E00052EA030012D082EA040083EA05010843BF
:1002F00005D0101BAB4106D20122002306E00022EC
:100300004FF0004302E06FF0010253101AEB0600B9
:100310004CEB085110EB0A0041EB0B01BDE8F04D2E
:1003200000F05BB80EB540F2334102910021CDE9F7
:1003300000110A460B4600F05FF803B000BDC1F3A0
:100340000A5210B5C1F3130140F2FF3341F480119A
:100350009A4201DA002010BD40F233439A42A2F2E1
:10036000334203DC524200F028F810BD904010BD2B
:1003700030B50B46014600202022012409E021FA75
:1003800002F59D4205D303FA02F5491B04FA02F572
:100390002844151EA2F10102F1DC30BD202A04DB45
:1003A000203A00FA02F1002070479140C2F1200388
:1003B00020FA03F3194390407047202A04DB203AC7
:1003C00021FA02F00021704721FA02F3D040C2F175
:1003D0002002914008431946704710B5141E73F16E
:1003E000000408DA401C41F1000192185B411A43F5
:1003F00001D120F0010010BD2DE9F04D92469B4641
:1004000011B1B1FA81F202E0B0FA80F220329046E6
:10041000FFF7C4FF04460F4640EA0A0041EA0B0119
:1004200053465A46084313D0114653EA010019D0E7
:10043000C8F140025046FFF7C0FF05460E46504641
:1004400059464246FFF7AAFF084305D0012004E0C1
:1004500020463946BDE8F08D0020054346EAE076A7
:100460002C4337430A986305E40AA0EB08000022F6
:10047000FD0A44EA47540A3002D500200146E9E764
:10048000010510196941DDE9084500196941BDE818
:10049000F04DA2E7064C074D06E0E06840F001038E
:1004A00094E8070098471034AC42F6D3FFF770FE8B
:1004B0002027000840270008FEE7704772B6FEE7D5
:1004C00000B587B014216846FFF7B2FE0B48002143
:1004D000026842F010020260006800F0100005900F
:1004E000082000900120CDE90101039169460448EC
:1004F00000F07EF800F006F807B000BD303802408A
:100500000010024000220821014800F071B90000EB
:10051000001002402DE9F0410446876D00F06EF9AD
:10052000064694F835000025022806D08020606534
:1005300084F834500120BDE8F0812068016821F082
:10054000160101602068416921F080014161206C41
:1005500008B9A06C20B12068016821F00801016091
:100560002068016821F0010101600CE000F046F90B
:10057000801B052807D920206065032084F83500FA
:1005800084F83450D7E720680068C007EED194F8AB
:100590005C103F208840B860012084F8350084F862
:1005A00034500020C7E790F83510022903D080218D
:1005B000416501207047052180F835100068016809
:1005C00021F00101016000207047000070B5044671
:1005D00000F014F90546601C02D004480078044479
:1005E00000F00CF9401BA042FAD370BD00000020BF
:1005F0002DE9F84FDFF8BCA10022012503264FF0BA
:100600000F090AF1040BAAF1040E00BF0B6805FAEA
:1006100002F42340A34270D10F7907F00307012FA2
:1006200001D0022F16D187684FEA420806FA08FC6B
:1006300027EA0C07D1F80CC00CFA08FC4CEA070CAE
:10064000C0F808C04768A7430C79C4F3001494406D
:100650003C4344600C79E443A4070AD0C4684FEAE1
:10066000420C06FA0CF7BC438F6807FA0CF72743D5
:10067000C7600C7904F00304022C12D1D40800EBFB
:10068000840CDCF820405707FF0E09FA07F824EA2B
:100690000804D1F8108008FA07F848EA0408CCF8F2
:1006A000208004684FEA420C06FA0CF7BC430F792D
:1006B00007F0030707FA0CF7274307604C6814F4A8
:1006C000403F70D03C4C276847F48047276024683F
:1006D00022F0030704F480440094384C07EB040C28
:1006E000DCF8084897074FEA177809FA08F7BC437F
:1006F000334FB84202D1002724E054E0314FB842D2
:1007000001D101271EE0304FB84201D1022719E084
:100710002E4FB84201D1032714E02D4FB84201D12A
:1007200004270FE02B4FB84201D105270AE02A4FDA
:10073000B84201D1062705E0284FB84201D107276A
:1007400000E0082707FA08F72743CCF80878DAF81A
:1007500000405746D1F804C09C435FEACC2C00D53A
:100760001C433C60DBF800405F46D1F804C09C436A
:100770005FEA8C2C00D51C433C60DEF800407746D5
:10078000D1F804C09C435FEA8C3C00D51C433C601C
:10079000084F083F3C68D1F804C09C435FEACC3C5A
:1007A00000D51C433C60521C102AFFF42FAFBDE85B
:1007B000F88F0000083C01404438024000300140FE
:1007C000000002400004024000080240000C024009
:1007D000001002400014024000180240001C0240B9
:1007E000426921EA02030A4043EA024181617047FB
:1007F0000AB1816170470904FBE700000148806885
:10080000704700000000002002488168027811440F
:1008100081607047000000200B4810B5016841F46A
:1008200000710160016841F480610160016841F478
:1008300080710160032000F06FF80F2000F006F8CF
:1008400000F024F8002010BD003C024070B50D4DB2
:1008500004464FF47A712878B1FBF0F00A49096830
:10086000B1FBF0F000F00CFB48B9102C07D20022CD
:100870002146501E00F030F800206C6070BD012051
:1008800070BD0000000000200C0000200A4808B5E0
:10089000016841F480410160006800F480400090EC
:1008A0000548001F016841F080510160006800F0B8
:1008B0008050009008BD000044380240002809DB49
:1008C00000F01F02012191404009800000F1E0206A
:1008D000C0F8001170470000F0B40E4B1B680C46C6
:1008E000C3F30223C3F10705042D00D90425191D04
:1008F000072901D2002300E0DB1E012606FA05F1DC
:10090000491E214099409E40761E16403143F0BC5E
:1009100001F0D8BD0CED00E0064900F007020868C0
:100920004FF6FF03184040EA0220034A10430860D4
:10093000704700000CED00E00000FA052DE9F047DB
:100940000E46050065D0DFF81481D8F80000F7B234
:1009500000F00700B04207D288F80070D8F8000015
:1009600000F00700B04254D128683D4C810712D5F1
:10097000400703D5206840F4E05020602878000745
:1009800003D5206840F4604020602068A96820F00A
:10099000F000084320602878C0072DD030496868EF
:1009A0000839012812D0022813D0032811D0096871
:1009B000890700292DDA216821F003010143216014
:1009C000FFF71CFF814641F2883A0EE0096889036F
:1009D000EFE709688901ECE7FFF710FFA0EB0901D9
:1009E000514502D90320BDE8F0872068696800F00E
:1009F0000C00B0EB810FEFD1D8F80010404601F0A9
:100A00000701B14207D90770006800F00700B04243
:100A100001D00120E7E72878400705D52068E9687C
:100A200020F4E050084320602878000706D52068AD
:100A3000296920F4604040EAC100206000F038F8E5
:100A40002168084AC1F30311515CC8400649086097
:100A500006480068FFF7FAFE0020C4E7003C0240A9
:100A600008380240082700080C000020040000207D
:100A70000448054900680968044AC1F38221515CB1
:100A8000C84070470C0000200838024018270008B2
:100A90000448054900680968044AC1F34231515CC1
:100AA000C84070470C000020083802401827000892
:100AB000154810B5006810F00C02144813D0144902
:100AC000042A0FD0082A0ED10F4C241F2268236855
:100AD00002F03F025B0207D52068C0F38810A0FB3C
:100AE000010106E0084610BD2168C1F38811A1FB91
:100AF00000010023FFF764FB2168C1F30141491C99
:100B00004900B0FBF1F010BD083802400024F400A9
:100B100040787D012DE9F84F04006ED02078DFF891
:100B20004C93C007A9F104054AD009F104000168FB
:100B3000C1F38101012908D00068C0F381000228B7
:100B40000AD1D9F80000400206D52868800337D5BD
:100B500060680028E1D033E06068B0F5803F10D0D5
:100B6000B0F5A02F286810D020F4803028602868C5
:100B700020F4802028606068A8B1FFF73FFE064699
:100B80000DE0286840F48030F4E740F480202860CD
:100B9000F7E700BFFFF732FE801B642873D8286890
:100BA0008003F7D50CE0FFF729FE064605E000BFFD
:100BB000FFF724FE801B6428F0D828688003F7D450
:100BC0002078DFF8AC8280074FF0000A3ED5A748B6
:100BD000001D016811F00C0F08D00068C0F38100FF
:100BE00002280BD1D9F80000400207D428688007FA
:100BF00016D5E068012800D112E033E1E068B8B111
:100C00000120C8F80000FFF7F9FD064605E000BF27
:100C1000FFF7F4FD801B0228C0D828688007F7D5AD
:100C20002868216920F0F80040EAC10028600DE042
:100C3000C8F800A0FFF7E2FD064604E0FFF7DEFD7E
:100C4000801B02281FD828688007F7D42078000767
:100C500022D5864F87486169703771B101210160E3
:100C6000FFF7CCFD064604E0FFF7C8FD801B022815
:100C700009D838688007F7D50EE0C0F800A0FFF764
:100C8000BDFD064605E082E0FFF7B8FD801B0228A7
:100C90007DD838688007F7D42078400768D5DFF81A
:100CA000CCB100270BF13C0BDBF80000C0000BD4EB
:100CB000DBF8001041F08051CBF80010DBF80000A9
:100CC000012700F0805000906B4E3068C00510D4B2
:100CD000306840F480703060FFF790FD009005E0D0
:100CE000FFF78CFD0099401A022850D83068C005E3
:100CF000F6D55E4EA0686C3601280FD00528306806
:100D000010D020F001003060306820F00400306026
:100D1000A068B8B1FFF772FD00900FE0306840F0B6
:100D20000100F4E740F004003060F7E7FFF766FDEC
:100D30000099411A41F28830814266D830688007B4
:100D4000F4D50EE0FFF75AFD009007E0FFF756FDDF
:100D50000099411A41F28830814256D830688007A4
:100D6000F4D42FB1DBF8001021F08051CBF8001043
:100D7000A069C8B33D49091D0968C1F38101022971
:100D80004AD00228504607D0C8F8600000E03CE096
:100D9000FFF734FD04463BE04746C8F86000FFF724
:100DA0002DFD064605E000BFFFF728FD801B022849
:100DB0002BD828688001F7D4D4E907010843A16A39
:100DC0002E4A490802EB0141626A41EA8211084356
:100DD00094F82C1040EA0161C9F80010012038662F
:100DE000FFF70CFD044606E03EE000BFFFF706FDFE
:100DF000001B022809D828688001F7D534E000BF1D
:100E0000FFF7FCFC001B022802D90320BDE8F88F85
:100E100028688001F4D427E00128F7D0D9F8000031
:100E2000E26900F4800191421CD1226A00F03F0186
:100E3000914217D147F6C071626A0140B1EB821F3F
:100E400010D1A26A4FF0FF3300F4403103EB52029D
:100E5000B1EB024F06D194F82C1000F07060B0EBAB
:100E6000016F01D00120D1E70020CFE70438024014
:100E700000004742800E4742007000400000FFFF24
:100E800010B5401EB0F1807F01D3012010BD4FF09E
:100E9000E02460610F21601701F014FB0020A061C5
:100EA00007202061002010BD7047704770B590F892
:100EB0003C20012A32D0012480F83C40022280F8F4
:100EC0003D2003685A689D6822F070060A68324324
:100ED0005A60134B02689A4214D0B2F1804F11D07D
:100EE000104B9A420ED0104B9A420BD00F4B9A42A5
:100EF00008D00F4B9A4205D00E4B9A4202D00E4BAF
:100F00009A4204D1496825F080031943916080F822
:100F10003D40002180F83C10084670BD022070BDA5
:100F2000000001400004004000080040000C0040A8
:100F300000040140004001400018004010B50400CA
:100F400003D094F83D0010B107E0012010BD00204F
:100F500084F83C00204600F01FF8022084F83D0091
:100F6000211D206800F0ACFF012084F8460084F8C1
:100F70003E0084F83F0084F8400084F8410084F883
:100F8000420084F8430084F8440084F8450084F863
:100F90003D00002010BD000008B500680B498842E4
:100FA00012D10B48016841F0020101600068002283
:100FB00000F00200009011461D20FFF78DFCBDE8F7
:100FC00008401D20FFF77ABC08BD00000004004067
:100FD0004038024070B5044690F83C0000250128D6
:100FE00017D0012684F83C60022084F83D00206878
:100FF000826822F0770222F47F42826008685028DB
:1010000038D00DDC20284FD005DC90B3102811D14A
:101010004AE0022070BD302846D040280AD13BE08B
:1010200060282FD070280DD0B0F5805F03D0B0F5C8
:10103000005F12D0012584F83D60002084F83C0058
:10104000284670BDCB68D1E90121206800F0B1FFCE
:101050002068816841F0770109E0CB68D1E901217E
:10106000206800F0A6FF2068816841F4804181601B
:10107000E1E719E0CA684968206801F06FF850217B
:10108000206806E0CA684968206801F078F86021A5
:10109000206800F098FFCEE7CA684968206801F030
:1010A0005DF840212068F4E7226801461046F0E729
:1010B00070472DE9F04104460068C66805694FF0A5
:1010C0000007A90713D5B10711D5F91E0161012049
:1010D0002077206880698007204602D0FFF7E8FF6C
:1010E00004E000F0BDF8204600F04FF927776807CC
:1010F00016D5700714D521686FF00400086102202E
:1011000020772068806910F4407F204602D0FFF7E6
:10111000CFFF04E000F0A4F8204600F036F927776E
:10112000280715D5300713D521686FF0080008612E
:10113000042020772068C0698007204602D0FFF78E
:10114000B7FF04E000F08CF8204600F01EF9277786
:10115000E80616D5F00614D521686FF01000086176
:10116000082020772068C06910F4407F204602D014
:10117000FFF79EFF04E000F073F8204600F005F949
:101180002777E80708D0F00706D021686FF0010044
:101190000861204600F05EF9280608D5300606D51D
:1011A00021686FF0800008612046FFF77DFE680629
:1011B00008D5700606D521686FF04000086120460A
:1011C00000F049F9A8060AD5B00608D521686FF0E5
:1011D000200008612046BDE8F041FFF766BEBDE88B
:1011E000F081000030B587B0044614216846FFF74F
:1011F0001FF817492068884227D116480024016843
:1012000041F001010160016801F0010105910168EF
:1012100041F0040101600068022500F0040005901F
:10122000C0200090CDE9015469460B48CDE9034543
:10123000FFF7DEF94FF440700090CDE901546946A4
:101240000648CDE90345FFF7D3F907B030BD0000EC
:101250000004004030380240000002400008024014
:10126000704770B5044690F83C0000260D460128F2
:101270000FD0012084F83C006AB1042A1DD0082A4E
:101280002FD00C2A3FD00126002084F83C003046A5
:1012900070BD022070BD206800F09EFE206881694C
:1012A00041F0080181612068816921F004018161B8
:1012B000206881692A69114311E0206800F0BCFEB2
:1012C0002068816941F4006181612068816921F4AD
:1012D00080618161206881692A6941EA0221816116
:1012E000D2E7206800F0DEFE2068C16941F0080105
:1012F000C1612068C16921F00401C1612068C16930
:101300002A69114311E0206800F000FF2068C169DC
:1013100041F40061C1612068C16921F48061C1614B
:101320002068C1692A6941EA0221C161ACE710B5B0
:10133000040003D094F83D0010B107E0012010BD77
:10134000002084F83C00204600F01EF8022084F8BB
:101350003D00211D206800F0B3FD012084F8460007
:1013600084F83E0084F83F0084F8400084F841008F
:1013700084F8420084F8430084F8440084F845006F
:1013800084F83D00002010BD7047704710B504463A
:10139000022249B104290ED0082913D094F8410043
:1013A000012816D0012010BD94F83E000128F9D183
:1013B00084F83E200FE094F83F000128F2D184F831
:1013C0003F2008E094F840000128EBD184F8402049
:1013D00001E084F841200122206800F0DDFD16497B
:1013E0002068164A884201D0904203D1436C43F4EE
:1013F000004343642068884213D0B0F1804F10D07E
:101400000F4988420DD00F4988420AD00E498842C0
:1014100007D0904205D00D49884202D00C4988423D
:1014200004D1816801F00701062903D0016841F069
:1014300001010160002010BD0000014000040140D6
:101440000004004000080040000C00400040014043
:10145000001800407047704770477047F8B5016842
:1014600004460868CA684B6910F00F0F4FF000057A
:101470005AD003F0010602F49077374365D0C107D4
:1014800005D0D10503D5616C41F0010161644107CC
:1014900005D5D90703D0616C41F002016164810771
:1014A00005D5D90703D0616C41F0040161640107DF
:1014B00007D502F02001314303D0616C41F00801EF
:1014C0006164616C00293BD0800604D5900602D58A
:1014D000204600F0BEFE20684069616CC0F38010B9
:1014E00001F00801014320462BD000F08BFE20685C
:1014F0004069400621D52068143050E8001F21F0D3
:10150000400140E80012002AF5D1E06BA8B16E4915
:101510000165E06BFFF747F8002811D0E06B016D23
:1015200001B0BDE8F040084783060ED593060CD500
:101530002046BDE8F84000F08CBE2046FFF78DFF46
:10154000F8BDFFF78AFF6564F8BD266B2023012EE6
:101550007DD1C6067BD5D60679D508684868009047
:1015600048694FF00206400641D5E16B08684068C3
:101570000004000CE8D0A28D8242E5D9E085C8695C
:10158000B0F5807F2DD020680C3050E8001F21F48A
:10159000807140E80012002AF5D12168143151E829
:1015A000000F20F0010041E80002002AF5D1206878
:1015B000143050E8001F21F0400140E80012002ADA
:1015C000F5D184F84230256320680C3050E8001FC4
:1015D00021F0100140E80012002AF5D1E06BFEF77F
:1015E00099FF6663A08DE18D401A81B22AE0A08D3B
:1015F000E18D401A81B2E08D0028A5D00029A3D04A
:1016000022680C3252E8000F20F4907042E8000784
:10161000002FF5D12068143050E8002F22F001028D
:1016200040E80027002FF5D184F842302563206878
:101630000C3050E8002F22F0100240E80023002B6D
:10164000F5D166632046FFF707FFF8BDFFE7050603
:101650002BD5150629D594F841002128F5D1A0688D
:10166000B0F5805F01D12069B0B1206A411C2162D0
:10167000216800784860E08C401E0004000CE08483
:10168000E3D12068C16821F08001C1602068C16891
:1016900041F04001C160D8E7206A0088C0F308002B
:1016A0004860206A801C2062E5E74006CDD55006E0
:1016B000CBD5CA68204622F04002CA6084F8413087
:1016C00000F005F9C1E70000F521000870B504003D
:1016D00004D094F84100002510B106E0012070BD4F
:1016E00084F84050204600F023F8242084F841007C
:1016F0002068C16821F40051C160204600F00AFE54
:101700002068016921F4904101612068416921F05C
:101710002A0141612068C16841F40051C1606564DB
:10172000202084F8410084F842006563002070BDE9
:10173000F0B587B0044614216846FEF779FD3749B5
:10174000354E27680022354C1039032302253448D2
:10175000B74217D1266846F400262660246804F4B0
:10176000002405940C6844F001040C60096802929E
:1017700001F001010591CDE900350821CDE90331E2
:10178000694645E0DFF89CC00726674525D1234C14
:10179000241D276847F010072760246804F0100410
:1017A00005940C6844F001040C60096802AC01F077
:1017B000010105914FF4C061CDE9001584E84C00AA
:1017C0006946FEF715FF002211462520FFF784F831
:1017D0002520FFF773F807B0F0BDDFF84CC0674570
:1017E000F9D1276847F400372760246804F40034EF
:1017F00005940C6844F001040C60096802AF01F024
:10180000010105910C21CDE9001587E84C006946DE
:10181000FEF7EEFEDFE70000004C004040380240DB
:1018200000000240001001400044004070472DE9D4
:10183000F843044690F84100984616460D46202885
:1018400002D00220BDE8F88385B17EB1002060643B
:10185000212084F84100FEF7D1FFA6848146E6846A
:10186000A0682027B0F5805F02D003E00120E9E7FF
:10187000206910B12E4600250EE000260CE08021E4
:10188000204600F0CDFDA8B9C6B116F8010B2168BD
:101890004860E08C401EE084E08C4B464FF0000234
:1018A000CDF800800028EAD14FF04001204600F03A
:1018B000B7FD40B184F841700320C3E735F8020B4F
:1018C000C0F30800E3E784F841700020BAE77047EE
:1018D000FEE7000000B587B014216846FEF7A8FCBB
:1018E0000B480021026842F002020260006800F02A
:1018F00002000590402000900120CDE901010391F4
:1019000069460448FEF774FE00F04CFC07B000BDC9
:1019100030380240000402402DE9F04F87B0142116
:101920006846FEF785FC56480024016841F0100126
:101930000160016801F010010591016841F080012A
:101940000160016801F080010591016841F0010129
:101950000160016801F001010591016841F0040195
:101960000160016801F004010591016841F0020184
:101970000160016801F002010591016841F0080170
:1019800001600068DFF8FCB000F008004FF4037558
:101990000590002229465846FEF72AFFDFF8E89016
:1019A000002248F240014846FEF722FFDFF8DCA0A3
:1019B0004FF47048002241465046FEF719FF00954B
:1019C000022601250396CDE9015469465846FEF7E3
:1019D0000FFE41F63040CDE90004694658460294B6
:1019E000FEF706FE1020CDE900046946284802945F
:1019F000FEF7FEFD41F23900CDE900046946484694
:101A00000294FEF7F5FDEF030097CDE90154694616
:101A100048460394FEF7ECFD4FF440608DE831003A
:101A200069465046FEF7E4FDCDF800800396CDE907
:101A3000015469465046FEF7DBFDCDE90074694666
:101A400014480294FEF7D4FD1F20CDE90004694636
:101A500050460294FEF7CCFD4020CDE90005CDE9CB
:101A6000024669464846FEF7C3FDCDE90054694683
:101A700058460296FEF7BCFD07B0BDE8F08F0000A7
:101A8000303802400010024000040240000C0240C6
:101A9000000802400000024030B58DB000240794D9
:101AA000089409940A940B941C2168460C94FEF740
:101AB000BFFB2C482A490160A721C0E9011440F26C
:101AC000E731C0E903148461FFF738FA08B1FEF783
:101AD000F5FC4FF48050079007A92248FFF77AFAE7
:101AE00008B1FEF7EBFC1F48FFF721FC08B1FEF739
:101AF000E5FC0B940BA91B480C94FFF7D7F908B130
:101B0000FEF7DCFC602000904FF4FA75CDE901543B
:101B10000022694613480494FFF7A3FB08B1FEF7BF
:101B2000CDFC042269460F48FFF79BFB08B1FEF786
:101B3000C5FC082269460B480195FFF792FB08B1E6
:101B4000FEF7BCFC0C22694606480195FFF789FBAD
:101B500008B1FEF7B3FC0348FFF744FB0DB030BDFE
:101B600000040040140000200C4810B50A49016030
:101B70004FF4E1314160002181600C22C160C0E975
:101B800004128161C161FFF7A1FD002803D0BDE807
:101B90001040FEF793BC10BD004C00405C000020DC
:101BA0000C4810B50A4901604FF4E1314160002151
:101BB00081600C22C160C0E904128161C161FFF73C
:101BC00085FD002803D0BDE81040FEF777BC10BDAE
:101BD00000100140A40000200C4810B50A49016023
:101BE0004FF4E1314160002181600C22C160C0E905
:101BF00004128161C161FFF769FD002803D0BDE8CF
:101C00001040FEF75BBC10BD00440040EC0000201B
:101C1000FEE7000010B50E4C012251032046FEF7EE
:101C2000E7FD012211032046FEF7E2FD01229103A8
:101C30002046FEF7DDFD0122D1032046FEF7D8FD48
:101C4000C820FEF7C3FCBDE8104000F077B80000E4
:101C5000000C024010B50C4C012251032046FEF747
:101C6000C7FD0022A1142046FEF7C2FD0122910308
:101C70002046FEF7BDFD2046BDE8104000224FF48F
:101C80000041FEF7B5BD0000000C024000B587B072
:101C900014216846FEF7CCFA0E480021026842F093
:101CA000080202600068039100F00800059001201E
:101CB00001904FF47040009069460748FEF798FC89
:101CC00008210648FFF762FB0C210448FFF75EFB82
:101CD00007B000BD30380240000C02401400002064
:101CE00010B540F2E73110FB01F0FEF71BFB9FED52
:101CF000071B53EC112BFEF7A6FAFEF720FB054954
:101D00000A68D0630968086410BD00000000000084
:101D1000000059401400002070B50546B1FBF5F6EF
:101D2000002407E02046FFF7DBFF3046FEF74EFCBD
:101D3000641CE4B2AC42F5D970BD000010B50D4C86
:101D400000224FF400512046FEF752FD0022A1145C
:101D50002046FEF74DFD00224FF480412046FEF75D
:101D600047FD2046BDE8104000224FF40041FEF739
:101D70003FBD0000000C0240FEE7704700B587B091
:101D800014216846FEF754FA0B480021026842F01D
:101D900010020260006800F010000590042000901E
:101DA0000120CDE90101039169460448FEF720FCBA
:101DB00000F000FA07B000BD3038024000100240C9
:101DC00000B587B014216846FEF732FA0C480021AE
:101DD000026842F010020260006800F010000590F6
:101DE0004FF4007000900120CDE901010391694694
:101DF0000448FEF7FDFB00F0E5F907B000BD000068
:101E000030380240001002407047FEF7FDBC000071
:101E100030B593B030216846FEF70AFA14210CA8B9
:101E2000FEF706FA1D480025016841F08051016067
:101E3000006800F0805011901948016841F4804119
:101E400001600068022400F480401190012003909A
:101E500010200490009406940820CDE90750A82093
:101E6000CDE9090404200B906846FEF753FE08B143
:101E700072B6FEE70CA90F2081E831004FF4A050A4
:101E80000F904FF48050109005210CA8FEF756FDDE
:101E9000002801D072B6FEE713B030BD40380240D2
:101EA000007000400248016841F470010160704711
:101EB00088ED00E00148FFF7FCB8000014000020A6
:101EC000F0B50268294C2A4D2A4E2B4F2B4B4FF070
:101ED000804CA04209D0604507D0A84205D0B0424E
:101EE00003D0B84201D0984204D122F0700E4A6863
:101EF00042EA0E02A0421BD0604519D0A84217D07A
:101F0000B04215D0B84213D0984211D01C4DA8420F
:101F10000ED01C4DA8420BD01B4DA84208D01B4D23
:101F2000A84205D01A4DA84202D01A4DA84203D1AA
:101F300022F44075CA682A434D6922F080022A4380
:101F400002608A68C2620A688262A04201D0984236
:101F500001D109690163012141610169C90703D008
:101F6000016921F001010161F0BD000000000140A4
:101F70000004004000080040000C00400004014044
:101F8000004001400044014000480140001800406A
:101F9000001C00400020004010B501F01F0301218B
:101FA000046A99408C430462016A9A4011430162B9
:101FB00010BD10B5846842EA032224F47F440A432A
:101FC0002243826010BD826822F070020A4342F010
:101FD0000701816070470000F0B5036A026A22F0D1
:101FE0000102026242688469124E24F073050C6893
:101FF0002C4323F002058B682B430D4DA84201D0E2
:10200000B04205D123F00807CB683B4323F004031B
:10201000A84201D0B04205D14D6922F44072154367
:102020008A692A4342608461496841630362F0BD62
:102030000000014000040140F0B5026A036A23F089
:1020400010030362436884690D6824F4E64444EA9B
:1020500005248D6822F0200242EA05120F4D104E31
:10206000A84201D0B04206D1CF6822F0800242EAF5
:10207000071222F04002A84201D0B04207D14D69B8
:1020800023F4406343EA85038D6943EA8503436093
:102090008461496881630262F0BD00000000014074
:1020A00000040140F0B5026A036A23F480730362FE
:1020B0004368C46922F4007224F073050C68124E60
:1020C0002C438D6842EA05220E4DA84201D0B04251
:1020D00006D1CF6822F4006242EA072222F480622D
:1020E000A84201D0B04207D14D6923F4405343EADE
:1020F00005138D6943EA05134360C4614968C163F0
:102100000262F0BD000001400004014030B5046AE5
:10211000026A22F4805202624268C3690D6823F4A5
:10212000E64343EA05238D6824F4005444EA053469
:10213000084DA84202D0084DA84204D14D6922F4AE
:10214000804242EA85124260C361496801640462C8
:1021500030BD0000000001400004014010B5036ADA
:10216000046A24F001040462846924F0F00444EA5F
:10217000021423F00A020A438461026210BD10B502
:10218000036A046A24F010040462846923F0A00343
:1021900024F4704444EA023243EA0111826101628C
:1021A00010BD0000002240210148FEF721BB0000C5
:1021B00000040240002204210148FEF719BB000080
:1021C0000010024000224FF400710148FEF710BBDE
:1021D00000100240012240210148FEF709BB000027
:1021E00000040240012251020148FEF701BB000039
:1021F0000010024010B5806B0021C185C184FFF73B
:102200002CF910BD01680C3151E8002F22F49072B6
:1022100041E80023002BF5D10168143151E8002F6B
:1022200022F0010241E80023002BF5D1016B0129C6
:1022300009D101680C3151E8002F22F0100241E869
:102240000023002BF5D1202180F8421000210163EA
:10225000704708B590F84210222901D0022008BD2D
:1022600082684FF480539A4201D1016921B1816A99
:102270009A421BD04AB10AE00268816A5268C2F3EE
:1022800008020A80816A891C08E0026972B102684A
:10229000526802F07F020A70816A491C8162C18D16
:1022A000491E0904090CC18503D01BE0026852686D
:1022B000F1E70168CA6822F02002CA600168CA68B2
:1022C00022F48072CA6001684A6922F001024A6100
:1022D000202180F8421000214163026B012A03D0C3
:1022E000FFF7A4FA002008BD016301680C3151E832
:1022F000002F22F0100241E80023002BF5D10168E5
:102300000A68D20602D50A6849680091818DFFF7F4
:10231000A3F8E7E770B5044600680169E26821F4B4
:102320004051114301612169A068E2690843616974
:10233000114308432168CA6849F20C639A43024377
:10234000CA6020684169A26921F44071114341616A
:1023500031492068884202D03049884202D1FEF7D4
:1023600097FB01E0FEF784FBE26900231921642555
:102370003226B2F5004F626828D0A0FB0101930F0E
:102380009200FDF71DFF0146B0FBF5F06FF018025B
:10239000504301EB800006EB0010B0FBF5F000F0BD
:1023A000F002B1FBF5F002EB0012B1FBF5F06FF0BB
:1023B0001803584301EB800006EB0010B0FBF5F06A
:1023C00000F00F0021681044886070BDA0FB01017F
:1023D00092185B41FDF7F4FE0146B0FBF5F00201F7
:1023E000B1FBF5F06FF01803584301EB800006EBEA
:1023F000C000B0FBF5F000F0F80002EB4002B1FBCA
:10240000F5F0584301EB800006EBC000B0FBF5F09F
:1024100000F00700D6E70000001001400014014062
:102420002DE9F843984617460D460446089E24E0D9
:10243000701C22D0FEF7E2F9A0EB0800B0421AD8D7
:10244000CEB12068C168490717D5802D15D0402D21
:1024500013D00168C94309070FD4016800254068FB
:1024600000902046FFF7CEFE0820606484F84050BC
:102470000120BDE8F8830320FBE72068006835EA07
:10248000000004D00020B842D2D00020F1E70120A3
:10249000F9E700000148FEF7E1BF0000A4000020BA
:1024A000FEE700000FB4054B10B503A9044A0298DB
:1024B00000F028F810BC5DF814FB00005926000855
:1024C000100000200907090E002804DB00F1E020BD
:1024D00080F80014704700F00F0000F1E02080F851
:1024E000141D704702E008C8121F08C1002AFAD163
:1024F00070477047002001E001C1121F002AFBD184
:10250000704700002DE9FF4F89B09B460446002527
:1025100006E025280BD05A460B999047641C6D1C89
:1025200020780028F5D10DB02846BDE8F08F0027AF
:10253000B8460122474900E0074314F8013F203B19
:1025400002FA03F00842F7D120782E2819D114F8A6
:10255000010F47F004072A280ED06FF02F022078D1
:10256000A0F1300109290CD808EB880102EB4101E8
:1025700000EB0108641CF2E70A98641C50F8048B15
:102580000A9020780028CED0642808D0692806D088
:1025900075281ED05A460B9990476D1C58E00A9931
:1025A0004FF00A0901C90A91002802DA40422D21A0
:1025B00002E0390504D52B218DF82010012103E01C
:1025C000F90704D02021F7E78A4608AE0DE0002184
:1025D000FAE70A994FF00A0901C90A91F7E7494653
:1025E000FDF7C6FE303106F8011D0028F7D1ADEB2E
:1025F000060000F12009780701D44FF00108C84512
:1026000002DDA8EB090000E000208046002706E07C
:1026100008A85A46C05D0B9990476D1C7F1C574512
:10262000F6DB04E030205A460B9990476D1CB8F158
:102630000001A8F10108F5DC05E016F8010B5A4687
:102640000B9990476D1CB9F10001A9F10109F4DC67
:10265000641C65E70928010013B54FF0FF33012220
:1026600069460248FFF7E3F800981CBDEC00002023
:10267000FEF7D2F8FFF7CCFBFFF74EF9FFF70CFAA5
:10268000FFF772FAFFF78CFAFFF7A6FAFFF7FEFAE8
:10269000FFF720F9FFF794FBFFF770FBFDF710FF42
:1026A0000122154ED50329463046FEF7A1F8002732
:1026B0004FF4FA644FF47A78FFF78CFDFFF792FD40
:1026C00021466420FFF728FBFFF7C4FA2046FDF7F8
:1026D0007DFFFFF79FFA2046FDF778FF39467F1C04
:1026E00006A0FFF7DFFE4046FDF770FF29463046A3
:1026F000FEF776F8E0E70000000402404E756D62D8
:1027000065723A2025640A00000000000000000005
:102710000102030406070809000000000102030487
:10272000402700080000002014000000E4240008F6
:10273000542700081400002024050000F424000899
:102740000100000010000000000000000024F40060
:042750000000000085
:040000050800018965
:00000001FF
