:020000040800F2
:10000000F04B00205D020008293B00081D3000086D
:10001000413600080D0B000899460008000000005A
:100020000000000000000000000000009D0100082A
:10003000490C000800000000F9010008953C000888
:1000400077020008770200087702000877020008AC
:10005000770200087702000877020008770200089C
:10006000770200087702000877020008770200088C
:10007000770200087702000877020008770200087C
:10008000190B0008250B0008190900087702000861
:10009000770200087702000877020008770200085C
:1000A00077020008613D0008770200087702000827
:1000B0006D3D0008793D00087702000877020008CE
:1000C000770200087702000877020008770200082C
:1000D000770200080D460008214600087702000854
:1000E000770200087702000877020008770200080C
:1000F00077020008770200087702000877020008FC
:1001000077020008770200087702000877020008EB
:1001100077020008770200087702000877020008DB
:10012000310B0008770200083D0B00087702000839
:1001300077020008770200087702000877020008BB
:1001400077020008770200087702000877020008AB
:100150007702000877020008490B000877020008C0
:10016000770200087702000877020008770200088B
:1001700077020008770200087702000800000000FC
:100180007702000877020008DFF80CD000F058FB77
:10019000004800472D570008F04B00202C4B1968F1
:1001A0000868B0E8F04F80F30988BFF36F8F4FF015
:1001B000000080F3118870470000000008480068C4
:1001C000006880F308884FF0000080F3148862B65E
:1001D00061B6BFF34F8FBFF36F8F00DF00BF00BF6B
:1001E00008ED00E0DFF80C00016841F470010160E7
:1001F000704700BF88ED00E0EFF30980BFF36F8F19
:10020000134B1A681EF0100F08BF20ED108A20E96A
:10021000F04F106009B44FF0500080F31188BFF325
:100220004F8FBFF36F8F06F031F84FF0000080F36F
:10023000118809BC19680868B0E8F04F1EF0100F6B
:1002400008BFB0EC108A80F30988BFF36F8F704746
:10025000B8000020EFF30580704700000648804793
:1002600006480047FEE7FEE7FEE7FEE7FEE7FEE79B
:10027000FEE7FEE7FEE7FEE7513D000889010008C2
:100280002DE9F05F0546002092469B4688460646CB
:10029000814640241BE0284641464746224600F05E
:1002A00018F953465A46C01A914110D311461846C0
:1002B000224600F0FFF82D1A67EB01084F46224650
:1002C0000120002100F0F6F817EB00094E41201E36
:1002D000A4F10104DFDC484631462A464346BDE826
:1002E000F09F40EA01039B0703D009E008C9121FF1
:1002F00008C0042AFAD203E011F8013B00F8013BE0
:10030000521EF9D27047D2B201E000F8012B491E0B
:10031000FBD270470022F6E710B513460A460446A2
:100320001946FFF7F0FF204610BD421C10F8011BD4
:100330000029FBD1801A70472DE9F04D81EA0304B2
:1003400004F0004B21F0004514464FF0000A23F062
:10035000004150EA050220D054EA01021DD0C5F345
:100360000A570246C5F31303C1F31300C1F30A563B
:1003700040F4801543F48013A7EB0608101BD64603
:1003800008F2FD3873EB050002D308F1010801E023
:1003900092185B41B8F1000F03DA00200146BDE876
:1003A000F08D00204FF48011064684460EE0171BA6
:1003B00073EB050705D3121B63EB050306434CEAF9
:1003C000010C49084FEA300092185B4150EA0107DE
:1003D000EDD152EA030012D082EA040083EA05015B
:1003E000084305D0101BAB4106D20122002306E0D2
:1003F00000224FF0004302E06FF0010253101AEBAD
:1004000006004CEB085110EB0A0041EB0B01BDE874
:10041000F04D00F06EB80EB540F23341029100216C
:10042000CDE900110A460B4600F072F803B000BD9A
:10043000C1F30A5210B5C1F3130140F2FF3341F486
:1004400080119A4201DA002010BD40F233439A42F3
:10045000A2F2334203DC524200F03BF810BD904060
:1004600010BD00F0004230F000400AD0C10D01F58F
:100470006071C0F3160042EA0151C20840071143FF
:10048000704700200146704730B50B4601460020FA
:100490002022012409E021FA02F59D4205D303FA46
:1004A00002F5491B04FA02F52844151EA2F10102C7
:1004B000F1DC30BD202A04DB203A00FA02F10020F2
:1004C00070479140C2F1200320FA03F31943904092
:1004D0007047202A04DB203A21FA02F000217047FD
:1004E00021FA02F3D040C2F120029140084319469C
:1004F000704710B5141E73F1000408DA401C41F176
:10050000000192185B411A4301D120F0010010BD97
:100510002DE9F04D92469B4611B1B1FA81F202E00D
:10052000B0FA80F220329046FFF7C4FF04460F462F
:1005300040EA0A0041EA0B0153465A46084313D0E9
:10054000114653EA010019D0C8F140025046FFF7A6
:10055000C0FF05460E46504659464246FFF7AAFFE1
:10056000084305D0012004E020463946BDE8F08D5F
:100570000020054346EAE0762C4337430A9863059A
:10058000E40AA0EB08000022FD0A44EA47540A30BE
:1005900002D500200146E9E7010510196941DDE9AE
:1005A000084500196941BDE8F04DA2E72DE9FE4F6D
:1005B000804681EA0300C00F0C46009021F0004104
:1005C00023F00045B8EB0200A94105D24046214680
:1005D00090461C460B46024623F00040104347D08D
:1005E000270DC7F30A00C3F30A510290401A019085
:1005F00040286BDAC3F3130040F4801B0098924646
:1006000020B10023D2EB030A63EB0B0B0198594690
:10061000C0F140025046FFF74DFF06460D465046DA
:100620005946019A00F01EF910EB080061410024C0
:1006300087EA115284EAE7731A4340D0009A62B302
:10064000019A012A4FEA075215DC001B61EB0201F7
:100650004FF0004202EA0752CDE90042001C41F58A
:10066000801132462B46FFF753FF03B0BDE8F08FF1
:1006700040462146F9E7001B61EB0201001C41F5F1
:10068000801300185B412018A2F5001747EB030107
:1006900040EAD570B6196D4111E06D084FEA360693
:1006A00045EAC0754FEA0752001B61EB0201001CCE
:1006B00041F5801149084FEA300000195141324696
:1006C0002B4603B0BDE8F04FFFF713BF009801229F
:1006D00040000023D0EB020263EBE0730098214658
:1006E0004FEAE074B8EB000061EB0401E9E783F046
:1006F00000435BE781F0004158E72DE9FE4F81EAB6
:10070000030404F0004421F0004100944FF0000B7A
:1007100023F0004350EA01045ED052EA03045BD0A8
:10072000C3F30A54C1F30A552C44A4F2F3340194E0
:10073000A0FB0254C1F3130141F48011C3F313036E
:1007400043F4801301FB024400FB034E840A970A22
:1007500044EA815447EA8357A4FB076802958D0A4F
:1007600005FB07854FEA932C04FB0C542705029DDB
:100770004FEA065847EA1637B5EB08056EEB070C4B
:10078000870E920E47EA811742EA8312A7FB020105
:10079000B6EB0B0164EB00042B0D43EA0C335E183F
:1007A00044EB1C50DA465146E7FB0201C5F3130443
:1007B0004FEA0B3343EA14534FEA0432019C43EAF5
:1007C0000603A4F10C040294009CCDE900B4FFF7E9
:1007D0009FFE03B0BDE8F08F00200146F9E7C1F3AA
:1007E0000A52C1F3130140F2FF3341F480119A42DF
:1007F00002DA00200146704740F233439A42A2F2E7
:10080000334202DC5242FFF764BEFFF753BE0000E2
:1008100030B5041E71F1000404DB4FF00044404287
:1008200064EB0101141E73F1000405DB1C464FF05C
:100830000043524263EB0403994208BF904230BD2B
:10084000064C074D06E0E06840F0010394E807001D
:1008500098471034AC42F6D3FFF79AFC246F000897
:10086000446F0008202A06DBCB17203A41FA02F039
:1008700043EAE07306E041FA02F3D040C2F12002FD
:10088000914008431946704710B50146806B026CD1
:1008900012F0500F05D0026CD20626D500F0FEFAF9
:1008A00010BD016C41F40071016401688A6812F0A6
:1008B000405F17D1027EAAB9CA6A12F4700F02D043
:1008C0008A6852050ED44A6822F020024A60016C00
:1008D00021F480710164016CC90403D4016C41F0FE
:1008E0000101016400F0D8FA10BD806BC26CBDE854
:1008F00010400846104710B5806B40210164416CE0
:1009000041F00401416400F0C9FA10BD10B5806BDC
:1009100000F0C3FA10BD0000014800F0C0BA0000AA
:1009200078030020464910B54A6822F440324A60F4
:100930004A6843681A434A6001684A6822F4807230
:100940004A6001684A68036942EA03224A60016812
:100950004A6822F040724A6001684A6883681A4314
:100960004A6001688A6822F400628A6001688A68C5
:10097000C3681A438A60816A6FF07062D14201686D
:100980008A6822F070628A6001688A680CD0836A83
:100990001A438A6001688A6822F040528A600168BE
:1009A0008A68C36A1A4301E022F040528A600168F3
:1009B0008A6822F002028A6001688A68037E42EA3D
:1009C00043028A6090F82010002901684A680FD01D
:1009D00042F400624A6001684A6822F460424A6058
:1009E00001684A68174C436A04EB43331A4301E039
:1009F00022F400624A600168CA6A22F47002CA6284
:100A00000168CA6A838B104C04EB03531A43CA6211
:100A100001688A6822F400728A6001688A6890F826
:100A2000303042EA43228A6001688A6822F4806298
:100A30008A6001688A68406942EA8020886010BD47
:100A40000023014000E0FFFF0000F0FF7EB51C4DD9
:100A500028680168C943C9061BD401684068009032
:100A6000184800684068184EC0F5807084B231881C
:100A700016488C42084402D3611A89B206E0C1F5D7
:100A8000807189B204F026FD2146104804F022FD51
:100A9000348028680168C943090704D401684168A3
:100AA0000291016841680168C943890606D440681B
:100AB0008DF80400012101A804F00CFD7EBD0000AA
:100AC000B005002040060020520000200808002049
:100AD00004F058FD4FF47A7404F034FD204604F01D
:100AE00085FEF9E702F0FEFA03F0ACF84FF4FA6481
:100AF000204604F07BFE03F023FB03F011FB2046AD
:100B000004F074FE012004F071FEF1E7FEE701201D
:100B100004F06CFEFBE70000014800F0DDBB0000C4
:100B200000070020014800F0D7BB0000600700204C
:100B3000014800F0D1BB0000C0030020014800F0D4
:100B4000CBBB000040060020014800F0C5BB000000
:100B5000A006002001681823CAB2103AB2FBF3F2D3
:100B6000054B6FF30901032A9B5CC36500D9091D7E
:100B70008165084670470000046E000810B5014604
:100B800000208B698A6A4FF0C07453B1B3F5005FDF
:100B900015D072B1012A0CD0022A0AD0032A09D139
:100BA00004E01AB1012A06D0022A03D1C96AC90198
:100BB00000D5012010BDC96AA142FAD010BD002A9B
:100BC000F7D0012AF2D0022AF3D0032AF3D010BDC5
:100BD00030B50468256825F48025256004686360C5
:100BE0008368402B036803D099600068C26030BD01
:100BF0009A600068C16030BD70B5074C05466668F4
:100C000000F078FF0549B0FBF1F169436068801B93
:100C10008842FBD370BD0000001000E040420F008E
:100C200007480168C9070AD106490A6842F080727C
:100C30000A6000214160016841F0010101607047D4
:100C4000001000E0FCED00E07047000072B608A064
:100C500003F024FD084D4FF400444FF4FA7621468A
:100C6000284600F0B5FD304600F0A8FCF7E700008C
:100C70006572726F720000000004024000B587B018
:100C800014216846FFF746FB0B480021026842F03A
:100C900010020260006800F010000590082000902B
:100CA0000120CDE9010103916946044800F098FC58
:100CB00000F018F807B000BD3038024000100240C4
:100CC000FFF7DCFF4FF4FA6400F014F8204604F05C
:100CD0008DFD00F007F8204604F088FD012004F0A7
:100CE00085FDF1E700220821014800F079BD0000F0
:100CF0000010024001220821014800F071BD0000EF
:100D00000010024010B50A68052300EB8202DFEDF7
:100D10000D0A82ED000A0A68521C92FBF3F403FBF1
:100D200014220A605FF0000100EB8102491C92ED81
:100D3000000A052970EE200AF6DBB1EE041A80EEF7
:100D4000810A10BD000000007047000078B5002443
:100D5000009490F83C20012A19D0012280F83C2010
:100D60000A6807230568092A13D9EE680A3A02EBD4
:100D7000420293409E43EE600B788A680A3B03EB85
:100D800043039A400368DD682A43DA6010E00220DA
:100D900078BD2E6902EB420293409E432E610B7890
:100DA0008A6803EB43039A4003681D692A431A616A
:100DB0004A681F23072A13D205686E6B521E02EB86
:100DC000820293409E436E630B790A885B1E92B247
:100DD00003EB83039A4003685D6B2A435A6327E061
:100DE00005680D2A12D22E6BD21F02EB82029340AD
:100DF0009E432E630B790A88DB1F92B203EB8303B9
:100E00009A4003681D6B2A431A6311E0EE6A0D3A9B
:100E100002EB820293409E43EE620B790A880D3BFF
:100E200092B203EB83039A400368DD6A2A43DA62D5
:100E3000164B0568144A9D4206D10D68122D03D148
:100E4000556845F48005556005689D4218D10B68CA
:100E5000102B01D0112B13D1536843F400035360BE
:100E6000096810290CD10A490A4A0968B1FBF2F154
:100E700001EB8101490000E0491E00910029FBD1EE
:100E800080F83C40002078BD002301400020014054
:100E90004C00002040420F0070477047704770B50B
:100EA000044600680668456816F0020F05F0200148
:100EB0002AD049B3216CC90603D4216C41F40071D6
:100EC0002164816811F0405F17D1217EA9B9C16A00
:100ED00011F4700F02D0816849050ED4416821F0E9
:100EE00020014160206C20F480702064206CC004DC
:100EF00003D4206C40F0010020642046FFF7CCFFB3
:100F000021686FF01200086016F0040F05F08001F0
:100F100032D089B3206CC00603D4206C40F400505A
:100F200020642068816811F4401F1ED1816B11F488
:100F3000401F02D08168490517D44168490514D47F
:100F4000816811F0405F10D1217E71B9416821F0B4
:100F500080014160206C20F480502064206CC0052A
:100F600003D4206C40F0010020642046FFF7ECFE23
:100F700021686FF00C00086016F0010F05F04001C9
:100F80000FD071B120680068C0070AD0206C40F40F
:100F900080302064204600F043F821686FF00100A3
:100FA000086016F0200F05F080610ED000290CD0EB
:100FB000606C40F00200606420686FF020050560FE
:100FC0002046FFF76BFF2068056070BD70B5040018
:100FD0004FF0000503D0206C002610B107E001207F
:100FE00070BD204600F01EF8666484F83C60206CFA
:100FF000C00610D4206C20F4885040F00200206419
:101000002046FFF78FFC6664206C20F0020040F061
:101010000100206400E0012584F83C60284670BD92
:101020007047000070B586B0064614216846FFF789
:1010300071F92149306888423CD120480025016877
:1010400041F480710160006800F4807005901B48D5
:101050001438016841F0040101600068694600F03D
:1010600004000590102000900320CDE901051448EC
:1010700000F0B6FA144C1348C4E900050015A56049
:10108000C4E90350400060618000C4E90605C00067
:10109000C4E90805204600F0EFF908B1FFF7D6FDD6
:1010A000B463002205211220A66300F037FC122051
:1010B00000F026FC06B070BD00200140443802401C
:1010C0000008024010640240C0030020F8B5044646
:1010D00000200E46009094F83C10012907D0012111
:1010E00084F83C1021688B68DB0702D011E00220F5
:1010F000F8BD8B6843F001038B604049404B0968A1
:10110000B1FBF3F101EB410100E0491E0091002920
:10111000FBD121688B68DB0503D58B6823F48073D2
:101120008B6021688B68DB075DD0236C40F2016522
:10113000AB4343F4807323644968490505D5216CAA
:1011400021F4005141F480512164216CC90404D57B
:10115000616C21F00601616400E0606484F83C0089
:10116000A16B2948274DC863A16B28480864A16B6F
:101170002748C86421686FF0220008602068416831
:1011800041F0806141602068816841F48071816034
:101190002168134632464C31A06B00F0D7F96868DD
:1011A0001C49C006206806D0884224D1816811F00D
:1011B000405F13D01FE08842F8D0174A904203D115
:1011C000D1F80423D206F1D0144A904213D1D1F8B9
:1011D000041301F01F011029E8D30CE0816841F0ED
:1011E0008041816007E0206C40F010002064606C5A
:1011F00040F0010060640020F8BD00004C000020B9
:1012000040420F0000230140890800080D09000832
:10121000F7080008002001400021014000220140A1
:101220002DE9F0410446876D00F0E0FA064694F897
:1012300035000025022806D08020606584F83450EF
:101240000120BDE8F0812068016821F016010160ED
:101250002068416921F080014161206C08B9A06CCF
:1012600020B12068016821F0080101602068016850
:1012700021F0010101600CE000F0B8FA801B0528A4
:1012800007D920206065032084F8350084F83450A5
:10129000D7E720680068C007EED194F85C103F20C3
:1012A0008840B860012084F8350084F8345000206C
:1012B000C7E790F83510022903D08021416501204D
:1012C0007047052180F835100068016821F00101A0
:1012D00001600020704700002DE9F84304464FF0FC
:1012E0000009CDF8009063484FF41651A56D0068D1
:1012F000B0FBF1F72E6894F85C10082000FA01F1B9
:1013000031420FD021680A6852070BD50A6822F0D3
:1013100004020A6094F85C108840A860606D40F098
:101320000100606594F85C104FF0010808FA01F0C4
:10133000304208D021684969090604D5A860606D6B
:1013400040F00200606594F85C1004208840304250
:1013500008D021680968890704D5A860606D40F04D
:101360000400606594F85C1010208840304218D06A
:1013700021680968090714D5A86020680168490335
:1013800004D50068000308D5A16C07E00168C90511
:1013900003D4016821F008010160216C09B12046E5
:1013A000884794F85C1020208840304231D0216872
:1013B0000968C9062DD5A86094F83500052820686D
:1013C000016806D0490347D5006800031DD4616C4D
:1013D0001CE021F0160101602068416921F08001C4
:1013E0004161206C08B9A06C20B12068016821F02F
:1013F0000801016094F85C103F208840A86084F8E0
:10140000358084F83490216D1FE0E16B09B12046EE
:101410008847606D00282BD0606DC00714D0052070
:1014200084F835002068016821F00101016000980E
:10143000401C0090B84203D820680068C007F6D16D
:1014400084F8358084F83490E16C002910D001B024
:101450002046BDE8F04308470168C905D5D40168B6
:1014600021F01001016084F8358084F83490CCE7D5
:10147000BDE8F8834C0000202DE9F041044600F05F
:10148000B5F906465CB1022084F83500002584F8E1
:1014900034502068016821F0010101600DE0012055
:1014A000BDE8F08100F0A2F9801B052805D92020B5
:1014B0006065032084F83500F2E720680068C00703
:1014C000F0D12268116820480140D4E90103184393
:1014D000D4E903363343184363691843A3691843B7
:1014E000E3691843236A18430843616A042903D156
:1014F000D4E90B1319430843106020684069666AF9
:1015000020F0070130460E43012704280CD1A06AC1
:101510000643E06A40B12046FFF730FB20B140208F
:10152000606584F83570BAE7206846612046FFF7A9
:1015300011FB94F85C203F2191408160656584F83F
:1015400035700020ACE700003F8010F02DE9F0413D
:101550000446866D90F83400002501280DD0012046
:1015600084F8340094F835700020012F07D084F8F7
:10157000340002252846BDE8F0810220FBE702275F
:1015800084F8357060652046FFF722FB94F85C1004
:101590003F208840B0602068016841F0160101607A
:1015A000206C20B12068016841F0080101602068CA
:1015B000016841F001010160DCE7000070B50446FC
:1015C00000F014F90546601C02D004480078044479
:1015D00000F00CF9401BA042FAD370BD400000207F
:1015E0002DE9F84FDFF8BCA10022012503264FF0BA
:1015F0000F090AF1040BAAF1040E00BF0B6805FAEB
:1016000002F42340A34270D10F7907F00307012FA2
:1016100001D0022F16D187684FEA420806FA08FC6B
:1016200027EA0C07D1F80CC00CFA08FC4CEA070CAE
:10163000C0F808C04768A7430C79C4F3001494406D
:101640003C4344600C79E443A4070AD0C4684FEAE1
:10165000420C06FA0CF7BC438F6807FA0CF72743D5
:10166000C7600C7904F00304022C12D1D40800EBFB
:10167000840CDCF820405707FF0E09FA07F824EA2B
:101680000804D1F8108008FA07F848EA0408CCF8F2
:10169000208004684FEA420C06FA0CF7BC430F792D
:1016A00007F0030707FA0CF7274307604C6814F4A8
:1016B000403F70D03C4C276847F48047276024683F
:1016C00022F0030704F480440094384C07EB040C28
:1016D000DCF8084897074FEA177809FA08F7BC437F
:1016E000334FB84202D1002724E054E0314FB842D2
:1016F00001D101271EE0304FB84201D1022719E085
:101700002E4FB84201D1032714E02D4FB84201D12A
:1017100004270FE02B4FB84201D105270AE02A4FDA
:10172000B84201D1062705E0284FB84201D107276A
:1017300000E0082707FA08F72743CCF80878DAF81A
:1017400000405746D1F804C09C435FEACC2C00D53A
:101750001C433C60DBF800405F46D1F804C09C436A
:101760005FEA8C2C00D51C433C60DEF800407746D5
:10177000D1F804C09C435FEA8C3C00D51C433C601C
:10178000084F083F3C68D1F804C09C435FEACC3C5A
:1017900000D51C433C60521C102AFFF42FAFBDE85B
:1017A000F88F0000083C01404438024000300140FE
:1017B000000002400004024000080240000C024009
:1017C000001002400014024000180240001C0240B9
:1017D000426921EA02030A4043EA024181617047FB
:1017E0000AB1816170470904FBE700000148806885
:1017F00070470000400000200248816802781144D0
:1018000081607047400000200B4810B5016841F42A
:1018100000710160016841F480610160016841F478
:1018200080710160032000F099F80F2000F006F8A5
:1018300000F04AF8002010BD003C024030B50546DB
:101840001C4887B00024016841F001010160006874
:1018500006A900F00100009001A800F02BF900F0AB
:101860005FF915494000B0FBF1F11548134A491ED4
:10187000026040F2E732C0E90324C0E90114846148
:1018800000F090FB040012D10D4800F007FC0400AA
:101890000DD1192000F034F8102D07D2002229466E
:1018A000192000F03BF80748056000E0012407B06C
:1018B000204630BD4438024040420F000000014045
:1018C000C0070020440000200C4882B0016841F4A9
:1018D00080410160006800F4804000900748001FCC
:1018E000016841F0805101600068002200F08050E2
:1018F00000900F21901E02B000F010B84438024052
:10190000002809DB00F01F020121914040098000FE
:1019100000F1E020C0F8001170470000F0B40E4B59
:101920001B680C46C3F30223C3F10705042D00D93D
:101930000425191D072901D2002300E0DB1E012622
:1019400006FA05F1491E214099409E40761E164038
:101950003143F0BC02F0C6BE0CED00E0064900F0D9
:10196000070208684FF6FF03184040EA0220034AC6
:1019700010430860704700000CED00E00000FA051D
:101980002DE9F0470E46050065D0DFF81481D8F840
:101990000000F7B200F00700B04207D288F80070EC
:1019A000D8F8000000F00700B04254D128683D4C40
:1019B000810712D5400703D5206840F4E05020602D
:1019C0002878000703D5206840F460402060206834
:1019D000A96820F0F000084320602878C0072DD0C7
:1019E000304968680839012812D0022813D003282A
:1019F00011D00968890700292DDA216821F0030137
:101A000001432160FFF7F2FE814641F2883A0EE081
:101A100009688903EFE709688901ECE7FFF7E6FE4B
:101A2000A0EB0901514502D90320BDE8F0872068E9
:101A3000696800F00C00B0EB810FEFD1D8F800100E
:101A4000404601F00701B14207D90770006800F075
:101A50000700B04201D00120E7E72878400705D50C
:101A60002068E96820F4E0500843206028780007E7
:101A700006D52068296920F4604040EAC100206052
:101A800000F05EF82168084AC1F30311515CC840B8
:101A90000649086006480068FFF7D0FE0020C4E74A
:101AA000003C0240083802400C6E00084C00002048
:101AB000440000200F2202600C4A136803F0030365
:101AC0004360136803F0F0038360136803F4E0538A
:101AD000C36012684FF4E05303EAD2020261044883
:101AE000006800F0070008607047000008380240F6
:101AF000003C024001480068704700004C00002094
:101B00000448054900680968044AC1F38221515C10
:101B1000C84070474C000020083802401C6E000886
:101B20000448054900680968044AC1F34231515C20
:101B3000C84070474C000020083802401C6E000866
:101B4000154810B5006810F00C02144813D0144961
:101B5000042A0FD0082A0ED10F4C241F22682368B4
:101B600002F03F025B0207D52068C0F38810A0FB9B
:101B7000010106E0084610BD2168C1F38811A1FBF0
:101B800000010023FEF77CFB2168C1F30141491CE1
:101B90004900B0FBF1F010BD083802400024F40009
:101BA00040787D012DE9F84F04006ED02078DFF8F1
:101BB0004C93C007A9F104054AD009F1040001685B
:101BC000C1F38101012908D00068C0F38100022817
:101BD0000AD1D9F80000400206D52868800337D51D
:101BE00060680028E1D033E06068B0F5803F10D035
:101BF000B0F5A02F286810D020F480302860286825
:101C000020F4802028606068A8B1FFF7EFFD064649
:101C10000DE0286840F48030F4E740F4802028602C
:101C2000F7E700BFFFF7E2FD801B642873D8286840
:101C30008003F7D50CE0FFF7D9FD064605E000BFAD
:101C4000FFF7D4FD801B6428F0D828688003F7D400
:101C50002078DFF8AC8280074FF0000A3ED5A74815
:101C6000001D016811F00C0F08D00068C0F381005E
:101C700002280BD1D9F80000400207D42868800759
:101C800016D5E068012800D112E033E1E068B8B170
:101C90000120C8F80000FFF7A9FD064605E000BFD7
:101CA000FFF7A4FD801B0228C0D828688007F7D55D
:101CB0002868216920F0F80040EAC10028600DE0A2
:101CC000C8F800A0FFF792FD064604E0FFF78EFD7E
:101CD000801B02281FD828688007F7D420780007C7
:101CE00022D5864F87486169703771B10121016043
:101CF000FFF77CFD064604E0FFF778FD801B022815
:101D000009D838688007F7D50EE0C0F800A0FFF7C3
:101D10006DFD064605E082E0FFF768FD801B0228A6
:101D20007DD838688007F7D42078400768D5DFF879
:101D3000CCB100270BF13C0BDBF80000C0000BD44A
:101D4000DBF8001041F08051CBF80010DBF8000008
:101D5000012700F0805000906B4E3068C00510D411
:101D6000306840F480703060FFF740FD009005E07F
:101D7000FFF73CFD0099401A022850D83068C00592
:101D8000F6D55E4EA0686C3601280FD00528306865
:101D900010D020F001003060306820F00400306086
:101DA000A068B8B1FFF722FD00900FE0306840F066
:101DB0000100F4E740F004003060F7E7FFF716FD9C
:101DC0000099411A41F28830814266D83068800714
:101DD000F4D50EE0FFF70AFD009007E0FFF706FDDF
:101DE0000099411A41F28830814256D83068800704
:101DF000F4D42FB1DBF8001021F08051CBF80010A3
:101E0000A069C8B33D49091D0968C1F381010229D0
:101E10004AD00228504607D0C8F8600000E03CE0F5
:101E2000FFF7E4FC04463BE04746C8F86000FFF7D4
:101E3000DDFC064605E000BFFFF7D8FC801B02284A
:101E40002BD828688001F7D4D4E907010843A16A98
:101E50002E4A490802EB0141626A41EA82110843B5
:101E600094F82C1040EA0161C9F80010012038668E
:101E7000FFF7BCFC044606E03EE000BFFFF7B6FCFF
:101E8000001B022809D828688001F7D534E000BF7C
:101E9000FFF7ACFC001B022802D90320BDE8F88F35
:101EA00028688001F4D427E00128F7D0D9F8000091
:101EB000E26900F4800191421CD1226A00F03F01E6
:101EC000914217D147F6C071626A0140B1EB821F9F
:101ED00010D1A26A4FF0FF3300F4403103EB5202FD
:101EE000B1EB024F06D194F82C1000F07060B0EB0B
:101EF000016F01D00120D1E70020CFE70438024074
:101F000000004742800E4742007000400000FFFF83
:101F10007047704770B590F83C20012A32D00124F8
:101F200080F83C40022280F83D2003685A689D6892
:101F300022F070060A6832435A60134B02689A42D4
:101F400014D0B2F1804F11D0104B9A420ED0104BEA
:101F50009A420BD00F4B9A4208D00F4B9A4205D0B1
:101F60000E4B9A4202D00E4B9A4204D1496825F09A
:101F700080031943916080F83D40002180F83C10B7
:101F8000084670BD022070BD000001400004004002
:101F900000080040000C00400004014000400140E7
:101FA0000018004010B5040003D094F83D0010B1B3
:101FB00007E0012010BD002084F83C00204600F01E
:101FC0001FF8022084F83D00211D206801F0DAFE90
:101FD000012084F8460084F83E0084F83F0084F82D
:101FE000400084F8410084F8420084F8430084F8FB
:101FF000440084F8450084F83D00002010BD000036
:1020000010B586B0044614216846FEF783F92268AD
:1020100000211F48B2F1804F14D01E498A420FD1CF
:10202000016841F0020101600068002200F0020036
:10203000059005211D20FFF771FC1D20FFF760FCB6
:1020400006B010BD026842F001020260006800F0B4
:10205000010005900E481038026842F0010202604B
:10206000006800F001000590032000900220CDE9F7
:1020700001010120CDE9031069460748FFF7B0FAD6
:10208000002205211C20FFF749FC1C20D6E7000098
:1020900040380240000400400000024090F83D102B
:1020A000012901D001207047022180F83D1001680C
:1020B000CA6842F00102CA6000681149884214D01F
:1020C000B0F1804F11D00F4988420ED00E4988429E
:1020D0000BD00E49884208D00D49884205D00D49E1
:1020E000884202D00C49884204D1816801F007017E
:1020F000062903D0016841F001010160002070470A
:10210000000001400004004000080040000C0040B6
:1021100000040140004001400018004070B5044632
:1021200090F83C000025012817D0012684F83C6077
:10213000022084F83D002068826822F0770222F4B1
:102140007F4282600868502838D00DDC20284FD0AC
:1021500005DC90B3102811D14AE0022070BD302870
:1021600046D040280AD13BE060282FD070280DD0FF
:10217000B0F5805F03D0B0F5005F12D0012584F880
:102180003D60002084F83C00284670BDCB68D1E952
:102190000121206801F06FFE2068816841F077011D
:1021A00009E0CB68D1E90121206801F064FE2068D4
:1021B000816841F480418160E1E719E0CA684968BB
:1021C000206801F02DFF5021206806E0CA684968A8
:1021D000206801F077FF6021206801F056FECEE70D
:1021E000CA684968206801F01BFF40212068F4E7B5
:1021F000226801461046F0E770B505462DED028BCA
:102200009FED3F0A3F4C84ED000A0068B0F1804F1B
:1022100072D1FFF775FC00EE100A3B48F0EE000AA1
:10222000B8EE400A4068401C60EE200A00EE100A3A
:10223000287FB8EE400A012880EE808A1DD002284F
:102240005AD132480168491C01600068D4ED000A87
:1022500000EE100A2E480421B8EE400A20EE200AB3
:1022600080ED000A284600F085FB2A490B682A4ABF
:1022700098420B682ED3C31A2FE028480168491CE6
:1022800001600068D4ED000A00EE100A2448002125
:10229000B8EE400A20EE200A80ED000A284600F041
:1022A00069FB20490B68204A98420B6801D3C31A86
:1022B00002E0DB4303445B1C1360086010684FF4CA
:1022C0001B71484300EE100A1848B8EE400AC8EEE9
:1022D000000A0FE0DB4303445B1C136008601068D6
:1022E0004FF41B71484300EE100A1148B8EE400A43
:1022F000C8EE000AC0ED000ABDEC028B70BD000004
:102300000C44BE39B4000020200400205C000020F2
:10231000640000200C000020100000205800002065
:1023200060000020000000200400002008000020C1
:10233000140000202DE9F041054690F83C000026ED
:102340000C46012810D0012085F83C0072B1042A07
:102350001CD0082A2CD00C2A50D00126002085F849
:102360003C003046BDE8F0810220FBE7D4E90012D2
:10237000E368286801F066FE2868816921F00C0195
:10238000816128688169A26811430FE0D4E90012D5
:10239000E368286801F0A8FE2868816921F440619B
:1023A000816128688169A26841EA02218161D5E7DB
:1023B0002868D4E9002C277B036A016A21F4807124
:1023C0000162C16923F4206321F0030141EA0C0199
:1023D00021F0F00C39074FF420674CEA116107EA4D
:1023E00002221A43C16102622868C16921F00C010E
:1023F000C1612868C169A26811432BE02868D4E94B
:102400000021E768036AD0F820C02CF4805CC0F893
:1024100020C0D0F81CC023F420432CF4407C4CEAAC
:10242000012121F4704C4FF6FF7101EA07314FF49E
:10243000204741EA0C0107EA02321A43C1610262F5
:102440002868C16921F44061C1612868C169A26836
:1024500041EA0221C16181E710B5040003D094F87C
:102460003D0010B107E0012010BD002084F83C00C1
:10247000204600F01EF8022084F83D00211D20684F
:1024800001F080FC012084F8460084F83E0084F8C6
:102490003F0084F8400084F8410084F8420084F84A
:1024A000430084F8440084F8450084F83D0000208F
:1024B00010BD704730B50446002551B104290DD038
:1024C000082910D094F8410094F84520012811D132
:1024D0000EE094F83E0094F84220F7E794F83F00AD
:1024E00094F84320F2E794F8400094F84420EDE794
:1024F000012A01D0012030BD022059B1042912D097
:10250000082919D084F8410084F845000C2944D0EA
:10251000012540E084F83E0084F842002068C2684B
:1025200042F0020210E084F83F0084F84300206883
:10253000C26842F0040207E084F8400084F84400D6
:102540002068C26842F00802C2600122206801F0DF
:1025500085FC14492068884214D0B0F1804F11D016
:10256000114988420ED0114988420BD01049884247
:1025700008D01049884205D00F49884202D00F493F
:10258000884204D1816801F00701062903D001685F
:1025900041F001010160284630BD2068C26842F068
:1025A0001002D1E700000140000400400008004094
:1025B000000C0040000401400040014000180040B1
:1025C0002DE9F04104460068C66805694FF0000730
:1025D000A90713D5B10711D5F91E01610120207794
:1025E000206880698007204602D0FFF705FE04E0DE
:1025F00000F0BCF8204600F04EF92777680716D5A2
:10260000700714D521686FF004000861022020775C
:102610002068806910F4407F204602D0FFF7ECFD6F
:1026200004E000F0A3F8204600F035F927772807EA
:1026300015D5300713D521686FF008000861042014
:1026400020772068C0698007204602D0FFF7D4FDBC
:1026500004E000F08BF8204600F01DF92777E8062B
:1026600016D5F00614D521686FF010000861082017
:1026700020772068C06910F4407F204602D0FFF721
:10268000BBFD04E000F072F8204600F004F9277763
:10269000E80708D0F00706D021686FF00100086154
:1026A000204600F05DF9280608D5300606D52168D9
:1026B0006FF0800008612046FFF72AFC680608D505
:1026C000700606D521686FF040000861204600F0D2
:1026D00066F9A8060AD5B00608D521686FF0200073
:1026E00008612046BDE8F041FFF713BCBDE8F0816A
:1026F00030B587B0044614216846FDF70BFE174934
:102700002068884227D116480024016841F0010161
:102710000160016801F001010591016841F00401C7
:1027200001600068022500F004000590C0200090C0
:10273000CDE9015469460B48CDE90345FEF750FF4A
:102740004FF440700090CDE9015469460648CDE948
:102750000345FEF745FF07B030BD00000004004010
:10276000303802400000024000080240704770B557
:10277000044690F83C0000260D4601280FD00120A9
:1027800084F83C006AB1042A1DD0082A2FD00C2AF4
:102790003FD00126002084F83C00304670BD022066
:1027A00070BD206801F07AFB2068816941F0080162
:1027B00081612068816921F004018161206881695B
:1027C0002A69114311E0206801F098FB20688169B3
:1027D00041F4006181612068816921F48061816137
:1027E000206881692A6941EA02218161D2E7206873
:1027F00001F0BAFB2068C16941F00801C16120689D
:10280000C16921F00401C1612068C1692A691143CD
:1028100011E0206801F0DCFB2068C16941F400612F
:10282000C1612068C16921F48061C1612068C1690A
:102830002A6941EA0221C161ACE710B5040003D066
:1028400094F83D0010B107E0012010BD002084F88D
:102850003C00204600F01EF8022084F83D00211DB7
:10286000206801F08FFA012084F8460084F83E00C9
:1028700084F83F0084F8400084F8410084F8420066
:1028800084F8430084F8440084F8450084F83D004F
:10289000002010BD7047704710B50446022249B1B0
:1028A00004290ED0082913D094F84100012816D02D
:1028B000012010BD94F83E000128F9D184F83E2093
:1028C0000FE094F83F000128F2D184F83F2008E09F
:1028D00094F840000128EBD184F8402001E084F80E
:1028E00041200122206801F0B9FA16492068164AF1
:1028F000884201D0904203D1436C43F400434364C7
:102900002068884213D0B0F1804F10D00F49884220
:102910000DD00F4988420AD00E49884207D0904214
:1029200005D00D49884202D00C49884204D1816803
:1029300001F00701062903D0016841F0010101609F
:10294000002010BD000001400004014000040040D0
:1029500000080040000C004000400140001800400A
:1029600000680349884201D1FEF746BF7047000066
:10297000000001400246002041B1042909D0082985
:102980000AD00C2901D11068006C70471068406BA8
:1029900070471068806B70471068C06B7047704755
:1029A000704710B504460068406994F84110C0F3C0
:1029B000C010212911D180B12068143050E8001FC7
:1029C00021F0800140E80012002AF5D1A06B08B187
:1029D000FEF726FC204601F087FC2068406994F849
:1029E0004210C0F38010222911D180B12068143028
:1029F00050E8001F21F0400140E80012002AF5D104
:102A0000E06B08B1FEF70CFC204601F046FC00200C
:102A100010BD7047F8B5016804460868CA684B697C
:102A200010F00F0F4FF000055AD003F0010602F42A
:102A30009077374365D0C10705D0D10503D5616CC8
:102A400041F001016164410705D5D90703D0616CEC
:102A500041F002016164810705D5D90703D0616C9B
:102A600041F004016164010707D502F02001314300
:102A700003D0616C41F008016164616C00293BD0B6
:102A8000800604D5900602D5204601F03BFC206864
:102A90004069616CC0F3801001F0080101432046D9
:102AA0002BD001F0FAFB20684069400621D5206850
:102AB000143050E8001F21F0400140E80012002AC5
:102AC000F5D1E06BA8B16E490165E06BFEF7F1FB53
:102AD000002811D0E06B016D01B0BDE8F04008475F
:102AE00083060ED593060CD52046BDE8F84001F0CC
:102AF00009BC2046FFF78DFFF8BDFFF78AFF65642C
:102B0000F8BD266B2023012E7DD1C6067BD5D606C7
:102B100079D508684868009048694FF00206400679
:102B200041D5E16B086840680004000CE8D0A28D34
:102B30008242E5D9E085C869B0F5807F2DD0206854
:102B40000C3050E8001F21F4807140E80012002A88
:102B5000F5D12168143151E8000F20F0010041E85F
:102B60000002002AF5D12068143050E8001F21F03F
:102B7000400140E80012002AF5D184F84230256374
:102B800020680C3050E8001F21F0100140E80012CE
:102B9000002AF5D1E06BFEF743FB6663A08DE18D63
:102BA000401A81B22AE0A08DE18D401A81B2E08DF9
:102BB0000028A5D00029A3D022680C3252E8000FCB
:102BC00020F4907042E80007002FF5D120681430FF
:102BD00050E8002F22F0010240E80027002FF5D135
:102BE00084F84230256320680C3050E8002F22F032
:102BF000100240E80023002BF5D166632046FFF762
:102C0000CFFEF8BDFFE705062BD5150629D594F8AC
:102C100041002128F5D1A068B0F5805F01D120697D
:102C2000B0B1206A411C2162216800784860E08CC4
:102C3000401E0004000CE084E3D12068C16821F04C
:102C40008001C1602068C16841F04001C160D8E7DF
:102C5000206A0088C0F308004860206A801C206257
:102C6000E5E74006CDD55006CBD5CA68204622F010
:102C70004002CA6084F8413000F0CEF9C1E700009C
:102C80005141000870B5040004D094F841000025BB
:102C900010B106E0012070BD84F84050204600F0DD
:102CA00023F8242084F841002068C16821F40051F1
:102CB000C160204601F088FB2068016921F4904141
:102CC00001612068416921F02A0141612068C168E1
:102CD00041F40051C1606564202084F8410084F80B
:102CE00042006563002070BD2DE9F04F87B00446B7
:102CF00014216846FDF70EFBDFF878C10221266833
:102D00005D4803220723DFF8748100258F064FF00A
:102D1000400B4FF48069664554D1574E1436D6F8AF
:102D200000C04CF0100CC6F800C0366806F0100663
:102D30000596066846F001060660006800F001008E
:102D4000059050028DE8230069464046CDE90323F3
:102D5000FEF746FC4B4E4A48B8463060C6E901755E
:102D6000C6E903594F4606F1180C4FF480794FF429
:102D7000003A75618CE8200630467562FEF77CFBF0
:102D800008B1FDF763FFE663B4633E4E3C4860362E
:102D900006F11801C6E90357756181E8200678300D
:102DA000756286E801093046FEF766FB08B1FDF75B
:102DB0004DFFA663002205212520B463FEF7AEFD7A
:102DC000252052E0DFF8C0C0664550D12A4E1036AB
:102DD000D6F800C04CF4003CC6F800C0366806F4D3
:102DE00000360596066846F001060660006800F0A9
:102DF000010005900C208DE8230069464046CDE98E
:102E00000323FEF7EDFB1F4E2048C036C846306056
:102E1000C6E90175C6E9035975614FF44039B561DA
:102E2000C6E9075930467562FEF726FB08B1FDF783
:102E30000DFFE663B463164E1448C6E90358756186
:102E4000B561C6E907591830756286E881083046D1
:102E5000FEF712FB08B1FDF7F9FEA663002205217B
:102E60002620B463FEF75AFD2620FEF749FD07B081
:102E7000BDE8F08F001001403038024000000240F1
:102E80004064024040060020004400408860024048
:102E90006007002090F84230202B01D002207047BC
:102EA00021B11AB10023036301F014BB0120704764
:102EB00090F84230202B01D00220704721B11AB186
:102EC0000023036301F04EBB0120704710B500687A
:102ED000074988420AD10121064802F0FBFABDE801
:102EE0001040012203490448FFF7E2BF10BD000073
:102EF0000010014018000020B005002070472DE9A7
:102F0000F843044690F84100984616460D4620289E
:102F100002D00220BDE8F88385B17EB10020606454
:102F2000212084F84100FEF761FCA6848146E684F6
:102F3000A0682027B0F5805F02D003E00120E9E718
:102F4000206910B12E4600250EE000260CE08021FD
:102F5000204601F022FBA8B9C6B116F8010B216882
:102F60004860E08C401EE084E08C4B464FF000024D
:102F7000CDF800800028EAD14FF04001204601F052
:102F80000CFB40B184F841700320C3E735F8020B15
:102F9000C0F30800E3E784F841700020BAE70000BE
:102FA00070B5044690F84100202801D0022070BD81
:102FB00049B342B32162A284E284002060642123E9
:102FC00084F84130A56B114BEB63A56B104B2B6460
:102FD000A56B104BEB64A36B1865256813462A1D7F
:102FE000A06BFEF7B3FA21686FF04000086020681C
:102FF000143050E8001F41F0800140E80012002A20
:10300000F5D1002070BD012070BD00004F420008C6
:10301000914200086141000870477047FEE70000D8
:103020009FED101ADFED101A114A20EE010A80EE12
:10303000211A9FED0E0ADFED0F1A60EE800A92ED65
:10304000000A00EEA10ADFED0C0A82ED000AF0EEA4
:10305000401A41EE601A01EE200AC0ED001A81ED1F
:10306000000A7047DB0F4940000034430AE81C4166
:10307000540000200AD7233CCDCCCC3D02F0E4F92B
:103080004FF4E13002F092F930B108A001F006FBF4
:10309000C820FEF793FAFBE70BA001F0FFFA00BF90
:1030A00002F02AFB642002F0A1FBF9E741544B2D0A
:1030B0004D533630314D20696E6974206661696CFC
:1030C0006564210D0A00000041544B2D4D533630EC
:1030D000314D20696E697420737563636573732164
:1030E0000D0A0A0000B587B014216846FDF712F9F1
:1030F0000B480021026842F002020260006800F002
:1031000002000590402000900120CDE901010391CB
:1031100069460448FEF764FA01F002F807B000BD02
:1031200030380240000402407FB500241548009466
:10313000019402941249039401604FF48031C0E974
:10314000011401250461057680F820400E49C0E98C
:103150000A14C561C46080F830404561FDF736FF50
:1031600008B1FDF773FD0E20CDE900056946029414
:103170000448FDF7EBFD002801D0FDF767FD7FBD9A
:1031800000200140780300200100000F1D4808B511
:10319000016841F480010160016801F4800100913F
:1031A000016841F4001101600068002200F4001081
:1031B000009005211020FEF7B1FB1020FEF7A0FBC8
:1031C000002205211120FEF7A9FB1120FEF798FB34
:1031D000002205213820FEF7A1FB3820FEF790FBE6
:1031E000002205213A20FEF799FB3A20FEF788FBE2
:1031F000002205214620FEF791FBBDE8084046204D
:10320000FEF77EBB3038024010B5384BC4B03FAC3F
:103210000FCB84E80F0000213FA802F0FFFA344CE6
:1032200032491C22206010316846FDF75AF800210F
:10323000684602F07FFB2D4960601C222C3107A8F4
:10324000FDF74FF8002107A802F074FB2749A060A2
:103250001C2248310EA8FDF744F800210EA802F008
:1032600069FB2249E0601C22643115A8FDF739F89A
:10327000002115A802F05EFB1C4920611C22803150
:103280001CA8FDF72EF800211CA802F053FB1749DB
:1032900060611C229C3123A8FDF723F8002123A89C
:1032A00002F048FB1149A0611C22B8312AA8FDF7A1
:1032B00018F800212AA802F03DFB0C49E0611C220D
:1032C000D43131A8FDF70DF8002131A802F032FB0E
:1032D000064920621C22F03138A8FDF702F80021CF
:1032E00038A802F027FB44B010BD0000F86C0008BD
:1032F0001C0000202DE9F04F87B014216846FDF72F
:1033000009F852480024016841F010010160016889
:1033100001F010010591016841F080010160016830
:1033200001F080010591016841F00101016001682F
:1033300001F001010591016841F00401016001689B
:1033400001F004010591016841F00201016001688A
:1033500001F002010591016841F008010160006877
:10336000DFF8ECB000F008004FF403750590002280
:1033700029465846FEF734FADFF8D890002248F282
:1033800040014846FEF72CFADFF8CCA04FF4704815
:10339000002241465046FEF723FA009502260125F9
:1033A0000396CDE9015469465846FEF719F941F6EE
:1033B0003040CDE90004694658460294FEF710F902
:1033C00041F23900CDE90004694648460294FEF70F
:1033D00007F9EF030097CDE9015469464846039485
:1033E000FEF7FEF84FF440608DE831006946504624
:1033F000FEF7F6F8CDF800800396CDE90154694652
:103400005046FEF7EDF8CDE9007469461348029482
:10341000FEF7E6F81F20CDE9000469465046029405
:10342000FEF7DEF84020CDE90005CDE90246694609
:103430004846FEF7D5F8CDE900546946584602964D
:10344000FEF7CEF807B0BDE8F08F0000303802403C
:103450000010024000040240000C02400000024044
:1034600010B58AB000242548049405940694079466
:10347000089409940094019402944FF080410394BD
:1034800001604721C0E90114611EC0E90314846191
:10349000FEF788FD08B1FDF7D9FB4FF4805004908A
:1034A00004A91648FEF73AFE08B1FDF7CFFB134812
:1034B000FEF7D2FF08B1FDF7C9FB089408A90F4831
:1034C0000994FEF727FD08B1FDF7C0FB0120CDE907
:1034D000004002940022694608480394FEF72AFF40
:1034E00008B1FDF7B3FB042269460448FEF722FF4A
:1034F000002801D0FDF7AAFB0AB010BD200400206F
:1035000030B58DB000240794089409940A940B9464
:103510001C2168460C94FCF7FDFE2C482A490160EA
:10352000A721C0E9011440F2E731C0E90314846126
:10353000FEF738FD08B1FDF789FB4FF48050079086
:1035400007A92248FEF7EAFD08B1FDF77FFB1F48F7
:10355000FFF773F908B1FDF779FB0B940BA91B4832
:103560000C94FEF7D7FC08B1FDF770FB60200090CB
:103570004FF4FA75CDE901540022694613480494CA
:10358000FFF7F5F808B1FDF761FB042269460F4823
:10359000FFF7EDF808B1FDF759FB082269460B4823
:1035A0000195FFF7E4F808B1FDF750FB0C226946DE
:1035B00006480195FFF7DBF808B1FDF747FB034824
:1035C000FFF796F80DB030BD0004004068040020FD
:1035D0000C4810B50A4901604FF4E1314160002107
:1035E00081600C22C160C0E904128161C161FFF7F2
:1035F00049FB002803D0BDE81040FDF727BB10BDF4
:1036000000100140B00500200C4810B50A490160C7
:103610004FF4E1314160002181600C22C160C0E9BA
:1036200004128161C161FFF72DFB002803D0BDE8C2
:103630001040FDF70BBB10BD00440040F805002012
:10364000FEE7000010B50E4C012251032046FEF7A4
:10365000C7F8012211032046FEF7C2F801229103A8
:103660002046FEF7BDF80122D1032046FEF7B8F848
:10367000C820FDF7A3FFBDE8104000F09BB8000094
:10368000000C024000B587B014216846FCF742FEEA
:103690000E480021026842F00802026000680391AF
:1036A00000F008000590012001904FF47040009058
:1036B00069460748FDF794FF08210648FFF7ECF834
:1036C0000C210448FFF7E8F807B000BD303802408D
:1036D000000C02406804002070B54FF400510D4CFE
:1036E0004D10B0F1FF3F09D0012801D0002200E0C9
:1036F00001222046FEF774F8002204E00022204652
:10370000FEF76EF8012229462046BDE87040FEF71C
:1037100067B80000000C024070B54FF480410D4CBA
:103720004D00B0F1FF3F09D0012801D0002200E098
:1037300001222046FEF754F8002204E00022204631
:10374000FEF74EF8012229462046BDE87040FEF7FC
:1037500047B80000000C024070B50D462DED028BFD
:1037600040F2E73110FB01F0FCF755FE9FED0E8BA8
:1037700053EC182BFCF7E0FDFCF75AFE044640F230
:10378000E73015FB00F0FCF746FE53EC182BFCF776
:10379000D3FDFCF74DFE064A01461068C46310686D
:1037A0000164BDEC028B70BD0000000000005940B8
:1037B0006804002010B50D4C00224FF40051204643
:1037C000FEF70EF80022A1142046FEF709F80022A9
:1037D0004FF480412046FEF703F82046BDE8104034
:1037E00000224FF40041FDF7FBBF0000000C024037
:1037F0002DED088BFFF746FF9FEDBA9AB0EE492AF0
:10380000DFEDB98AF0EE681A9FEDB88AF6EE000A8D
:10381000B3EE040AB0EE481AB54800F087F9B44890
:10382000B0EE492AF0EE681AB0EE481AF6EE000A39
:10383000B3EE040A1C3000F079F901F0E3FF05460D
:10384000DFEDACBAAC4FAD4EDFF8B492B6EE00BAD5
:10385000DFEDACAA9FEDAC8ADFF8B082DFF8B0A252
:10386000AC4CB3EE04AA4FF0FF3B00BF01F0CAFF1F
:10387000411B00EE101AB8EE400AC0EE2B9A19EE6A
:10388000901AB9427DDB94ED080A054684ED0B0AD7
:1038900094ED090A84ED0C0A94ED0B0AB0EEC00A0F
:1038A00010EE100AB04217DA94ED0C0AB0EEC00A1E
:1038B00010EE100AB0420FDAFFF7C4FE00210846EE
:1038C000FFF74AFFFFF776FF894800F03FF9884885
:1038D0001C3000F03BF9C9E794ED0C0A8E4860EE0D
:1038E0002A0A94ED0B0A00EECB0A84ED0D0A94ED42
:1038F0000C0A60EE2A0A94ED0B0A00EE8B0A84EDA6
:103900000E0AD4ED0D0A80EE880AB0EEC00A84EDEE
:103910000F0AD4ED0E0A80EE880AB0EEC00A84EDDC
:10392000100A0168494505D27C4991ED000A84EDF1
:10393000040A01E0C4ED048A79490968494505D2C1
:10394000784890ED000A84ED050A01E0C4ED058A8F
:103950007049674894ED040A18312838FDF7D2F908
:103960006C49634884ED110A94ED050A1C31143842
:10397000FDF7C8F984ED120A94ED110AD4ED120A8C
:1039800000E0ABE030EE200AB0EE691A584820EEB5
:10399000080A20EE0B0A84ED000A94ED120AD4ED19
:1039A000110A30EE600A20EE080AC0EE2A0AC4EDC1
:1039B000010AD4ED110A94ED0F0A00F0D1F884ED5C
:1039C000020A4B48B0EE691AD4ED120A94ED100ABF
:1039D0001C3000F0C5F884ED030A94ED020AB5EE40
:1039E000C00AF1EE10FA04D294ED020AF1EE400A98
:1039F00001E0D4ED020A94ED030AB5EEC00AF1EE3F
:103A000010FA94ED030A01D2B1EE400AF5EEC00AB5
:103A1000F1EE10FA06DD10EE900A404502DAF0EE03
:103A20004A0A06E0F5EEC00AF1EE10FA01D8F0EE0F
:103A3000680AB5EEC00AF1EE10FA06DD10EE100AC3
:103A4000404502DAB0EE4A0A06E0B5EEC00AF1EEF1
:103A500010FA01D8B0EE680A10EE901A514501DD57
:103A6000F0EE490A10EE101A514501DDB0EE490A98
:103A7000BCEEC00A10EE100ABCEEE00AC1B210EEB5
:103A8000100AC0B2FFF768FE94ED0D0AB5EEC00A49
:103A9000F1EE10FA01DD012009E094ED0D0AB5EE1A
:103AA000C00AF1EE10FA01D2584600E00020FFF7FC
:103AB00013FE94ED0E0AB5EEC00AF1EE10FA01DD28
:103AC000012009E094ED0E0AB5EEC00AF1EE10FAFD
:103AD00001D2584600E00020FFF71EFE642001F0EE
:103AE00085FEC3E60000C84200000000CDCCCC3DFE
:103AF000C40A002000007A44CDCCCC3D0AD7233C38
:103B000080841E00A4703D3E6666663E0000A041B3
:103B10000000C842680000200400002008000020C7
:103B20001000002014000020FEE7000080EC030AD3
:103B30009FED050A80ED030A80ED040AC0ED051A29
:103B400080ED062A70470000000000009FED030A88
:103B500080ED030A80ED040A7047000000000000B9
:103B600070EE600A90ED030A1E4A00EE810A10EE24
:103B7000101A80ED030A914202DD9FED1B0A06E058
:103B800010EE101A194A914203D99FED190A80EDDF
:103B9000030A90ED040A30EEC00AC0EE011A90ED5F
:103BA000010A90ED031A20EE010A90ED001A01EED1
:103BB000200A90ED021A01EE210A90ED061AB4EEE9
:103BC000C01AF1EE10FA01D2B0EE410A90ED051ADA
:103BD000B4EEC01AF1EE10FA01DDB0EE410AC0ED0C
:103BE000040A70470000C8420000C8420000C8C272
:103BF0000000C8C200B587B014216846FCF78AFBF4
:103C00000B480021026842F010020260006800F0D8
:103C100010000590042000900120CDE901010391DE
:103C200069460448FDF7DCFC00F082FA07B000BDED
:103C30003038024000100240FFF7DCFF012001F0A5
:103C4000D5FDFBE700B587B014216846FCF762FBA1
:103C50000C480021026842F010020260006800F087
:103C6000100005904FF4007000900120CDE9010193
:103C7000039169460448FDF7B3FC00F061FA07B010
:103C800000BD00003038024000100240012001F069
:103C9000ADFDFBE710B5502080F31188BFF34F8FC7
:103CA000BFF36F8F02F0DAFE18B104494FF0805075
:103CB0000860002080F3118810BD000004ED00E0D2
:103CC00030B593B030216846FCF724FB14210CA8D2
:103CD000FCF720FB1C480025016841F08051016081
:103CE000006800F0805011901848016841F480414C
:103CF00001600068022400F48040119001200390CC
:103D000010200490009406940820CDE90750A820C4
:103D1000CDE9090404200B906846FDF743FF70B914
:103D20000CA90F2081E831004FF4A0500F90E00261
:103D3000109005210CA8FDF723FE002801D0FCF708
:103D400085FF13B030BD00004038024000700040D5
:103D50000248016841F470010160704788ED00E09D
:103D60000148FEF72DBC0000C00700200148FEF707
:103D700027BC0000200400200148FEF721BC000001
:103D800068040020F0B50268294C2A4D2A4E2B4FBA
:103D90002B4B4FF0804CA04209D0604507D0A84281
:103DA00005D0B04203D0B84201D0984204D122F0ED
:103DB000700E4A6842EA0E02A0421BD0604519D03C
:103DC000A84217D0B04215D0B84213D0984211D0B3
:103DD0001C4DA8420ED01C4DA8420BD01B4DA84232
:103DE00008D01B4DA84205D01A4DA84202D01A4D4A
:103DF000A84203D122F44075CA682A434D6922F0D3
:103E000080022A4302608A68C2620A688262A04213
:103E100001D0984201D10969016301214161016921
:103E2000C90703D0016921F001010161F0BD000063
:103E3000000001400004004000080040000C004069
:103E4000000401400040014000440140004801409E
:103E500000180040001C00400020004010B501F098
:103E60001F030121046A99408C430462016A9A404D
:103E70001143016210BD10B5846842EA032224F4A4
:103E80007F440A432243826010BD826822F07002A0
:103E90000A4342F00701816070470000F0B5036AF1
:103EA000026A22F00102026242688469124E24F022
:103EB00073050C682C4323F002058B682B430D4DD2
:103EC000A84201D0B04205D123F00807CB683B439C
:103ED00023F00403A84201D0B04205D14D6922F479
:103EE000407215438A692A4342608461496841638C
:103EF0000362F0BD0000014000040140F0B5026A19
:103F0000036A23F010030362436884690D6824F494
:103F1000E64444EA05248D6822F0200242EA0512B4
:103F20000F4D104EA84201D0B04206D1CF6822F00A
:103F3000800242EA071222F04002A84201D0B042B9
:103F400007D14D6923F4406343EA85038D6943EA51
:103F5000850343608461496881630262F0BD0000AB
:103F60000000014000040140F0B5026A036A23F436
:103F7000807303624368C46922F4007224F07305FD
:103F80000C68124E2C438D6842EA05220E4DA84261
:103F900001D0B04206D1CF6822F4006242EA072283
:103FA00022F48062A84201D0B04207D14D6923F4C7
:103FB000405343EA05138D6943EA05134360C46126
:103FC0004968C1630262F0BD000001400004014085
:103FD00030B5046A026A22F4805202624268C36900
:103FE0000D6823F4E64343EA05238D6824F4005466
:103FF00044EA0534084DA84202D0084DA84204D135
:104000004D6922F4804242EA85124260C3614968E8
:104010000164046230BD0000000001400004014062
:1040200010B5036A046A24F001040462846924F070
:10403000F00444EA021423F00A020A438461026293
:1040400010BD000070B5056A046A24F00104046222
:104050008469154EB04214D0B0F1804F11D0134E88
:10406000B0420ED0124EB0420BD0124EB04208D029
:10407000114EB04205D0114EB04202D0104EB042A7
:1040800003D124F00304144301E044F001041A07AF
:1040900024F0F00444EA126225F00A0301F00A0158
:1040A00019438261016270BD0000014000040040BC
:1040B00000080040000C00400004014000400140A6
:1040C0000018004010B5036A046A24F0100404626A
:1040D000846923F0A00324F4704444EA023243EAE2
:1040E00001118261016210BD30B5046A056A25F0D4
:1040F00010050562856925F4407545EA022222F41F
:1041000070454FF6FF7202EA033224F0A0032A43FF
:10411000A02404EA011119438261016230BD00004C
:10412000002240210148FDF75BBB00000004024073
:10413000002204210148FDF753BB0000001002409B
:1041400000224FF400710148FDF74ABB0010024005
:1041500010B5806B0021C185C184FEF75AFC10BDEB
:1041600070B5846B2068406994F84110C0F3C010AA
:104170000025212904D118B1E584204600F0B4F8C7
:104180002068406994F84210C0F38010222904D1BD
:1041900018B1E585204600F080F8606C40F0100012
:1041A00060642046FEF735FC70BD10B50146806B9B
:1041B000096809684FF00002C9052ED4C28501685C
:1041C0000C3151E8003F23F4807341E80034002CA7
:1041D000F5D10168143151E8003F23F0010341E8B3
:1041E0000034002CF5D10168143151E8003F23F070
:1041F000400341E80034002CF5D1202180F8421022
:10420000016B012909D101680C3151E8003F23F00D
:10421000100341E80034002CF5D14263016B012901
:1042200002D0FEF753FE10BD818DFEF7B9FB10BD25
:1042300010B5806B01214163016B012902D0FEF7AB
:104240005DFE10BD818D4908FEF7AAFB10BD10B5BB
:104250000146806B09680968C90516D40021C1842C
:104260000168143151E8002F22F0800241E8002358
:10427000002BF5D101680C3151E8002F42F04002CB
:1042800041E80023002BF5D110BDFEF7C5FE10BD9F
:1042900010B5806BFEF7C1FE10BD01680C3151E80E
:1042A000002F22F4907241E80023002BF5D1016821
:1042B000143151E8002F22F0010241E80023002BC5
:1042C000F5D1016B012909D101680C3151E8002FAA
:1042D00022F0100241E80023002BF5D1202180F8C4
:1042E000421000210163704701680C3151E8002F32
:1042F00022F0C00241E80023002BF5D1202180F8F4
:104300004110704708B590F84210222901D00220D0
:1043100008BD82684FF480539A4201D1016921B1EE
:10432000816A9A421BD04AB10AE00268816A5268E7
:10433000C2F308020A80816A891C08E0026972B12E
:104340000268526802F07F020A70816A491C816229
:10435000C18D491E0904090CC18503D01BE0026808
:104360005268F1E70168CA6822F02002CA60016859
:10437000CA6822F48072CA6001684A6922F00102A8
:104380004A61202180F8421000214163026B012A1A
:1043900003D0FEF79BFD002008BD016301680C31CE
:1043A00051E8002F22F0100241E80023002BF5D144
:1043B00001680A68D20602D50A6849680091818DB1
:1043C000FEF7EEFAE7E7000070B504460068016901
:1043D000E26821F44051114301612169A068E2695A
:1043E00008436169114308432168CA6849F20C63B4
:1043F0009A430243CA6020684169A26921F440716E
:104400001143416131492068884202D030498842D5
:1044100002D1FDF785FB01E0FDF772FBE2690023A5
:10442000192164253226B2F5004F626828D0A0FB1E
:104430000101930F9200FBF723FF0146B0FBF5F05B
:104440006FF01802504301EB800006EB0010B0FB48
:10445000F5F000F0F002B1FBF5F002EB0012B1FB59
:10446000F5F06FF01803584301EB800006EB0010E5
:10447000B0FBF5F000F00F0021681044886070BDBB
:10448000A0FB010192185B41FBF7FAFE0146B0FB6D
:10449000F5F00201B1FBF5F06FF01803584301EBA2
:1044A000800006EBC000B0FBF5F000F0F80002EB76
:1044B0004002B1FBF5F0584301EB800006EBC00071
:1044C000B0FBF5F000F00700D6E700000010014057
:1044D0000014014038B581620446828500201346ED
:1044E0006064222284F84220E56B1B4AEA63E56B94
:1044F0001A4A2A64E56B1A4AEA64E26B10650A46B6
:104500002168E06B091DFDF721F82068016840680B
:104510000090206948B120680C3050E8001F41F439
:10452000807140E80012002AF5D12068143050E86C
:10453000001F41F0010140E80012002AF5D1206877
:10454000143050E8001F41F0400140E80012002AFA
:10455000F5D1002038BD0000AB4100083142000811
:104560006141000881628285C28500214164222167
:1045700080F84210016921B10168CA6842F4807272
:10458000CA6001684A6942F001024A610068C16874
:1045900041F02001C160002070472DE9F8439846A2
:1045A00017460D460446089E24E0701C22D0FDF7F5
:1045B0001DF9A0EB0800B0421AD8CEB12068C1683E
:1045C000490717D5802D15D0402D13D00168C94358
:1045D00009070FD401680025406800902046FFF7C6
:1045E0005CFE0820606484F840500120BDE8F88338
:1045F0000320FBE72068006835EA000004D00020B3
:10460000B842D2D00020F1E70120F9E710B5034805
:10461000FEF700FABDE81040FCF718BAB00500201C
:1046200038B51148FEF7F6F90F4C20680168C94308
:10463000C90614D40168406800902046FEF7B1F91D
:10464000E06B00684068C0F5807081B2074801F0F7
:1046500067FC4FF4807205492046FEF71BFCBDE85D
:1046600038400148FEF7D6B9F8050020B004002014
:10467000074910B54FF4807201F5A470FEF70AFCEB
:1046800004480068C16841F01001C16010BD00001D
:10469000B0040020F8050020FEE700000FB4054B31
:1046A00010B503A9044A029800F0EEF810BC5DF8BA
:1046B00014FB000009570008200100200FB41CB5AE
:1046C0000A46521ECDE9000207A9054B6A46069824
:1046D00000F0DAF8009A002111701CBC5DF814FBA0
:1046E000B74F00080907090E002804DB00F1E0209D
:1046F00080F80014704700F00F0000F1E02080F80F
:10470000141D704702E008C8121F08C1002AFAD120
:1047100070477047002001E001C1121F002AFBD141
:10472000704700002DE9FF5FDDE90220010DDDF893
:1047300038B0024318D044F61050A1F2FF31414383
:104740000D140F98012820D0A5EB0B00401C5FEA48
:10475000000A4FF00004474EDFF81C91A046504677
:1047600016D5CAF1000728E00F98012443A20128BA
:1047700008D0002100980F9BC0E90021C0E9024346
:10478000BDE8FF9F6FEA0B01F4E7CBF10000DEE725
:10479000074612E0F80707D022463346404649460E
:1047A000FBF7ABFF80468946224633461046194642
:1047B000FBF7A3FF04460E467F10002FEAD1DDE988
:1047C0000201BAF1000F42464B4602DAFBF795FFB1
:1047D00001E0FBF7B1FD04460E460022284BFCF732
:1047E00017F803D84FF0FF30014607E00022254BB1
:1047F00020463146FBF7DAFEFBF7F1FF102409E013
:10480000002C0ADB0A220023FBF73AFD019B303221
:104810001A55641E50EA0102F2D1641C019AC4F1D7
:10482000110314440F9A012A03D0012208430DD129
:104830000AE0084304D000204FF0110B0F9080E7EE
:10484000A3EB0B056D1E0DE05B4504DD4FF0000290
:1048500005F1010504E003DA4FF00002A5F10105BE
:10486000002AECD000980F99C0E90231C0E9004558
:1048700086E70000000024400000F03F3000000008
:104880000000F0430000E03F2DE9FF4F95B09B464C
:104890008946064600250FE2252877D100242746C1
:1048A000F84A0121059400E0044316F8013F203B3B
:1048B00001FA03F01042F7D130782A2811D06FF0B6
:1048C0002F033078A0F13002092A16D8059A44F057
:1048D000020402EB820203EB42021044761C0590B4
:1048E000EFE759F8042B0592002A03DA504244F40A
:1048F0000054059044F00204761C30782E2816D11E
:1049000016F8010F44F004042A280DD06FF02F028E
:104910003078A0F13003092B09D807EB870302EBAD
:104920004303C718761CF3E759F8047B761C3078EC
:104930006C280FD006DC4C2817D068280DD06A28C8
:1049400014D104E0742810D07A280FD10DE044F47B
:1049500000140AE044F4801401E044F44014727836
:10496000824202D104F58014761C761C30786628C9
:104970000BD013DC582877D009DC002875D04528E7
:10498000F6D04628F4D047281AD19DE118E06328D4
:1049900035D0642879D0652812D195E1702873D07C
:1049A00008DC6728F1D069286FD06E280DD06F28F9
:1049B00006D1B5E073282CD0752875D0782874D02E
:1049C0005A46179990476D1C75E1C4F302500228AE
:1049D00009D003280DD0D9F8001004280DD00D609F
:1049E00009F1040967E1D9F80010EA17C1E900529A
:1049F000F6E7D9F800100D80F2E70D70F0E719F82E
:104A0000041B8DF8001000208DF80100EA460120FB
:104A100003E059F804AB4FF0FF3061074FF000019D
:104A200002D40DE008F101018846B9420FDA804551
:104A3000F8DB1AF808100029F4D108E008F10101A8
:104A400088468142FADB1AF808100029F6D1059849
:104A50005B46A0EB080721463846179A00F094FA07
:104A6000284400EB080507E04DE029E10DE01AF8C5
:104A7000010B5A4617999047B8F10108F7D25B46E7
:104A800021463846179A13E142E00A220092C4F305
:104A900002524FF0000A022A08D059F804CB032A28
:104AA0004FEAEC710AD00DE029E02AE009F1070194
:104AB00021F00702F2E802C1914609E00FFA8CFCEE
:104AC0004FEAEC71042A03D14FFA8CFC4FEAEC71E7
:104AD000002907DA0A460021DCF1000C61EB020133
:104AE0002D2202E0220504D52B228DF8042001227C
:104AF00003E0E20701D02022F7E7904659E00A21BF
:104B000002E010220DE010214FF0000A00910BE0AE
:104B100010224FF0000A44F004040827009203E03A
:104B200008224FF0000A0092C4F30252022A05D074
:104B300059F804CB0021032A08D009E009F1070144
:104B400021F00702F2E802C1914605E01FFA8CFC51
:104B5000042A01D10CF0FF0C4FF00008220728D5E1
:104B6000702806D0009B83F0100353EA0A0305D097
:104B70000EE040228DF80420012208E05CEA0102E8
:104B800006D030228DF804208DF8050002229046D0
:104B9000009B83F0080353EA0A030AD15CEA01028E
:104BA00001D1620705D530228DF804204FF00108AD
:104BB0007F1E582804D034A003900EA802900DE068
:104BC00036A0F9E753466046009AFBF759FB844646
:104BD0000398825C0298401E029002705CEA010019
:104BE000F0D1029806A9081A00F1200A600702D540
:104BF00024F4803400E00127574502DDA7EB0A00CA
:104C000000E0002000EB0A01009005984144401AA2
:104C10000590E00306D45B462146179A059800F0FC
:104C2000B3F90544002706E001A85A46C05D17996C
:104C300090476D1C7F1C4745F6DBE0030CD55B46B7
:104C40002146179A059800F09FF9054404E03020AA
:104C50005A46179990476D1C0099481E00900029EC
:104C6000F5DC08E0029802995A460078491C029146
:104C7000179990476D1CBAF10001AAF1010AF1DC05
:104C800065E1000009280100303132333435363710
:104C90003839616263646566000000003031323388
:104CA0003435363738394142434445460000000028
:104CB00000F058F90544761C307800287FF4ECADFC
:104CC00019B02846BDE8F08F620700D4062709F125
:104CD000070222F0070CFCE80223E14603F000483B
:104CE0005FEA080C02D00FF2702C0DE05FEA045C62
:104CF00002D50FF2682C07E05FEAC47C02D00FF205
:104D0000602C01E0AFF2700C4FF0FF3823F000434D
:104D1000CDF850C065280CD006DC452809D04628BF
:104D20001DD047283DD13DE0662818D067287ED1A8
:104D300038E00021112F01DB112000E0781CCDE9C3
:104D4000000106A90EA8FFF7EDFCDDE90F010E9AA0
:104D500003910021009207F1010A04914DE04FF008
:104D600000400097CDE9011006A90EA8FFF7DAFC74
:104D7000DDE90F0203920E9B11990022DDF80CA0D1
:104D80000093049211B9791C00EB010AB7EB0A00F9
:104D900004D4C0F1FF3007F1010A0490AAEB070028
:104DA000019044E0012F00DA01270021112F01DDDD
:104DB000112000E03846CDE9000106A90EA8FFF752
:104DC000B1FCDDE90F010E9A0391002104910092DC
:104DD000BA4621070CD40399514500DA8A46BAF144
:104DE000010F05DD009AAAF10101515C302908D0BC
:104DF000B84202DA10F1040F06DA0121CDE9011000
:104E000015E0AAF10101E9E7002805DC0499014455
:104E10000491AAEB000102E0411C514500DD8A46E5
:104E20000499401A401C01904FF000400290200766
:104E300004D40198504501DBCDF8048000208DF8A2
:104E40004F0002980DF14F07B0F1004F25D02B20F5
:104E50000E9002984FF0020800280CDA40420290AF
:104E60002D200E9007E00A210298FBF70DFB303150
:104E7000029007F8011DB8F10001A8F10108F2DC69
:104E800002980028EFD1791E0E980870307800F053
:104E9000200040F0450007F8020D12A8C01B00F1E9
:104EA00007081498007800B1012000EB0A0101986E
:104EB00001EBE07105984144401A401E0590E00363
:104EC00006D45B462146179A059800F05DF8054424
:104ED0001498007818B15A46179990476D1CE00352
:104EE00024D55B462146179A059800F04DF80544F5
:104EF0001CE00498002807DBDDE90301884203DD9C
:104F00000098405C179901E0179930205A46904765
:104F1000049805F10105401C04900198401E019081
:104F200004D12E205A46179990476D1CBAF1000102
:104F3000AAF1010ADDDC05E017F8010B5A461799C2
:104F400090476D1CB8F10001A8F10108F4DC5B4644
:104F50002146179A0598ABE62D0000002B000000B3
:104F6000200000002DE9F041044600251E461746AA
:104F7000880404D405E039462020B0476D1C641E27
:104F8000F9D52846BDE8F0812DE9F0410446002519
:104F90001E469046C80301D5302700E0202788042C
:104FA00004D505E041463846B0476D1C641EF9D56E
:104FB0002846BDE8F0814A68002A06D00A68531CDA
:104FC0000B6010704868401E4860704730B589B06B
:104FD0000D46044624216846FBF79CF934B12B4664
:104FE00000220121684600F041F810B1012009B00B
:104FF00030BD9DF805009DF80410000200B2084382
:1050000000EE100AF8EEC00A9FED160A20EE801A94
:10501000DFED150A21EE201A84ED001A9DF8070035
:105020009DF80610000200B2084301EE100AB8EE27
:10503000C11A21EE001A21EE201A84ED011A9DF802
:1050400009009DF80810000200B2084301EE100AA2
:105050000020B8EEC11A21EE000A20EE200A84EDED
:10506000020AC4E700000038000034432DE9F84F7D
:1050700000241F4692468B468146264625464FF41D
:105080007A786FB10121684600F0FAF9C0B3042CB8
:1050900044D008DC64B1012C14D0022C42D130E0A1
:1050A0000320BDE8F88F082C4AD0162C3AD159E0DD
:1050B0009DF80000552835D189F8000089F82000B6
:1050C000012457E05FEA0A0004D0BAF1010F0BD0C7
:1050D0000220E6E79DF80000552823D189F8010059
:1050E00099F82000553008E09DF80000AF2819D14C
:1050F00089F8010099F82000AF3089F820000224D7
:1051000038E09DF8000058450CD189F8020099F864
:1051100020100424084489F820002BE09DF80000AA
:105120001C2801D9002425E089F8030099F82010F3
:10513000014489F8201008B108241BE0162419E066
:1051400009EB06019DF80000087199F82010761C03
:10515000084489F8200099F80300F6B2B04209D15A
:105160000026EBE799F820009DF800108842D9D17D
:10517000002096E70120FBF73FFD6D1CADB24545D1
:105180007FF47FAF00257F1E7BE70000F0B589B07C
:105190000D460446164624216846FBF7BBF854EA40
:1051A000050006D03346002203216846FFF75EFF64
:1051B00010B1012009B0F0BD9FED4E0A4E48E4B396
:1051C0009DF80B109DF80A20090209B211432180B5
:1051D0009DF80D209DF80C30120212B21A43628025
:1051E0009DF80F309DF80E601B021BB2334300EE9A
:1051F000901AA3800178F8EEE00A404E36F811705C
:1052000020EE801A00EE907AF8EE600A61EE200A35
:10521000C4ED020A00EE902A36F81120F8EEE00AFA
:1052200020EE801A00EE902AF8EE600A61EE200A65
:10523000C4ED030A00EE903A00E00DE0F8EEE00A5B
:1052400036F8111020EE801A00EE901AF8EE600A7F
:1052500061EE200AC4ED040AEDB39DF805109DF837
:105260000420090209B2114329809DF807209DF806
:105270000630120212B21A436A809DF809309DF876
:1052800008401B021BB22343AB8000EE901A41780A
:105290001A48F8EEE00A001F445C20EE801A00EE87
:1052A000904AF8EE600A61EE200AC5ED020A00EEAF
:1052B000902A425CF8EEE00A20EE801A00EE902A76
:1052C000F8EE600A61EE200AC5ED030A00EE903A9E
:1052D000F8EEE00A00E00AE0405C60EE800A00EED2
:1052E000100AB8EE400A20EE800A85ED040A00207C
:1052F00060E700000000003850000020286E000821
:1053000030B589B00D46044624216846FBF702F803
:1053100034B12B46002202216846FFF7A7FE10B1E8
:10532000012009B030BD9DF805009DF80410000271
:1053300000B2084300EE100AF8EEC00A9FED1A0A08
:1053400060EE800AC4ED000A9DF807009DF8061083
:10535000000200B2084300EE900AF8EEE00A60EEA8
:10536000800AC4ED010A9DF809009DF808100002AA
:1053700000B2084300EE900AF8EEE00A60EE800A00
:10538000C4ED020A9DF80B009DF80A10000200B25D
:10539000084300EE900A0020F8EEE00A20EE800AB2
:1053A00084ED030ABDE700000000003810B500F0EE
:1053B0004BF864220749032000F00EF840B105497C
:1053C0006422491C042000F007F808B1002010BD39
:1053D000012010BD50000020F0B58BB00E460546F0
:1053E000174624216846FAF795FF55208DF82400CA
:1053F000AF208DF8250045F080048DF8264001206F
:105400008DF8270000208DF82800641D8DF82940B4
:10541000062109A800F07AF83B4601222946684691
:10542000FFF724FE00284FF000000BD1694604E08E
:105430000A1812793254401CC0B29DF803208242EF
:10544000F6D8D0B20BB0F0BD0A4810B5802120F8D4
:10545000801F0021418081804FF4807206490748F7
:10546000FDF718FD05480068C16841F01001C160F2
:1054700010BD00000809002008080020B005002029
:1054800070B5054612480446B0F88420B0F8823062
:10549000B4F880409A4201D3D21A01E0E31A1A44C8
:1054A00092B2914200D9114600220CE0B0F882304D
:1054B000C65CAE545B1CB3FBF4F604FB1633521C03
:1054C000A0F8823092B28A42F0D3084670BD000044
:1054D0000809002070B500220B4B10E0B3F884508F
:1054E000845C5C55B3F88440B3F88050641CB4FB12
:1054F000F5F605FB1644521CA3F8844092B28A428A
:10550000ECD3002070BD0000080900200A460146C7
:105510004FF0FF330148FDF7F2BC0000B00500205A
:105520000021074A084600BF32F81030401C1944D9
:105530000A28F9DB0A20B1FBF0F080B270470000C6
:10554000880A002000B59FED0B1ADFED0B0AFFF76C
:10555000E7FF00EE100A9FED092AF8EE401A81EEEF
:10556000820A20EE010A9FED061A20EE011A81EE52
:10557000200A00BD333353400060EA4500F07F4508
:10558000007C124710B50A2205490648FBF79EFD2C
:10559000002803D0BDE81040FBF758BB10BD000049
:1055A000880A0020780300202DE9F04FAFB0642175
:1055B0001CA8FFF7A5FE64212AA8FFF707FD6422B7
:1055C00025A920A8FFF7E2FD9DED240ADDED270ABD
:1055D0002EA92DA8FDF724FD40480068FAF741FFE9
:1055E00006463F480F460068FAF73BFF04463D4831
:1055F0000D460068FAF735FFCDE910013A4800681A
:10560000FAF72FFFCDE90E012998FAF72AFFCDE925
:105610000C012898FAF725FFCDE90A012798FAF737
:1056200020FFCDE908012498FAF71BFFCDE9060118
:105630002398FAF716FFCDE904012298FAF711FF33
:10564000CDE902011F98FAF70CFFCDE900011E9881
:10565000FAF707FF82468B461D98FAF702FF80464D
:1056600089461C98FAF7FDFE024618A80B4680E80A
:10567000F000DDE91001CDE91601DDE90E01CDE90B
:105680001401DDE90C01CDE91201DDE90A01CDE9E2
:105690001001DDE90801CDE90E01DDE90601CDE9E2
:1056A0000C01DDE90401CDE90A01DDE90201CDE9E2
:1056B0000801DDE900018DE80C0FCDE906010B4A78
:1056C000FA210B48FEF7FAFF0A4800220849006851
:1056D00000F002F92FB0BDE8F08F00006C00002050
:1056E000680000206400002060000020786E000840
:1056F0008E0900201C00002010B5FFF755FFBDE803
:1057000010400A20FBF75ABF13B54FF0FF330122B8
:1057100069460248FDF7F3FB00981CBDF805002020
:10572000EFF30580002800D001207047FCF76CF8EB
:10573000FBF776FAFEF7C4FAFDF7DCFDFDF726FD70
:10574000FDF7DEFEFDF744FFFDF75EFFFDF7ECFC25
:10575000FDF786FE17A0FEF7A1FF012219491A489E
:10576000FDF7A6FB0122194DD40321462846FCF77C
:1057700037F8FEF77DFF00211548FCF79BFE04215A
:105780001348FCF797FEFDF73FFD00F036F80027C1
:105790004FF47A76FFF7B0FF39467F1C0DA0FEF775
:1057A0007DFF3046FBF70AFF21462846FCF710F83C
:1057B000F0E70000696E697420636F6D706C65744A
:1057C000650A000018000020B00500200004024017
:1057D000200400204E756D6265723A2025640A002F
:1057E00001460020842900D0C81C704710B500B9BC
:1057F000012000F0C1FC002010BD10B500F008FD34
:10580000002010BD10B5FFF78BFF18B1BDE81040A8
:1058100001F01CB9BDE8104001F012B938B5D0E96B
:10582000011204683AB1C3682BB1002000902046F1
:1058300000F0F5FD38BD2046BDE83840002200F0FC
:10584000CDBD00002DE9FF410D004FF00006CDE970
:10585000016507461ED000240396501C1FD002B1DC
:105860001446FFF75DFF69464FF01008E8B103AA40
:105870002846091D00F0F6FF012813D00096039872
:10588000E8B114494FF080500860BFF34F8FBFF369
:105890006F8F14E0802031462A46009011E04FF0CF
:1058A000FF34DEE7CDF80080E9E722462846091DEF
:1058B00000F03CFF012808D054B1402000909DE842
:1058C000070087E80700BDE8FF81CDF80080F6E714
:1058D0000020F3E704ED00E037B5054682B0002074
:1058E0000090140000D10124FFF71AFF4FF00003CD
:1058F00088B16A4603A9284600F0B8FE012811D1F4
:10590000009890B10A494FF080500860BFF34F8F64
:10591000BFF36F8F09E0224603A9284600F0F6FD89
:10592000012802D0FF2005B030BD0020FBE70000B9
:1059300004ED00E07FB50D4604464169B0F908006A
:1059400081B1A16971B1FFF74BFFD4E905128DE870
:105950000700D4E900102B46226901F038F80390C3
:1059600004B070BDFFF73CFF03A9CDE90001208A18
:105970002B4682B2D4E9001000F0FCFF012801D0D0
:105980000020EDE70398EBE72DE9F041184C0F46B6
:105990000546E6682068001D00F0FCFA38B920686A
:1059A00090F82C1001208840216981432161681CF6
:1059B00007D137B12168BDE8F0410E48091D00F05C
:1059C0002DBB20683544B5424560216805D2A06BE7
:1059D000BDE8F041091D00F009BB606B091D00F036
:1059E00005FBA06A854200D2A562BDE8F0810000F7
:1059F000B8000020D80B00202DE9F041054600F04A
:105A000019FB2E4CA068401CA06020682C4F10B1E0
:105A1000606940B32DE02560A068012829D10026E7
:105A200006EB860007EB800000F0D2FA761C072E0A
:105A3000F6D323488C3000F0CBFA2148A03000F098
:105A4000C7FA1F48B43000F0C3FA1D48C83000F050
:105A5000BFFA1B48DC3000F0BBFA19488C30606399
:105A60001430A06305E02068E96AC06A884200D863
:105A70002560606A401C6062E96A012022698840F2
:105A80001043206101EB810007EB8000291D00F02D
:105A9000C5FA00F0EFFA606900280CD02068E96AC6
:105AA000C06A884207D207494FF080500860BFF3B0
:105AB0004F8FBFF36F8FBDE8F0810000B80000206A
:105AC000FC0A002004ED00E030B4026C0B46002A12
:105AD0000BD0C1681144C1608468A14201D3016840
