:020000040800F2
:100000009007002029020008311C00088917000809
:10001000C91A00081F040008E522000800000000BB
:10002000000000000000000000000000C11C0008EB
:100030002104000800000000331C0008C31C000855
:10004000430200084302000843020008430200087C
:10005000430200084302000843020008430200086C
:10006000430200084302000843020008430200085C
:10007000430200084302000843020008430200084C
:10008000430200084302000843020008430200083C
:10009000430200084302000843020008430200082C
:1000A000430200084302000843020008430200081C
:1000B000430200086D1D00084302000843020008C7
:1000C00043020008430200084302000843020008FC
:1000D00043020008D9220008430200084302000836
:1000E00043020008430200084302000843020008DC
:1000F00043020008430200084302000843020008CC
:1001000043020008430200084302000843020008BB
:1001100043020008430200084302000843020008AB
:10012000430200084302000843020008430200089B
:10013000430200084302000843020008430200088B
:10014000430200084302000843020008430200087B
:10015000430200084302000843020008430200086B
:10016000430200084302000843020008430200085B
:100170004302000843020008430200080000000098
:10018000430200084302000800F002F800F03CF8C7
:100190000AA090E8000C82448344AAF10107DA45E2
:1001A00001D100F031F8AFF2090EBAE80F0013F0F8
:1001B000010F18BFFB1A43F001031847A0250000E8
:1001C000C0250000103A24BF78C878C1FAD8520779
:1001D00024BF30C830C144BF04680C6070470000C1
:1001E0000023002400250026103A28BF78C1FBD840
:1001F000520728BF30C148BF0B6070471FB502F0DF
:100200009BFA1FBD10B510BD00F0CFF81146FFF7E7
:10021000F5FF02F078F800F0EDF803B4FFF7F2FF15
:1002200003BC00F0F5F80000094880470948004782
:10023000FEE7FEE7FEE7FEE7FEE7FEE7FEE7FEE796
:10024000FEE7FEE704480549054A064B70470000F3
:100250005D1D000889010008900100209007002022
:10026000900300209003002053EA020C00F0698004
:100270002DE9F04B4FF00006002B1FBFB3FA83F5BA
:1002800003FA05F424FA05F65E4012BF1643B2FAEB
:1002900082F502FA05F4C5F120051EBF22FA05FC1D
:1002A00044EA0C04203556EA044C4FEA144418BFC3
:1002B000641C4FF000084FF00009904271EB030CF2
:1002C00039D3002919BFB1FA81F701FA07F6B0FA5C
:1002D00080F700FA07F6C7F120071EBF20FA07FCD7
:1002E00046EA0C062037B6FBF4FCA7EB0507103FE7
:1002F00007F01F0BCBF120060CFA0BFB2CFA06F6CD
:1003000044BFB3460026202FA4BF5E464FF0000B2B
:100310005BEA060C08BF4FF0010B19EB0B09ABFBB6
:10032000027C48EB0608C01B06FB02CC0BFB03CC8F
:1003300071EB0C01C1E70B46024641464846BDE859
:10034000F08B13B54FF000004FF00001AFF30080C9
:10035000BDE81C4070474FF0000200B513469446BC
:100360009646203922BFA0E80C50A0E80C50B1F10D
:100370002001BFF4F7AF090728BFA0E80C5048BF21
:100380000CC05DF804EB890028BF40F8042B08BFBF
:10039000704748BF20F8022B11F0804F18BF00F8BB
:1003A000012B7047704770477047754600F02CF876
:1003B000AE4605006946534620F00700854618B052
:1003C00020B5FFF73FFFBDE820404FF000064FF09B
:1003D00000074FF000084FF0000B21F00701AC467A
:1003E000ACE8C009ACE8C009ACE8C009ACE8C00999
:1003F0008D46704710B50446AFF300802046BDE837
:100400001040FFF70ABF000000487047300100208D
:1004100001491820ABBEFEE7260002007047FEE748
:10042000704772B6FEE7000000B587B01421684639
:10043000FFF791FF0B480021026842F010020260B2
:10044000006800F010000590082000900120CDE920
:10045000010103916946044800F07EF800F006F8B7
:1004600007B000BD303802400010024000220821D1
:10047000014800F069B90000001002402DE9F04188
:100480000446876D00F066F9064694F835000025AD
:10049000022806D08020606584F834500120BDE831
:1004A000F0812068016821F016010160206841692F
:1004B00021F080014161206C08B9A06C20B1206856
:1004C000016821F0080101602068016821F0010144
:1004D00001600CE000F03EF9801B052807D92020C0
:1004E0006065032084F8350084F83450D7E720682D
:1004F0000068C007EED194F85C103F208840B860D7
:10050000012084F8350084F834500020C7E790F8C3
:100510003510022903D08021416501207047052153
:1005200080F835100068016821F0010101600020A9
:100530007047000070B5044600F00CF90546601CD9
:1005400002D004480078044400F004F9401BA042A3
:10055000FAD370BD000000202DE9F84FDFF8BCA1F0
:100560000022012503264FF00F090AF1040BAAF11E
:10057000040E00BF0B6805FA02F42340A34270D1B9
:100580000F7907F00307012F01D0022F16D18768DA
:100590004FEA420806FA08FC27EA0C07D1F80CC01B
:1005A0000CFA08FC4CEA070CC0F808C04768A743DF
:1005B0000C79C4F3001494403C4344600C79E44348
:1005C000A4070AD0C4684FEA420C06FA0CF7BC43F1
:1005D0008F6807FA0CF72743C7600C7904F003040F
:1005E000022C12D1D40800EB840CDCF82040570711
:1005F000FF0E09FA07F824EA0804D1F8108008FA77
:1006000007F848EA0408CCF8208004684FEA420C56
:1006100006FA0CF7BC430F7907F0030707FA0CF74B
:10062000274307604C6814F4403F70D03C4C276867
:1006300047F480472760246822F0030704F48044CD
:100640000094384C07EB040CDCF8084897074FEA95
:10065000177809FA08F7BC43334FB84202D1002794
:1006600024E054E0314FB84201D101271EE0304F61
:10067000B84201D1022719E02E4FB84201D1032719
:1006800014E02D4FB84201D104270FE02B4FB842A0
:1006900001D105270AE02A4FB84201D1062705E01B
:1006A000284FB84201D1072700E0082707FA08F7CA
:1006B0002743CCF80878DAF800405746D1F804C050
:1006C0009C435FEACC2C00D51C433C60DBF8004027
:1006D0005F46D1F804C09C435FEA8C2C00D51C43D4
:1006E0003C60DEF800407746D1F804C09C435FEAE6
:1006F0008C3C00D51C433C60084F083F3C68D1F857
:1007000004C09C435FEACC3C00D51C433C60521CB7
:10071000102AFFF42FAFBDE8F88F0000083C01401D
:100720004438024000300140000002400004024012
:1007300000080240000C0240001002400014024079
:1007400000180240001C02400AB181617047090490
:10075000FBE70000014880687047000000000020AF
:1007600002488168027811448160704700000020CF
:100770000B4810B5016841F400710160016841F453
:1007800080610160016841F480710160032000F024
:100790006FF80F2000F006F800F024F8002010BDDC
:1007A000003C024070B50D4D04464FF47A71287834
:1007B000B1FBF0F00A490968B1FBF0F000F00CFB66
:1007C00048B9102C07D200222146501E00F030F804
:1007D00000206C6070BD012070BD00000000002092
:1007E0000C0000200A4808B5016841F4804101600E
:1007F000006800F4804000900548001F016841F047
:1008000080510160006800F08050009008BD000039
:1008100044380240002809DB00F01F02012191400A
:100820004009800000F1E020C0F80011704700008E
:10083000F0B40E4B1B680C46C3F30223C3F107054B
:10084000042D00D90425191D072901D2002300E039
:10085000DB1E012606FA05F1491E214099409E4003
:10086000761E16403143F0BC01F03DBD0CED00E0BA
:10087000064900F0070208684FF6FF03184040EAF7
:100880000220034A10430860704700000CED00E0AE
:100890000000FA052DE9F0470E46050065D0DFF8A7
:1008A0001481D8F80000F7B200F00700B04207D278
:1008B00088F80070D8F8000000F00700B04254D16A
:1008C00028683D4C810712D5400703D5206840F4C5
:1008D000E05020602878000703D5206840F460408D
:1008E00020602068A96820F0F00008432060287884
:1008F000C0072DD0304968680839012812D0022875
:1009000013D0032811D00968890700292DDA21683E
:1009100021F0030101432160FFF71CFF814641F2F2
:10092000883A0EE009688903EFE709688901ECE776
:10093000FFF710FFA0EB0901514502D90320BDE8E4
:10094000F0872068696800F00C00B0EB810FEFD1F0
:10095000D8F80010404601F00701B14207D90770EE
:10096000006800F00700B04201D00120E7E72878D6
:10097000400705D52068E96820F4E050084320606E
:100980002878000706D52068296920F4604040EAED
:10099000C100206000F038F82168084AC1F3031153
:1009A000515CC8400649086006480068FFF7FAFE37
:1009B0000020C4E7003C02400838024042270008FB
:1009C0000C00002004000020044805490068096864
:1009D000044AC1F38221515CC84070470C000020DA
:1009E0000838024052270008044805490068096891
:1009F000044AC1F34231515CC84070470C000020EA
:100A00000838024052270008154810B5006810F059
:100A10000C02144813D01449042A0FD0082A0ED10E
:100A20000F4C241F2268236802F03F025B0207D5A7
:100A30002068C0F38810A0FB010106E0084610BD45
:100A40002168C1F38811A1FB00010023FFF70CFC12
:100A50002168C1F30141491C4900B0FBF1F010BD10
:100A6000083802400024F40040787D012DE9F84F59
:100A700004006ED02078DFF84C93C007A9F104057C
:100A80004AD009F104000168C1F38101012908D0AD
:100A90000068C0F3810002280AD1D9F800004002A2
:100AA00006D52868800337D560680028E1D033E098
:100AB0006068B0F5803F10D0B0F5A02F286810D046
:100AC00020F480302860286820F480202860606846
:100AD000A8B1FFF73FFE06460DE0286840F48030DD
:100AE000F4E740F480202860F7E700BFFFF732FE0C
:100AF000801B642873D828688003F7D50CE0FFF7C3
:100B000029FE064605E000BFFFF724FE801B64288F
:100B1000F0D828688003F7D42078DFF8AC8280070B
:100B20004FF0000A3ED5A748001D016811F00C0FD8
:100B300008D00068C0F3810002280BD1D9F800006A
:100B4000400207D42868800716D5E068012800D144
:100B500012E033E1E068B8B10120C8F80000FFF707
:100B6000F9FD064605E000BFFFF7F4FD801B0228F3
:100B7000C0D828688007F7D52868216920F0F800D8
:100B800040EAC10028600DE0C8F800A0FFF7E2FDD0
:100B9000064604E0FFF7DEFD801B02281FD8286808
:100BA0008007F7D42078000722D5864F87486169EF
:100BB000703771B101210160FFF7CCFD064604E0FA
:100BC000FFF7C8FD801B022809D838688007F7D5D1
:100BD0000EE0C0F800A0FFF7BDFD064605E082E08C
:100BE000FFF7B8FD801B02287DD838688007F7D44E
:100BF0002078400768D5DFF8CCB100270BF13C0B1B
:100C0000DBF80000C0000BD4DBF8001041F080518D
:100C1000CBF80010DBF80000012700F080500090B6
:100C20006B4E3068C00510D4306840F4807030607E
:100C3000FFF790FD009005E0FFF78CFD0099401A4A
:100C4000022850D83068C005F6D55E4EA0686C36D4
:100C500001280FD00528306810D020F00100306046
:100C6000306820F004003060A068B8B1FFF772FD72
:100C700000900FE0306840F00100F4E740F004001D
:100C80003060F7E7FFF766FD0099411A41F28830BE
:100C9000814266D830688007F4D50EE0FFF75AFD30
:100CA000009007E0FFF756FD0099411A41F28830A5
:100CB000814256D830688007F4D42FB1DBF8001099
:100CC00021F08051CBF80010A069C8B33D49091D3F
:100CD0000968C1F3810102294AD00228504607D091
:100CE000C8F8600000E03CE0FFF734FD04463BE05C
:100CF0004746C8F86000FFF72DFD064605E000BF37
:100D0000FFF728FD801B02282BD828688001F7D424
:100D1000D4E907010843A16A2E4A490802EB0141C0
:100D2000626A41EA8211084394F82C1040EA01619A
:100D3000C9F8001001203866FFF70CFD044606E0F4
:100D40003EE000BFFFF706FD001B022809D8286817
:100D50008001F7D534E000BFFFF7FCFC001B022840
:100D600002D90320BDE8F88F28688001F4D427E079
:100D70000128F7D0D9F80000E26900F4800191421F
:100D80001CD1226A00F03F01914217D147F6C07191
:100D9000626A0140B1EB821F10D1A26A4FF0FF33AB
:100DA00000F4403103EB5202B1EB024F06D194F84C
:100DB0002C1000F07060B0EB016F01D00120D1E782
:100DC0000020CFE70438024000004742800E47422F
:100DD000007000400000FFFF10B5401EB0F1807FA2
:100DE00001D3012010BD4FF0E02460610F21601796
:100DF00001F079FA0020A06107202061002010BDD9
:100E00007047704770B590F83C20012A32D0012419
:100E100080F83C40022280F83D2003685A689D68B3
:100E200022F070060A6832435A60134B02689A42F5
:100E300014D0B2F1804F11D0104B9A420ED0104B0B
:100E40009A420BD00F4B9A4208D00F4B9A4205D0D2
:100E50000E4B9A4202D00E4B9A4204D1496825F0BB
:100E600080031943916080F83D40002180F83C10D8
:100E7000084670BD022070BD000001400004004023
:100E800000080040000C0040000401400040014008
:100E90000018004010B5040003D094F83D0010B1D4
:100EA00007E0012010BD002084F83C00204600F03F
:100EB0001FF8022084F83D00211D206800F05CFF2F
:100EC000012084F8460084F83E0084F83F0084F84E
:100ED000400084F8410084F8420084F8430084F81C
:100EE000440084F8450084F83D00002010BD000057
:100EF00008B500680B49884212D10B48016841F0DF
:100F0000020101600068002200F00200009011461A
:100F10001D20FFF78DFCBDE808401D20FFF77ABCBF
:100F200008BD0000000400404038024070B504468F
:100F300090F83C000025012817D0012684F83C6079
:100F4000022084F83D002068826822F0770222F4B3
:100F50007F4282600868502838D00DDC20284FD0AE
:100F600005DC90B3102811D14AE0022070BD302872
:100F700046D040280AD13BE060282FD070280DD001
:100F8000B0F5805F03D0B0F5005F12D0012584F882
:100F90003D60002084F83C00284670BDCB68D1E954
:100FA0000121206800F061FF2068816841F077012D
:100FB00009E0CB68D1E90121206800F056FF2068E4
:100FC000816841F480418160E1E719E0CA684968BD
:100FD000206801F01FF85021206806E0CA684968BF
:100FE000206801F028F86021206800F048FFCEE773
:100FF000CA684968206801F00DF840212068F4E7CC
:10100000226801461046F0E770472DE9F04104469A
:101010000068C66805694FF00007A90713D5B10736
:1010200011D5F91E016101202077206880698007B1
:10103000204602D0FFF7E8FF04E000F0BDF82046AC
:1010400000F04FF92777680716D5700714D5216887
:101050006FF004000861022020772068806910F496
:10106000407F204602D0FFF7CFFF04E000F0A4F855
:10107000204600F036F92777280715D5300713D515
:1010800021686FF008000861042020772068C0699B
:101090008007204602D0FFF7B7FF04E000F08CF88D
:1010A000204600F01EF92777E80616D5F00614D57D
:1010B00021686FF010000861082020772068C0695F
:1010C00010F4407F204602D0FFF79EFF04E000F0BE
:1010D00073F8204600F005F92777E80708D0F007F5
:1010E00006D021686FF001000861204600F05EF92B
:1010F000280608D5300606D521686FF08000086103
:101100002046FFF77DFE680608D5700606D52168E3
:101110006FF040000861204600F049F9A8060AD5A2
:10112000B00608D521686FF0200008612046BDE8B0
:10113000F041FFF766BEBDE8F081000030B587B032
:10114000044614216846FFF706F9174920688842CB
:1011500027D116480024016841F0010101600168AF
:1011600001F001010591016841F00401016000688E
:10117000022500F004000590C0200090CDE9015444
:1011800069460B48CDE90345FFF7E6F94FF4407097
:101190000090CDE9015469460648CDE90345FFF7C3
:1011A000DBF907B030BD00000004004030380240D9
:1011B0000000024000080240704770B5044690F8F5
:1011C0003C0000260D4601280FD0012084F83C0089
:1011D0006AB1042A1DD0082A2FD00C2A3FD001263C
:1011E000002084F83C00304670BD022070BD2068AD
:1011F00000F04EFE2068816941F00801816120689D
:10120000816921F004018161206881692A691143A3
:1012100011E0206800F06CFE2068816941F40061F3
:1012200081612068816921F4806181612068816920
:101230002A6941EA02218161D2E7206800F08EFE2E
:101240002068C16941F00801C1612068C16921F0CD
:101250000401C1612068C1692A69114311E0206855
:1012600000F0B0FE2068C16941F40061C1612068EE
:10127000C16921F48061C1612068C1692A6941EABC
:101280000221C161ACE710B5040003D094F83D0021
:1012900010B107E0012010BD002084F83C0020467A
:1012A00000F01EF8022084F83D00211D206800F0A7
:1012B00063FD012084F8460084F83E0084F83F0076
:1012C00084F8400084F8410084F8420084F8430028
:1012D00084F8440084F8450084F83D00002010BDE7
:1012E0007047704710B50446022249B104290ED058
:1012F000082913D094F84100012816D0012010BD10
:1013000094F83E000128F9D184F83E200FE094F8CB
:101310003F000128F2D184F83F2008E094F8400013
:101320000128EBD184F8402001E084F8412001221B
:10133000206800F08DFD16492068164A884201D0C9
:10134000904203D1436C43F40043436420688842D5
:1013500013D0B0F1804F10D00F4988420DD00F4903
:1013600088420AD00E49884207D0904205D00D49E4
:10137000884202D00C49884204D1816801F00701FB
:10138000062903D0016841F001010160002010BD71
:10139000000001400004014000040040000800403B
:1013A000000C0040004001400018004070477047AA
:1013B00070477047F8B5016804460868CA684B6909
:1013C00010F00F0F4FF000055AD003F0010602F4A1
:1013D0009077374365D0C10705D0D10503D5616C3F
:1013E00041F001016164410705D5D90703D0616C63
:1013F00041F002016164810705D5D90703D0616C12
:1014000041F004016164010707D502F02001314376
:1014100003D0616C41F008016164616C00293BD02C
:10142000800604D5900602D5204600F06EFE2068A6
:101430004069616CC0F3801001F00801014320464F
:101440002BD000F03BFE20684069400621D5206883
:10145000143050E8001F21F0400140E80012002A3B
:10146000F5D1E06BA8B16E490165E06BFFF74FF86D
:10147000002811D0E06B016D01B0BDE8F0400847D5
:1014800083060ED593060CD52046BDE8F84000F043
:101490003CBE2046FFF78DFFF8BDFFF78AFF65646D
:1014A000F8BD266B2023012E7DD1C6067BD5D6063E
:1014B00079D508684868009048694FF002064006F0
:1014C00041D5E16B086840680004000CE8D0A28DAB
:1014D0008242E5D9E085C869B0F5807F2DD02068CB
:1014E0000C3050E8001F21F4807140E80012002AFF
:1014F000F5D12168143151E8000F20F0010041E8D6
:101500000002002AF5D12068143050E8001F21F0B5
:10151000400140E80012002AF5D184F842302563EA
:1015200020680C3050E8001F21F0100140E8001244
:10153000002AF5D1E06BFEF7A1FF6663A08DE18D77
:10154000401A81B22AE0A08DE18D401A81B2E08D6F
:101550000028A5D00029A3D022680C3252E8000F41
:1015600020F4907042E80007002FF5D12068143075
:1015700050E8002F22F0010240E80027002FF5D1AB
:1015800084F84230256320680C3050E8002F22F0A8
:10159000100240E80023002BF5D166632046FFF7D8
:1015A00007FFF8BDFFE705062BD5150629D594F8EA
:1015B00041002128F5D1A068B0F5805F01D12069F4
:1015C000B0B1206A411C2162216800784860E08C3B
:1015D000401E0004000CE084E3D12068C16821F0C3
:1015E0008001C1602068C16841F04001C160D8E756
:1015F000206A0088C0F308004860206A801C2062CE
:10160000E5E74006CDD55006CBD5CA68204622F086
:101610004002CA6084F8413000F0B5F8C1E700002C
:10162000AD20000870B5040004D094F841000025F6
:1016300010B106E0012070BD84F84050204600F053
:1016400023F8242084F841002068C16821F4005167
:10165000C160204600F0BAFD2068016921F4904184
:1016600001612068416921F02A0141612068C16857
:1016700041F40051C1606564202084F8410084F881
:1016800042006563002070BDF0B587B004461421A8
:101690006846FEF760FE3749354E27680022354C14
:1016A0001039032302253448B74217D1266846F47F
:1016B00000262660246804F4002405940C6844F095
:1016C00001040C600968029201F001010591CDE965
:1016D00000350821CDE90331694645E0DFF89CC0BB
:1016E0000726674525D1234C241D276847F010079E
:1016F0002760246804F0100405940C6844F0010489
:101700000C60096802AC01F0010105914FF4C06161
:10171000CDE9001584E84C006946FEF71DFF002264
:1017200011462520FFF784F82520FFF773F807B04E
:10173000F0BDDFF84CC06745F9D1276847F40037A2
:101740002760246804F4003405940C6844F0010414
:101750000C60096802AF01F0010105910C21CDE98F
:10176000001587E84C006946FEF7F6FEDFE700004B
:10177000004C004040380240000002400010014090
:101780000044004070477047FEE7000000B587B096
:1017900014216846FEF7DFFD0B480021026842F085
:1017A00002020260006800F00200059040200090F4
:1017B0000120CDE90101039169460448FEF7CCFE02
:1017C00000F04CFC07B000BD30380240000402407D
:1017D0002DE9F04F87B014216846FEF7BCFD56484E
:1017E0000024016841F010010160016801F010015E
:1017F0000591016841F080010160016801F08001FC
:101800000591016841F001010160016801F00101E9
:101810000591016841F004010160016801F00401D3
:101820000591016841F002010160016801F00201C7
:101830000591016841F0080101600068DFF8FCB023
:1018400000F008004FF40375059000222946584621
:10185000FEF77AFFDFF8E890002248F240014846A0
:10186000FEF772FFDFF8DCA04FF47048002241461B
:101870005046FEF769FF0095022601250396CDE943
:10188000015469465846FEF767FE41F63040CDE9FF
:101890000004694658460294FEF75EFE1020CDE92A
:1018A0000004694628480294FEF756FE41F23900CA
:1018B000CDE90004694648460294FEF74DFEEF0369
:1018C0000097CDE90154694648460394FEF744FE6B
:1018D0004FF440608DE8310069465046FEF73CFE0B
:1018E000CDF800800396CDE9015469465046FEF7D5
:1018F00033FECDE90074694614480294FEF72CFECD
:101900001F20CDE90004694650460294FEF724FEEC
:101910004020CDE90005CDE9024669464846FEF77C
:101920001BFECDE90054694658460296FEF714FEA8
:1019300007B0BDE8F08F00003038024000100240D0
:1019400000040240000C0240000802400000024077
:1019500030B58DB000240794089409940A940B9430
:101960001C2168460C94FEF7F6FC2C482A490160BD
:10197000A721C0E9011440F2E731C0E903148461F2
:10198000FFF788FA08B1FEF74CFD4FF4805007903E
:1019900007A92248FFF7CAFA08B1FEF742FD1F481F
:1019A000FFF771FC08B1FEF73CFD0B940BA91B4837
:1019B0000C94FFF727FA08B1FEF733FD6020009082
:1019C0004FF4FA75CDE90154002269461348049496
:1019D000FFF7F3FB08B1FEF724FD042269460F4828
:1019E000FFF7EBFB08B1FEF71CFD082269460B4828
:1019F0000195FFF7E2FB08B1FEF713FD0C226946E3
:101A000006480195FFF7D9FB08B1FEF70AFD034828
:101A1000FFF794FB0DB030BD000400401000002023
:101A20000C4810B50A4901604FF4E13141600021D2
:101A300081600C22C160C0E904128161C161FFF7BD
:101A4000F1FD002803D0BDE81040FEF7EABC10BD50
:101A5000004C0040580000200C4810B50A490160B5
:101A60004FF4E1314160002181600C22C160C0E986
:101A700004128161C161FFF7D5FD002803D0BDE8E4
:101A80001040FEF7CEBC10BD00100140A0000020A9
:101A90000C4810B50A4901604FF4E1314160002162
:101AA00081600C22C160C0E904128161C161FFF74D
:101AB000B9FD002803D0BDE81040FEF7B2BC10BD50
:101AC00000440040E8000020FEE7000010B50E4C86
:101AD000012251032046FEF737FE01221103204662
:101AE000FEF732FE012291032046FEF72DFE012271
:101AF000D1032046FEF728FEC820FEF71BFDBDE8F7
:101B0000104000F077B80000000C024010B50C4CFB
:101B1000012251032046FEF717FE0022A1142046A1
:101B2000FEF712FE012291032046FEF70DFE20462D
:101B3000BDE8104000224FF40041FEF705BE000052
:101B4000000C024000B587B014216846FEF703FC84
:101B50000E480021026842F008020260006803910A
:101B600000F008000590012001904FF470400090B3
:101B700069460748FEF7F0FC08210648FFF7B2FB6C
:101B80000C210448FFF7AEFB07B000BD303802401F
:101B9000000C02401000002010B540F2E73110FBAD
:101BA00001F000F062FD9FED071B53EC112B00F0DC
:101BB000D7FB00F02DFD05490A68D0630968086469
:101BC00010BD00000000000000005940100000207F
:101BD00070B50546B1FBF5F6002407E02046FFF797
:101BE000DBFF3046FEF7A6FC641CE4B2AC42F5D93C
:101BF00070BD000010B50D4C00224FF4005120467E
:101C0000FEF7A2FD0022A1142046FEF79DFD002252
:101C10004FF480412046FEF797FD2046BDE8104076
:101C200000224FF40041FEF78FBD0000000C02407F
:101C3000FEE7704700B587B014216846FEF78BFBBE
:101C40000B480021026842F010020260006800F0B8
:101C500010000590042000900120CDE901010391BE
:101C600069460448FEF778FC00F000FA07B000BDB2
:101C7000303802400010024000B587B01421684699
:101C8000FEF769FB0C480021026842F01002026076
:101C9000006800F0100005904FF4007000900120E3
:101CA000CDE90101039169460448FEF755FC00F0B7
:101CB000E5F907B000BD00003038024000100240D6
:101CC0007047FEF74DBD000030B593B03021684637
:101CD000FEF741FB14210CA8FEF73DFB1D48002533
:101CE000016841F080510160006800F0805011905F
:101CF0001948016841F4804101600068022400F441
:101D000080401190012003901020049000940694CC
:101D10000820CDE90750A820CDE9090404200B9044
:101D20006846FEF7A3FE08B172B6FEE70CA90F20C5
:101D300081E831004FF4A0500F904FF48050109084
:101D400005210CA8FEF7A6FD002801D072B6FEE71B
:101D500013B030BD403802400070004002480168B6
:101D600041F470010160704788ED00E00148FFF721
:101D70004CB9000010000020F0B50268294C2A4D33
:101D80002A4E2B4F2B4B4FF0804CA04209D0604580
:101D900007D0A84205D0B04203D0B84201D0984243
:101DA00004D122F0700E4A6842EA0E02A0421BD013
:101DB000604519D0A84217D0B04215D0B84213D010
:101DC000984211D01C4DA8420ED01C4DA8420BD0F9
:101DD0001B4DA84208D01B4DA84205D01A4DA84261
:101DE00002D01A4DA84203D122F44075CA682A4392
:101DF0004D6922F080022A4302608A68C2620A6842
:101E00008262A04201D0984201D109690163012197
:101E100041610169C90703D0016921F00101016134
:101E2000F0BD000000000140000400400008004038
:101E3000000C00400004014000400140004401400B
:101E40000048014000180040001C004000200040F5
:101E500010B501F01F030121046A99408C4304620C
:101E6000016A9A401143016210BD10B5846842EACC
:101E7000032224F47F440A432243826010BD826817
:101E800022F070020A4342F00701816070470000AF
:101E9000F0B5036A026A22F00102026242688469B4
:101EA000124E24F073050C682C4323F002058B6856
:101EB0002B430D4DA84201D0B04205D123F00807B5
:101EC000CB683B4323F00403A84201D0B04205D1C4
:101ED0004D6922F4407215438A692A434260846145
:101EE000496841630362F0BD000001400004014005
:101EF000F0B5026A036A23F0100303624368846941
:101F00000D6824F4E64444EA05248D6822F020029A
:101F100042EA05120F4D104EA84201D0B04206D140
:101F2000CF6822F0800242EA071222F04002A84263
:101F300001D0B04207D14D6923F4406343EA8503E1
:101F40008D6943EA85034360846149688163026265
:101F5000F0BD00000000014000040140F0B5026A3D
:101F6000036A23F4807303624368C46922F4007235
:101F700024F073050C68124E2C438D6842EA05224A
:101F80000E4DA84201D0B04206D1CF6822F40062C3
:101F900042EA072222F48062A84201D0B04207D16F
:101FA0004D6923F4405343EA05138D6943EA051351
:101FB0004360C4614968C1630262F0BD0000014032
:101FC0000004014030B5046A026A22F480520262C1
:101FD0004268C3690D6823F4E64343EA05238D682C
:101FE00024F4005444EA0534084DA84202D0084DB8
:101FF000A84204D14D6922F4804242EA851242602F
:10200000C36149680164046230BD00000000014002
:102010000004014010B5036A046A24F0010404625C
:10202000846924F0F00444EA021423F00A020A430B
:102030008461026210BD10B5036A046A24F01004C2
:102040000462846923F0A00324F4704444EA023259
:1020500043EA01118261016210BD000000224021AB
:102060000148FEF771BB0000000402400022042179
:102070000148FEF769BB00000010024000224FF447
:1020800000710148FEF760BB0010024001224021B0
:102090000148FEF759BB0000000402400122510232
:1020A0000148FEF751BB00000010024010B5806BE4
:1020B0000021C185C184FFF77CF910BD01680C3196
:1020C00051E8002F22F4907241E80023002BF5D153
:1020D0000168143151E8002F22F0010241E8002389
:1020E000002BF5D1016B012909D101680C3151E8B0
:1020F000002F22F0100241E80023002BF5D120210F
:1021000080F8421000210163704708B590F8421032
:10211000222901D0022008BD82684FF480539A42E0
:1021200001D1016921B1816A9A421BD04AB10AE00A
:102130000268816A5268C2F308020A80816A891CB7
:1021400008E0026972B10268526802F07F020A7008
:10215000816A491C8162C18D491E0904090CC1852F
:1021600003D01BE002685268F1E70168CA6822F0F8
:102170002002CA600168CA6822F48072CA600168DD
:102180004A6922F001024A61202180F842100021B0
:102190004163026B012A03D0FFF7F4FA002008BD67
:1021A000016301680C3151E8002F22F0100241E870
:1021B0000023002BF5D101680A68D20602D50A680F
:1021C00049680091818DFFF7F3F8E7E770B50446A1
:1021D00000680169E26821F44051114301612169FD
:1021E000A068E26908436169114308432168CA682D
:1021F00049F20C639A430243CA6020684169A269AC
:1022000021F440711143416131492068884202D074
:102210003049884202D1FEF7E7FB01E0FEF7D4FB2C
:10222000E2690023192164253226B2F5004F626865
:1022300028D0A0FB0101930F9200FEF715F801468C
:10224000B0FBF5F06FF01802504301EB800006EB95
:102250000010B0FBF5F000F0F002B1FBF5F002EB7E
:102260000012B1FBF5F06FF01803584301EB80004A
:1022700006EB0010B0FBF5F000F00F0021681044F1
:10228000886070BDA0FB010192185B41FDF7ECFF77
:102290000146B0FBF5F00201B1FBF5F06FF0180359
:1022A000584301EB800006EBC000B0FBF5F000F0F6
:1022B000F80002EB4002B1FBF5F0584301EB80005F
:1022C00006EBC000B0FBF5F000F00700D6E7000019
:1022D00000100140001401400148FFF76BB80000F6
:1022E000A0000020FEE70907090E002804DB00F12A
:1022F000E02080F80014704700F00F0000F1E020AB
:1023000080F8141D7047FEF733FAFFF7DDFCFFF786
:102310005FFAFFF71DFBFFF783FBFFF79DFBFFF75E
:10232000B7FBFFF70FFCFFF731FAFFF7A5FCFFF74C
:1023300081FCFEF779F84FF4FA64FFF7A7FEFFF788
:10234000ADFE21466420FFF743FCFFF7DFFB20468C
:10235000FEF7F0F8FFF7BAFB2046FEF7EBF8ECE7E4
:102360002DE9C04130B4DFF8A0C23CEA111418BF17
:102370003CEA131400F0EC8081EA03051CEA111416
:1023800044EAD57418BF1CEA131500F0C780A4EB0B
:1023900005044FF0004545EAC12145EAC32341EA5F
:1023A000505143EA525304F17F74994204F50034CA
:1023B0004FEAC0204FEAC22208BF904200F09C8042
:1023C0004FEA13650FF24016765D4FEA134506FBA0
:1023D00005F7C7F1807706FB07F74FEAD737A7FB6A
:1023E00003687642C8F58038A7FB06CE38BFA8F14F
:1023F000010807FB08E64FF0000EA6FB028CE6FB87
:1024000003CEDCF1000CCEF1004E38BFAEF1010E70
:10241000A6FB0C584FF000074FF00005E6FB0E87B7
:10242000A1FB08C6A0FB07CE16EB0E0645F1000582
:10243000E1FB076515F1E04E7EBFA4F580345FEA4D
:1024400046066D4116F1800745F100054FEA172752
:102450004FEA066647EA0567A6F1DE46B6F1805FF9
:102460004FEA15251FD9384624F0010C05EBC4713D
:10247000BCF1FE6F01EB0C1102D8F0BCBDE800818D
:1024800024425CBF01F5801E9EEAC47F02D4F0BCEA
:10249000BDE80081244238D4F0BCA1F1C041BDE8C0
:1024A000004100F043B94FEAD22242EA43524FEAD8
:1024B000D323A7FB02864FEAD02040EA415007FB16
:1024C00003661EEA0E0F4FEAD12105FB026658BFD4
:1024D000A6EB0056B6EB00564FEA520E4EEAC37E0C
:1024E00018EB0E0E56EB530EBDD518EB02085E41ED
:1024F0007F1C55F10005B6E74FF480154FF000073B
:102500004FF000064FF00008ADE7F0BC4FF00000C0
:1025100001F1C04101F00041BDE8008111EA0C1F4A
:102520000CEA131500D00CE013EA0C1F00F0258014
:102530004FF00000F0BC81EA030101F00041BDE86A
:102540000081F0BCBDE8004181EA030100F0EEB873
:10255000F0BCBDE8004170B500F09AF8097EFC3E81
:1025600000F007B881EA03014FF0000001F00041DC
:10257000704781EA030100F0D9B8F0BCBDE8004122
:102580004FF0000021497047FFFDFBF9F7F5F4F229
:10259000F0EEEDEBE9E8E6E4E3E1E0DEDDDBDAD8FE
:1025A000D7D5D4D3D1D0CFCDCCCBCAC8C7C6C5C45C
:1025B000C2C1C0BFBEBDBCBBBAB9B8B7B6B5B4B373
:1025C000B2B1B0AFAEADACABAAA9A8A8A7A6A5A45E
:1025D000A3A3A2A1A09F9F9E9D9C9C9B9A99999822
:1025E0009797969595949393929191908F8F8E8EC5
:1025F0008D8C8C8B8B8A8989888887878685858452
:1026000084838382828181800000FF070000F87F3D
:102610004FEA1153A3F58063D3F11E03A8BFD3F192
:10262000200C08DB4FF0004242EAC12252EA50522D
:1026300032FA03F0704709420BD4102BC4BF0020BC
:10264000704703F5787CBCF1FF3F05D04FF0FF30B9
:1026500070474FF00000704770B500F019F800BFE8
:102660004992248000207047F0E7B0FA80F310FA16
:1026700003F10AD0C3F11D0303F580634FEA415013
:102680004FEA035202EBD12170474FF00000704730
:102690000EF1020E2EF0030E5EF8046B364205D4E6
:1026A000012A43EB030515F5001F12D8012841EB61
:1026B000010C1CF5001F0CD80ED14FEAD17C15F58A
:1026C000001F0CEB4C0C0CF1020C08BF4CEBD37C44
:1026D00004E04FF0080C01E04FEAD37C0CEB4C0512
:1026E00026FA05F606F00706B6F1040C06D20EEB44
:1026F000860CBDE870404CF0010C6047DFE80CF040
:10270000090B02024FF000414FF00000A1F500213B
:1027100070BD19461046012851EB010418BFD4F5CD
:10272000001484BF002001F0004170BD0808A0F52E
:1027300000114FEA310170474FF04070E1EE100A8E
:1027400070470000000000000000010203040607BB
:102750000809000000000102030400007C270008B3
:102760000000002010000000C40100088C270008B1
:102770001000002080070000E001000801000000B8
:0C27800010000000000000000024F40025
:040000050800018965
:00000001FF
