:020000040800F2
:10000000084C00205D02000859450008D53800085A
:10001000293F000841130008C150000800000000FB
:100020000000000000000000000000009D0100082A
:100030007915000800000000F9010008D946000801
:1000400077020008770200087702000877020008AC
:10005000770200087702000877020008770200089C
:10006000770200087702000877020008770200088C
:10007000770200087702000877020008770200087C
:1000800049140008551400084911000877020008B7
:10009000770200087702000877020008770200085C
:1000A00077020008A54700087702000877020008D9
:1000B000B1470008BD470008770200087702000832
:1000C000770200087702000877020008770200082C
:1000D00077020008355000084950000877020008F0
:1000E000770200087702000877020008770200080C
:1000F00077020008770200087702000877020008FC
:1001000077020008770200087702000877020008EB
:1001100077020008770200087702000877020008DB
:1001200061140008770200086D14000877020008C7
:1001300077020008770200087702000877020008BB
:1001400077020008770200087702000877020008AB
:100150007702000877020008791400087702000887
:10016000770200087702000877020008770200088B
:1001700077020008770200087702000800000000FC
:100180007702000877020008DFF80CD000F06CFD61
:100190000048004765610008084C00202C4B196896
:1001A0000868B0E8F04F80F30988BFF36F8F4FF015
:1001B000000080F3118870470000000008480068C4
:1001C000006880F308884FF0000080F3148862B65E
:1001D00061B6BFF34F8FBFF36F8F00DF00BF00BF6B
:1001E00008ED00E0DFF80C00016841F470010160E7
:1001F000704700BF88ED00E0EFF30980BFF36F8F19
:10020000134B1A681EF0100F08BF20ED108A20E96A
:10021000F04F106009B44FF0500080F31188BFF325
:100220004F8FBFF36F8F06F0BBFD4FF0000080F3E0
:10023000118809BC19680868B0E8F04F1EF0100F6B
:1002400008BFB0EC108A80F30988BFF36F8F704746
:10025000D0000020EFF3058070470000064880477B
:1002600006480047FEE7FEE7FEE7FEE7FEE7FEE79B
:10027000FEE7FEE7FEE7FEE7954700088901000874
:100280002DE9F05F0546002092469B4688460646CB
:10029000814640241BE0284641464746224600F05E
:1002A000D0FA53465A46C01A914110D31146184607
:1002B000224600F0B7FA2D1A67EB01084F46224696
:1002C0000120002100F0AEFA17EB00094E41201E7C
:1002D000A4F10104DFDC484631462A464346BDE826
:1002E000F09F40EA01039B0703D009E008C9121FF1
:1002F00008C0042AFAD203E011F8013B00F8013BE0
:10030000521EF9D27047D2B201E000F8012B491E0B
:10031000FBD270470022F6E710B513460A460446A2
:100320001946FFF7F0FF204610BD421C10F8011BD4
:100330000029FBD1801A70470FB400B58DB010A909
:1003400009900B9000914FF0FF300A9000200C9024
:1003500005480690054807906A4609A80F9900F0DD
:1003600087FA0DB05DF814FB8D080008AB08000893
:100370002DE9FF4F087881B09946FF2805D0491C28
:100380002D2804D00024002308E000230BE00124E2
:10039000F9E703EB830300EB4303491C0878FF28CC
:1003A000F7D104B15B4200200090147801462D2C57
:1003B00001D02B2C04D1521C2D2C12D000240094DF
:1003C00000251678FF2E0ED00A24A0FB04C801FBDE
:1003D0000481002700FB0711521C16EB0C00694139
:1003E000EFE70124EBE7994450EA01020ED0002424
:1003F000AA4D2646DFF8A88200F0DEFB82468B4637
:10040000B9F1000009DAC9F100071BE001980021E9
:10041000C0E9001105B0BDE8F08F074612E0F8070B
:1004200007D022462B463046414600F053FB064695
:10043000884622462B461046194600F04BFB0446E0
:100440000D467F10002FEAD1B9F1000F3246434626
:100450005046594602DA00F027F901E000F03AFB75
:10046000009A0AB181F00041019AC2E90001D1E786
:100470002DE9FF4F1F468DB0D7E901464FF0FF38F9
:100480002E2045464FF000090B90B9696D1C0E985F
:100490008847396A824688470028F6D1BAF1FF3F7B
:1004A0000AD024F4D064002E11DDBAF12B0F08D04D
:1004B000BAF12D0F0BD102E0404611B0ABE744F486
:1004C0008064B9696D1C0E9888478246761E69461D
:1004D000600501D52D2000E02B208DF8000001F1F2
:1004E000010B0DF1200809E0B9696D1C0E988847D1
:1004F00082460F9844F40074761E0560002E02DDDB
:10050000BAF1300FF0D00B998A453ED144F0800407
:1005100006E00F99681CA9F1010944F40074086011
:10052000B9696D1C761E0E98884782463028F0D037
:100530002BE00B998A4505D1200603D444F08004B2
:10054000761E18E0504604F0B3FE08B30DF1130117
:10055000761E44F400748B4508D2AAF130000BF8E3
:10056000010B200607D5A9F1010003E0200602D403
:1005700009F101008146A00502D50F99681C0860A9
:10058000B9696D1C0E9888478246002ED1DC53E075
:10059000002E51DDBAF1650F02D0BAF1450F4BD1F3
:1005A000A00549D5B9696D1C24F44074761E0E98D7
:1005B00088478246002E0CDD2B2804D0BAF12D0F7F
:1005C00007D144F48074B9696D1C0E98884782463F
:1005D000761EE00501D52D2100E02B2108F8011B36
:1005E000CDF82C8021E00DF12901761E44F4007431
:1005F00088450CD2AAF1300010F0FF0088F8000006
:1006000002D10B99884509D908F1010806E0E005F7
:1006100001D5244801E042F20F708146B9696D1C92
:100620000E98884782460F980560002E04DD5046DC
:1006300004F03EFE0028D6D1F9690E988847FF20C5
:100640008BF8000088F800000020069007904B46C9
:100650006A4608A906A8FFF78BFEA00502D46FF032
:1006600001002AE714F0240F0AD0E00714D1DDE9D5
:1006700006123868031D3B600068C0E900120BE0F9
:10068000DDE9060100F0D4FA0146E00704D138683C
:10069000021D3A600068016028460EE70000244011
:1006A0000000F03FF1D8FFFF2DE9F04D81EA03048F
:1006B00004F0004B21F0004514464FF0000A23F0EF
:1006C000004150EA050220D054EA01021DD0C5F3D2
:1006D0000A570246C5F31303C1F31300C1F30A56C8
:1006E00040F4801543F48013A7EB0608101BD64690
:1006F00008F2FD3873EB050002D308F1010801E0B0
:1007000092185B41B8F1000F03DA00200146BDE802
:10071000F08D00204FF48011064684460EE0171B32
:1007200073EB050705D3121B63EB050306434CEA85
:10073000010C49084FEA300092185B4150EA01076A
:10074000EDD152EA030012D082EA040083EA0501E7
:10075000084305D0101BAB4106D20122002306E05E
:1007600000224FF0004302E06FF0010253101AEB39
:1007700006004CEB085110EB0A0041EB0B01BDE801
:10078000F04D00F0A3B80EB540F2334102910021C4
:10079000CDE900110A460B4600F0A7F803B000BDF2
:1007A000C1F30A5210B5C1F3130140F2FF3341F413
:1007B00080119A4201DA002010BD40F233439A4280
:1007C000A2F2334203DC524200F03BF810BD9040ED
:1007D00010BD00F0004230F000400AD0C10D01F51C
:1007E0006071C0F3160042EA0151C208400711438C
:1007F000704700200146704730B50B460146002087
:100800002022012409E021FA02F59D4205D303FAD2
:1008100002F5491B04FA02F52844151EA2F1010253
:10082000F1DC30BD202A04DB203A00FA02F100207E
:1008300070479140C2F1200320FA03F3194390401E
:100840007047202A04DB203A21FA02F00021704789
:1008500021FA02F3D040C2F1200291400843194628
:100860007047000002681144137801601846704711
:10087000D16004495161044911620021116111469E
:1008800000F01CBA65080008B10C0008426842B1CB
:10089000016811F8013B23B1521EC0E9001218464D
:1008A00070470121C160881E704742685AB1C36811
:1008B000016843B983688B4205D0491E521CC0E9C8
:1008C0000012002070474FF0FF30704710B5141E23
:1008D00073F1000408DA401C41F1000192185B41F9
:1008E0001A4301D120F0010010BD2DE9F04D9246D0
:1008F0009B4611B1B1FA81F202E0B0FA80F22032E7
:100900009046FFF78FFF04460F4640EA0A0041EA8F
:100910000B0153465A46084313D0114653EA0100CF
:1009200019D0C8F140025046FFF78BFF05460E462E
:10093000504659464246FFF775FF084305D001204F
:1009400004E020463946BDE8F08D0020054346EA24
:10095000E0762C4337430A986305E40AA0EB0800CD
:100960000022FD0A44EA47540A3002D5002001461D
:10097000E9E7010510196941DDE9084500196941F8
:10098000BDE8F04DA2E72DE9FE4F804681EA030065
:10099000C00F0C46009021F0004123F00045B8EB59
:1009A0000200A94105D24046214690461C460B460E
:1009B000024623F00040104347D0270DC7F30A003A
:1009C000C3F30A510290401A019040286BDAC3F336
:1009D000130040F4801B0098924620B10023D2EB14
:1009E000030A63EB0B0B01985946C0F140025046D5
:1009F000FFF718FF06460D4650465946019A00F08B
:100A000045F910EB08006141002487EA115284EA9D
:100A1000E7731A4340D0009A62B3019A012A4FEA61
:100A2000075215DC001B61EB02014FF0004202EAA5
:100A30000752CDE90042001C41F5801132462B4699
:100A4000FFF753FF03B0BDE8F08F40462146F9E7BA
:100A5000001B61EB0201001C41F5801300185B4193
:100A60002018A2F5001747EB030140EAD570B6192C
:100A70006D4111E06D084FEA360645EAC0754FEA50
:100A80000752001B61EB0201001C41F5801149086F
:100A90004FEA30000019514132462B4603B0BDE801
:100AA000F04FFFF713BF0098012240000023D0EB66
:100AB000020263EBE073009821464FEAE074B8EB62
:100AC000000061EB0401E9E783F000435BE781F09C
:100AD000004158E72DE9FE4F81EA030404F0004489
:100AE00021F0004100944FF0000B23F0004350EA46
:100AF00001045ED052EA03045BD0C3F30A54C1F38D
:100B00000A552C44A4F2F3340194A0FB0254C1F31F
:100B1000130141F48011C3F3130343F4801301FB69
:100B2000024400FB034E840A970A44EA815447EAD0
:100B30008357A4FB076802958D0A05FB07854FEADA
:100B4000932C04FB0C542705029D4FEA065847EAF4
:100B50001637B5EB08056EEB070C870E920E47EAC9
:100B6000811742EA8312A7FB0201B6EB0B0164EB8B
:100B700000042B0D43EA0C335E1844EB1C50DA469C
:100B80005146E7FB0201C5F313044FEA0B3343EA76
:100B900014534FEA0432019C43EA0603A4F10C0407
:100BA0000294009CCDE900B4FFF79FFE03B0BDE8BE
:100BB000F08F00200146F9E70EB540F23342029271
:100BC0000022CDE900221346FFF78FFE03B000BDDF
:100BD000C1F30A52C1F3130140F2FF3341F4801113
:100BE0009A4202DA00200146704740F233439A42AB
:100BF000A2F2334202DC5242FFF723BEFFF712BEDD
:100C000030B5041E71F1000404DB4FF00044404293
:100C100064EB0101141E73F1000405DB1C464FF068
:100C20000043524263EB0403994208BF904230BD37
:100C300001F0004330B421F0004150EA010206D037
:100C40000A0DA2F56072C1F31301002A02DC30BC68
:100C500000207047440F44EAC104C100E01830BCD2
:100C600000EBC25000F0C0B9064C074D06E0E0684A
:100C700040F0010394E8070098471034AC42F6D3E3
:100C8000FFF786FA787A0008987A0008202A06DBAF
:100C9000CB17203A41FA02F043EAE07306E041FA4A
:100CA00002F3D040C2F12002914008431946704738
:100CB000C0B24FF4F05100F0CFB900002DE9F34F6E
:100CC0008BB04FF0000801F10C000C464FF0010B07
:100CD00046460DF1080A019062690121019890478A
:100CE000051E2DD0252D2CD0216A8847C0B1626900
:100CF000012101989047216A88470028F7D1411EB9
:100D000062690198904700E0761CA1690B988847BA
:100D1000216A88470028F7D1E1690B988847DBE70B
:100D2000A1690B9888470746A84201D1761CD3E7F2
:100D3000E1690B9888477F1C02D1B8F1000F6FD092
:100D400046E1002762693D463946019890472A28C6
:100D500004D162690121019890470125DFF884924E
:100D60006269012101989047A0F130010A290AD255
:100D70004F45E5DC07EB870100EB4107303FDFD44F
:100D800045F01005ECE7E90601D46FF000476C2848
:100D90000AD04C2814D0682815D06A280DD07428A1
:100DA0001CD07A281AD01DE0626901210198904771
:100DB0006C2802D045F0040514E045F002050DE072
:100DC00045F020050AE062690121019890476828F2
:100DD00002D045F0080505E045F40065626901218F
:100DE00001989047C4E9015765283DD019DC58287F
:100DF0007AD00CDC452837D004DC252826D04128C1
:100E000031D131E046282FD047282CD12CE05B2867
:100E100077D0612828D063287CD0642823D15AE079
:100E2000D0E06F2848D008DC66281DD067281BD08A
:100E3000692821D06E2816D127E0702845D0732864
:100E400068D0752847D078280DD14DE0A1690B985E
:100E50008847054625283FF469AFE1690B98884724
:100E60006D1C3FF46AAFB3E023466A466FF00100A1
:100E70000B99FFF7FDFA9EE045F040006060A8077F
:100E800023464FF0000236D43EE0E8077FF447AF38
:100E90002068011D21600068290501D506701BE747
:100EA000290701D5068017E7A90703D5F117C0E97F
:100EB000006111E706600FE745F040006060A80799
:100EC00023464FF0080216D41EE040F60E0125EA34
:100ED0000100606016E045F040006060A80723460E
:100EE0004FF00A0207D40FE045F040006060A80709
:100EF00008D5234610226FF001000B99AFF3008054
:100F000059E007E0234610226FF001000B99AFF380
:100F1000008050E04FF000094F464B46632802D056
:100F20005B2806D040E0E80601D40120A06001273C
:100F30003AE062690121019890475E2805D14FF09F
:100F400001096269494601989047216939B9002130
:100F50000A46534643F82120491C0829FADBB0B35E
:100F6000216969B9C11700EBD16253110AEB830102
:100F700022F01F02821A01200B68904003430B608D
:100F800062690121019890475D28E8D1B9F1000F0D
:100F900009D00020514651F82020D24341F82020AA
:100FA000401C0828F7DB02AB224600976FF00100D7
:100FB0000B99AFF3008000280CDA401C08D1BBF17C
:100FC000000F05D04FF0FF300DB0BDE8F08FFFE708
:100FD0004046F9E7E90701D108F1010806444FF05E
:100FE000000B79E6CCCCCC0C0029A8BF7047401C84
:100FF000490008BF20F00100704710B4B0FA80FC2F
:1010000000FA0CF050EA010404BF10BC704749B16B
:10101000CCF1200421FA04F411FA0CF118BF0121DB
:1010200021430843A3EB0C01CB1D4FEA00614FEABB
:10103000102042BF002010BC704700EBC35010448A
:101040000029A4BF10BC7047401C490008BF20F015
:10105000010010BC704700007F2801D9002208E081
:10106000064A02EB5002C007127800D1120902F0C2
:101070000F020120904008407047000044790008AA
:1010800030B58C1810F8012B12F00F0301D110F8B5
:10109000013B120906D110F8012B03E010F8015BA7
:1010A00001F8015B5B1EF9D101E001F8013B521E22
:1010B000FBD1A142E6D3002030BD10B50146806BC4
:1010C000026C12F0500F05D0026CD20626D500F04B
:1010D0007BFB10BD016C41F40071016401688A68FA
:1010E00012F0405F17D1027EAAB9CA6A12F4700FDB
:1010F00002D08A6852050ED44A6822F020024A6063
:10110000016C21F480710164016CC90403D4016C89
:1011100041F00101016400F055FB10BD806BC26C11
:10112000BDE810400846104710B5806B40210164AF
:10113000416C41F00401416400F046FB10BD10B564
:10114000806B00F040FB10BD014800F03EBB00008A
:1011500090030020464910B54A6822F440324A60A4
:101160004A6843681A434A6001684A6822F48072F8
:101170004A6001684A68036942EA03224A600168DA
:101180004A6822F040724A6001684A6883681A43DC
:101190004A6001688A6822F400628A6001688A688D
:1011A000C3681A438A60816A6FF07062D142016835
:1011B0008A6822F070628A6001688A680CD0836A4B
:1011C0001A438A6001688A6822F040528A60016886
:1011D0008A68C36A1A4301E022F040528A600168BB
:1011E0008A6822F002028A6001688A68037E42EA05
:1011F00043028A6090F82010002901684A680FD0E5
:1012000042F400624A6001684A6822F460424A601F
:1012100001684A68174C436A04EB43331A4301E000
:1012200022F400624A600168CA6A22F47002CA624B
:101230000168CA6A838B104C04EB03531A43CA62D9
:1012400001688A6822F400728A6001688A6890F8EE
:10125000303042EA43228A6001688A6822F4806260
:101260008A6001688A68406942EA8020886010BD0F
:101270000023014000E0FFFF0000F0FF7EB51C4DA1
:1012800028680168C943C9061BD4016840680090FA
:10129000184800684068184EC0F5807084B23188E4
:1012A00016488C42084402D3611A89B206E0C1F59F
:1012B000807189B204F02AFE2146104804F026FE0F
:1012C000348028680168C943090704D4016841686B
:1012D0000291016841680168C943890606D44068E3
:1012E0008DF80400012101A804F010FE7EBD00006D
:1012F000C8050020580600205600002020080020C5
:1013000004F05CFE4FF47A7404F038FE204604F0DA
:1013100089FFF9E702F05AFB03F0B6F9074C207891
:1013200020B103F037FC03F045FC03E003F02AFC96
:1013300003F018FC642004F075FFF0E75000002073
:10134000FEE70000DFF8F09000253C4C4FF4805A97
:101350004FF4004B012600BF02F030FB074602F0BD
:101360001DFB804602F022FBB7B32570B8F1000FD9
:1013700037D0657088B3A57010214F46484600F0FD
:10138000BDFE58B30020E0702021384600F0B6FEC4
:1013900068B3002020715146384600F0AFFE0128A6
:1013A00000D0002060715946254800F0A7FE0128B2
:1013B00000D00020A07100F0B3FE2178C9B161789F
:1013C000012916D0E178012913D06179012910D0C3
:1013D000A17901290DD02BE001E004E005E02670A1
:1013E000C4E76670C6E7A670C6E70120CBE7012018
:1013F000D0E7A168411AB1F5FA6F19D9114FA06071
:101400003E7002F0AFFD3221084602F051FE02F0BC
:101410008DFD4FF4FA7004F005FF02F077FE002115
:10142000084602F045FE4FF47A7004F0FBFE3D7072
:101430000A2004F0F7FE8FE700040240C4000020F9
:10144000000002405C000020014800F0DBBB00000F
:1014500018070020014800F0D5BB000078070020E5
:10146000014800F0CFBB0000D8030020014800F085
:10147000C9BB000058060020014800F0C3BB0000B3
:10148000B806002001681823CAB2103AB2FBF3F282
:10149000054B6FF30901032A9B5CC36500D9091D45
:1014A00081650846704700001879000810B50146AC
:1014B00000208B698A6A4FF0C07453B1B3F5005FA6
:1014C00015D072B1012A0CD0022A0AD0032A09D100
:1014D00004E01AB1012A06D0022A03D1C96AC9015F
:1014E00000D5012010BDC96AA142FAD010BD002A62
:1014F000F7D0012AF2D0022AF3D0032AF3D010BD8C
:1015000030B50468256825F480252560046863608B
:101510008368402B036803D099600068C26030BDC7
:101520009A600068C16030BD70B5074C05466668BA
:1015300000F07AFF0549B0FBF1F169436068801B58
:101540008842FBD370BD0000001000E040420F0055
:1015500007480168C9070AD106490A6842F0807243
:101560000A6000214160016841F00101016070479B
:10157000001000E0FCED00E07047000072B608A02B
:1015800003F0A0FD084D4FF400444FF4FA762146D5
:10159000284600F0B8FD304600F0A6FCF7E7000052
:1015A0006572726F720000000004024000B587B0DF
:1015B00014216846FEF7AEFE0B480021026842F097
:1015C00010020260006800F01000059008200090F2
:1015D0000120CDE9010103916946044800F096FC21
:1015E00000F016F807B000BD30380240001002408D
:1015F000FFF7DCFF054C207810B100F011F801E096
:1016000000F006F8642004F00DFEF4E7520000201C
:1016100000220821014800F07EBD000000100240B9
:1016200001220821014800F076BD000000100240B0
:1016300010B50A68052300EB8202DFED0D0A82ED8A
:10164000000A0A68521C92FBF3F403FB14220A609E
:101650005FF0000100EB8102491C92ED000A0529B0
:1016600070EE200AF6DBB1EE041A80EE810A10BD9E
:10167000000000007047000078B50024009490F846
:101680003C20012A19D0012280F83C200A68072357
:101690000568092A13D9EE680A3A02EB4202934020
:1016A0009E43EE600B788A680A3B03EB43039A4043
:1016B0000368DD682A43DA6010E0022078BD2E69F5
:1016C00002EB420293409E432E610B788A6803EB43
:1016D00043039A4003681D692A431A614A681F231D
:1016E000072A13D205686E6B521E02EB82029340EA
:1016F0009E436E630B790A885B1E92B203EB8303F1
:101700009A4003685D6B2A435A6327E005680D2AF7
:1017100012D22E6BD21F02EB820293409E432E63A5
:101720000B790A88DB1F92B203EB83039A400368AC
:101730001D6B2A431A6311E0EE6A0D3A02EB820236
:1017400093409E43EE620B790A880D3B92B203EB05
:1017500083039A400368DD6A2A43DA62164B056800
:10176000144A9D4206D10D68122D03D1556845F4E7
:101770008005556005689D4218D10B68102B01D07B
:10178000112B13D1536843F40003536009681029E7
:101790000CD10A490A4A0968B1FBF2F101EB810157
:1017A000490000E0491E00910029FBD180F83C402F
:1017B000002078BD00230140002001404C000020A3
:1017C00040420F0070477047704770B5044600688C
:1017D0000668456816F0020F05F020012AD049B3CB
:1017E000216CC90603D4216C41F400712164816825
:1017F00011F0405F17D1217EA9B9C16A11F4700FB1
:1018000002D0816849050ED4416821F02001416071
:10181000206C20F480702064206CC00403D4206C01
:1018200040F0010020642046FFF7CCFF21686FF0F4
:101830001200086016F0040F05F0800132D089B361
:10184000206CC00603D4206C40F400502064206853
:10185000816811F4401F1ED1816B11F4401F02D02A
:101860008168490517D44168490514D4816811F08D
:10187000405F10D1217E71B9416821F08001416043
:10188000206C20F480502064206CC00503D4206CB0
:1018900040F0010020642046FFF7ECFE21686FF065
:1018A0000C00086016F0010F05F040010FD071B177
:1018B00020680068C0070AD0206C40F480302064A3
:1018C000204600F043F821686FF00100086016F030
:1018D000200F05F080610ED000290CD0606C40F024
:1018E0000200606420686FF0200505602046FFF765
:1018F0006BFF2068056070BD70B504004FF00005F7
:1019000003D0206C002610B107E0012070BD2046F6
:1019100000F01EF8666484F83C60206CC00610D4A9
:10192000206C20F4885040F0020020642046FFF72D
:1019300011FC6664206C20F0020040F0010020647D
:1019400000E0012584F83C60284670BD7047000027
:1019500070B586B0064614216846FEF7DBFC2149C7
:10196000306888423CD120480025016841F48071EC
:101970000160006800F4807005901B48143801680D
:1019800041F0040101600068694600F00400059020
:10199000102000900320CDE90105144800F0B6FAAC
:1019A000144C1348C4E900050015A560C4E90350B0
:1019B000400060618000C4E90605C000C4E9080574
:1019C000204600F0EFF908B1FFF7D8FDB46300221C
:1019D00005211220A66300F03BFC122000F02AFC37
:1019E00006B070BD002001404438024000080240AB
:1019F00010640240D8030020F8B5044600200E46CB
:101A0000009094F83C10012907D0012184F83C1083
:101A100021688B68DB0702D011E00220F8BD8B68DB
:101A200043F001038B604049404B0968B1FBF3F17F
:101A300001EB410100E0491E00910029FBD1216822
:101A40008B68DB0503D58B6823F480738B6021687A
:101A50008B68DB075DD0236C40F20165AB4343F438
:101A6000807323644968490505D5216C21F4005130
:101A700041F480512164216CC90404D5616C21F0CA
:101A80000601616400E0606484F83C00A16B2948B1
:101A9000274DC863A16B28480864A16B2748C86418
:101AA00021686FF0220008602068416841F0806181
:101AB00041602068816841F480718160216813462B
:101AC00032464C31A06B00F0D7F968681C49C0065B
:101AD000206806D0884224D1816811F0405F13D07D
:101AE0001FE08842F8D0174A904203D1D1F804236E
:101AF000D206F1D0144A904213D1D1F8041301F068
:101B00001F011029E8D30CE0816841F08041816019
:101B100007E0206C40F010002064606C40F0010091
:101B200060640020F8BD00004C00002040420F001F
:101B300000230140BB1000083F11000829110008D4
:101B40000020014000210140002201402DE9F04128
:101B50000446876D00F0E4FA064694F83500002547
:101B6000022806D08020606584F834500120BDE84A
:101B7000F0812068016821F0160101602068416948
:101B800021F080014161206C08B9A06C20B120686F
:101B9000016821F0080101602068016821F001015D
:101BA00001600CE000F0BCFA801B052807D920205A
:101BB0006065032084F8350084F83450D7E7206846
:101BC0000068C007EED194F85C103F208840B860F0
:101BD000012084F8350084F834500020C7E790F8DD
:101BE0003510022903D0802141650120704705216D
:101BF00080F835100068016821F0010101600020C3
:101C0000704700002DE9F84304464FF00009CDF875
:101C1000009063484FF41651A56D0068B0FBF1F7D2
:101C20002E6894F85C10082000FA01F131420FD0C0
:101C300021680A6852070BD50A6822F004020A607C
:101C400094F85C108840A860606D40F00100606509
:101C500094F85C104FF0010808FA01F0304208D007
:101C600021684969090604D5A860606D40F002004A
:101C7000606594F85C1004208840304208D02168E8
:101C80000968890704D5A860606D40F004006065AC
:101C900094F85C1010208840304218D02168096800
:101CA000090714D5A86020680168490304D50068B5
:101CB000000308D5A16C07E00168C90503D40168D9
:101CC00021F008010160216C09B12046884794F891
:101CD0005C1020208840304231D021680968C90654
:101CE0002DD5A86094F8350005282068016806D035
:101CF000490347D5006800031DD4616C1CE021F046
:101D0000160101602068416921F080014161206C69
:101D100008B9A06C20B12068016821F008010160B9
:101D200094F85C103F208840A86084F8358084F8DF
:101D30003490216D1FE0E16B09B120468847606D4A
:101D400000282BD0606DC00714D0052084F8350022
:101D50002068016821F0010101600098401C00909A
:101D6000B84203D820680068C007F6D184F83580EF
:101D700084F83490E16C002910D001B02046BDE811
:101D8000F04308470168C905D5D4016821F0100166
:101D9000016084F8358084F83490CCE7BDE8F8839E
:101DA0004C0000202DE9F041044600F0B9F9064648
:101DB0005CB1022084F83500002584F83450206896
:101DC000016821F0010101600DE00120BDE8F08112
:101DD00000F0A6F9801B052805D9202060650320A6
:101DE00084F83500F2E720680068C007F0D1226867
:101DF000116820480140D4E901031843D4E90336AF
:101E00003343184363691843A3691843E3691843CC
:101E1000236A18430843616A042903D1D4E90B13E8
:101E200019430843106020684069666A20F0070182
:101E300030460E43012704280CD1A06A0643E06A0D
:101E400040B12046FFF732FB20B14020606584F8A6
:101E50003570BAE7206846612046FFF713FB94F817
:101E60005C203F2191408160656584F835700020D9
:101E7000ACE700003F8010F02DE9F0410446866D8C
:101E800090F83400002501280DD0012084F834009A
:101E900094F835700020012F07D084F83400022513
:101EA0002846BDE8F0810220FBE7022784F8357060
:101EB00060652046FFF724FB94F85C103F208840C3
:101EC000B0602068016841F016010160206C20B10B
:101ED0002068016841F0080101602068016841F054
:101EE00001010160DCE7000070B5044600F018F95C
:101EF0000546601C02D004480078044400F010F944
:101F0000401BA042FAD370BD400000202DE9F84FDD
:101F1000DFF8BCA10022012503264FF00F090AF1CA
:101F2000040BAAF1040E00BF0B6805FA02F423406B
:101F3000A34270D10F7907F00307012F01D0022FC0
:101F400016D187684FEA420806FA08FC27EA0C0710
:101F5000D1F80CC00CFA08FC4CEA070CC0F808C019
:101F60004768A7430C79C4F3001494403C43446091
:101F70000C79E443A4070AD0C4684FEA420C06FA7D
:101F80000CF7BC438F6807FA0CF72743C7600C793E
:101F900004F00304022C12D1D40800EB840CDCF80A
:101FA00020405707FF0E09FA07F824EA0804D1F881
:101FB000108008FA07F848EA0408CCF82080046882
:101FC0004FEA420C06FA0CF7BC430F7907F00307FF
:101FD00007FA0CF7274307604C6814F4403F70D0B1
:101FE0003C4C276847F480472760246822F00307A9
:101FF00004F480440094384C07EB040CDCF80848E7
:1020000097074FEA177809FA08F7BC43334FB842ED
:1020100002D1002724E054E0314FB84201D101271A
:102020001EE0304FB84201D1022719E02E4FB842CE
:1020300001D1032714E02D4FB84201D104270FE04E
:102040002B4FB84201D105270AE02A4FB84201D1EF
:10205000062705E0284FB84201D1072700E00827EE
:1020600007FA08F72743CCF80878DAF80040574613
:10207000D1F804C09C435FEACC2C00D51C433C60E3
:10208000DBF800405F46D1F804C09C435FEA8C2C2B
:1020900000D51C433C60DEF800407746D1F804C010
:1020A0009C435FEA8C3C00D51C433C60084F083FD2
:1020B0003C68D1F804C09C435FEACC3C00D51C438B
:1020C0003C60521C102AFFF42FAFBDE8F88F0000CF
:1020D000083C01404438024000300140000002400A
:1020E0000004024000080240000C024000100240C0
:1020F0000014024000180240001C02400069084021
:1021000000D001207047426921EA02030A4043EAF5
:102110000241816170470AB1816170470904FBE7A0
:102120000148806870470000400000200248816834
:102130000278114481607047400000200B4810B5C0
:10214000016841F400710160016841F4806101603F
:10215000016841F480710160032000F099F80F20BC
:1021600000F006F800F04AF8002010BD003C0240E4
:1021700030B505461C4887B00024016841F00101D4
:102180000160006806A900F00100009001A800F0BD
:102190002BF900F05FF915494000B0FBF1F115484B
:1021A000134A491E026040F2E732C0E90324C0E945
:1021B0000114846100F090FB040012D10D4800F07E
:1021C00007FC04000DD1192000F034F8102D07D2BF
:1021D00000222946192000F03BF80748056000E07E
:1021E000012407B0204630BD4438024040420F0071
:1021F00000000140D8070020440000200C4882B0B5
:10220000016841F480410160006800F48040009062
:102210000748001F016841F08051016000680022FA
:1022200000F0805000900F21901E02B000F010B816
:1022300044380240002809DB00F01F0201219140D0
:102240004009800000F1E020C0F800117047000054
:10225000F0B40E4B1B680C46C3F30223C3F1070511
:10226000042D00D90425191D072901D2002300E0FF
:10227000DB1E012606FA05F1491E214099409E40C9
:10228000761E16403143F0BC02F040BF0CED00E07A
:10229000064900F0070208684FF6FF03184040EABD
:1022A0000220034A10430860704700000CED00E074
:1022B0000000FA052DE9F0470E46050065D0DFF86D
:1022C0001481D8F80000F7B200F00700B04207D23E
:1022D00088F80070D8F8000000F00700B04254D130
:1022E00028683D4C810712D5400703D5206840F48B
:1022F000E05020602878000703D5206840F4604053
:1023000020602068A96820F0F00008432060287849
:10231000C0072DD0304968680839012812D002283A
:1023200013D0032811D00968890700292DDA216804
:1023300021F0030101432160FFF7F2FE814641F2E3
:10234000883A0EE009688903EFE709688901ECE73C
:10235000FFF7E6FEA0EB0901514502D90320BDE8D5
:10236000F0872068696800F00C00B0EB810FEFD1B6
:10237000D8F80010404601F00701B14207D90770B4
:10238000006800F00700B04201D00120E7E728789C
:10239000400705D52068E96820F4E0500843206034
:1023A0002878000706D52068296920F4604040EAB3
:1023B000C100206000F05EF82168084AC1F30311F3
:1023C000515CC8400649086006480068FFF7D0FE27
:1023D0000020C4E7003C0240083802402079000891
:1023E0004C000020440000200F2202600C4A1368B9
:1023F00003F003034360136803F0F0038360136882
:1024000003F4E053C36012684FF4E05303EAD202CE
:1024100002610448006800F007000860704700008F
:1024200008380240003C0240014800687047000044
:102430004C0000200448054900680968044AC1F3BB
:102440008221515CC84070474C000020083802408F
:10245000307900080448054900680968044AC1F356
:102460004231515CC84070474C000020083802409F
:1024700030790008154810B5006810F00C021448B7
:1024800013D01449042A0FD0082A0ED10F4C241F50
:102490002268236802F03F025B0207D52068C0F380
:1024A0008810A0FB010106E0084610BD2168C1F3B9
:1024B0008811A1FB00010023FDF7E2FE2168C1F3B2
:1024C0000141491C4900B0FBF1F010BD0838024041
:1024D0000024F40040787D012DE9F84F04006ED00F
:1024E0002078DFF84C93C007A9F104054AD009F120
:1024F00004000168C1F38101012908D00068C0F31C
:10250000810002280AD1D9F80000400206D52868C7
:10251000800337D560680028E1D033E06068B0F50B
:10252000803F10D0B0F5A02F286810D020F4803064
:102530002860286820F4802028606068A8B1FFF730
:10254000EFFD06460DE0286840F48030F4E740F4E3
:1025500080202860F7E700BFFFF7E2FD801B6428BA
:1025600073D828688003F7D50CE0FFF7D9FD06463D
:1025700005E000BFFFF7D4FD801B6428F0D8286871
:102580008003F7D42078DFF8AC8280074FF0000A90
:102590003ED5A748001D016811F00C0F08D0006857
:1025A000C0F3810002280BD1D9F80000400207D403
:1025B0002868800716D5E068012800D112E033E1D1
:1025C000E068B8B10120C8F80000FFF7A9FD064691
:1025D00005E000BFFFF7A4FD801B0228C0D82868D3
:1025E0008007F7D52868216920F0F80040EAC1008B
:1025F00028600DE0C8F800A0FFF792FD064604E051
:10260000FFF78EFD801B02281FD828688007F7D4AB
:102610002078000722D5864F87486169703771B1ED
:1026200001210160FFF77CFD064604E0FFF778FD1D
:10263000801B022809D838688007F7D50EE0C0F85B
:1026400000A0FFF76DFD064605E082E0FFF768FD9C
:10265000801B02287DD838688007F7D4207840078F
:1026600068D5DFF8CCB100270BF13C0BDBF800009C
:10267000C0000BD4DBF8001041F08051CBF8001003
:10268000DBF80000012700F0805000906B4E3068AE
:10269000C00510D4306840F480703060FFF740FD12
:1026A000009005E0FFF73CFD0099401A022850D841
:1026B0003068C005F6D55E4EA0686C3601280FD094
:1026C0000528306810D020F001003060306820F01C
:1026D00004003060A068B8B1FFF722FD00900FE061
:1026E000306840F00100F4E740F004003060F7E7A4
:1026F000FFF716FD0099411A41F28830814266D8F1
:1027000030688007F4D50EE0FFF70AFD009007E07F
:10271000FFF706FD0099411A41F28830814256D8F0
:1027200030688007F4D42FB1DBF8001021F080511D
:10273000CBF80010A069C8B33D49091D0968C1F371
:10274000810102294AD00228504607D0C8F860000B
:1027500000E03CE0FFF7E4FC04463BE04746C8F8F5
:102760006000FFF7DDFC064605E000BFFFF7D8FC80
:10277000801B02282BD828688001F7D4D4E90701F0
:102780000843A16A2E4A490802EB0141626A41EA04
:102790008211084394F82C1040EA0161C9F8001036
:1027A00001203866FFF7BCFC044606E03EE000BFAF
:1027B000FFF7B6FC001B022809D828688001F7D56E
:1027C00034E000BFFFF7ACFC001B022802D9032055
:1027D000BDE8F88F28688001F4D427E00128F7D0FD
:1027E000D9F80000E26900F4800191421CD1226A0C
:1027F00000F03F01914217D147F6C071626A014073
:10280000B1EB821F10D1A26A4FF0FF3300F44031C8
:1028100003EB5202B1EB024F06D194F82C1000F0FA
:102820007060B0EB016F01D00120D1E70020CFE74D
:102830000438024000004742800E474200700040CA
:102840000000FFFF7047704770B590F83C20012AE8
:1028500032D0012480F83C40022280F83D200368F9
:102860005A689D6822F070060A6832435A60134B1A
:1028700002689A4214D0B2F1804F11D0104B9A42A4
:102880000ED0104B9A420BD00F4B9A4208D00F4BF0
:102890009A4205D00E4B9A4202D00E4B9A4204D176
:1028A000496825F080031943916080F83D4000217C
:1028B00080F83C10084670BD022070BD0000014049
:1028C0000004004000080040000C004000040140EB
:1028D000004001400018004010B5040003D094F8F7
:1028E0003D0010B107E0012010BD002084F83C003D
:1028F000204600F01FF8022084F83D00211D2068CA
:1029000001F062FF012084F8460084F83E0084F85C
:102910003F0084F8400084F8410084F8420084F8C5
:10292000430084F8440084F8450084F83D0000200A
:1029300010BD000010B586B0044614216846FDF7AE
:10294000E9FC226800211F48B2F1804F14D01E49D3
:102950008A420FD1016841F0020101600068002243
:1029600000F00200059005211D20FFF771FC1D20DD
:10297000FFF760FC06B010BD026842F00102026081
:10298000006800F0010005900E481038026842F01F
:1029900001020260006800F0010005900320009031
:1029A0000220CDE901010120CDE903106946074865
:1029B000FFF7ACFA002205211C20FFF749FC1C2080
:1029C000D6E700004038024000040040000002400A
:1029D00090F83D10012901D001207047022180F8B4
:1029E0003D100168CA6842F00102CA6000681149DE
:1029F000884214D0B0F1804F11D00F4988420ED0D8
:102A00000E4988420BD00E49884208D00D498842B1
:102A100005D00D49884202D00C49884204D1816812
:102A200001F00701062903D0016841F001010160AE
:102A300000207047000001400004004000080040F2
:102A4000000C00400004014000400140001800401C
:102A500070B5044690F83C000025012817D00126E7
:102A600084F83C60022084F83D002068826822F0EF
:102A7000770222F47F4282600868502838D00DDC4B
:102A800020284FD005DC90B3102811D14AE0022055
:102A900070BD302846D040280AD13BE060282FD0B6
:102AA00070280DD0B0F5805F03D0B0F5005F12D074
:102AB000012584F83D60002084F83C00284670BD64
:102AC000CB68D1E90121206801F0F7FE2068816818
:102AD00041F0770109E0CB68D1E90121206801F0DC
:102AE000ECFE2068816841F480418160E1E719E0F3
:102AF000CA684968206801F0B5FF5021206806E0E7
:102B0000CA684968206801F0FFFF6021206801F071
:102B1000DEFECEE7CA684968206801F0A3FF4021C5
:102B20002068F4E7226801461046F0E770B50546D4
:102B30002DED028B9FED3F0A3F4C84ED000A0068AB
:102B4000B0F1804F72D1FFF775FC00EE100A3B48E0
:102B5000F0EE000AB8EE400A4068401C60EE200A21
:102B600000EE100A287FB8EE400A012880EE808A25
:102B70001DD002285AD132480168491C0160006802
:102B8000D4ED000A00EE100A2E480421B8EE400AE7
:102B900020EE200A80ED000A284600F085FB2A4935
:102BA0000B682A4A98420B682ED3C31A2FE0284894
:102BB0000168491C01600068D4ED000A00EE100AAB
:102BC00024480021B8EE400A20EE200A80ED000AD9
:102BD000284600F069FB20490B68204A98420B68A0
:102BE00001D3C31A02E0DB4303445B1C136008609B
:102BF00010684FF41B71484300EE100A1848B8EEF5
:102C0000400AC8EE000A0FE0DB4303445B1C13607C
:102C1000086010684FF41B71484300EE100A114819
:102C2000B8EE400AC8EE000AC0ED000ABDEC028B07
:102C300070BD00000C44BE39C000002038040020E4
:102C4000B4000020BC0000200C0000201000002078
:102C5000B0000020B8000020000000200400002088
:102C600008000020140000202DE9F041054690F8EE
:102C70003C0000260C46012810D0012085F83C00BD
:102C800072B1042A1CD0082A2CD00C2A50D001265C
:102C9000002085F83C003046BDE8F0810220FBE7CB
:102CA000D4E90012E368286801F0EEFE2868816923
:102CB00021F00C01816128688169A26811430FE04D
:102CC000D4E90012E368286801F030FF28688169C0
:102CD00021F44061816128688169A26841EA02218A
:102CE0008161D5E72868D4E9002C277B036A016A53
:102CF00021F480710162C16923F4206321F0030192
:102D000041EA0C0121F0F00C39074FF420674CEA3E
:102D1000116107EA02221A43C16102622868C1698F
:102D200021F00C01C1612868C169A26811432BE040
:102D30002868D4E90021E768036AD0F820C02CF4A1
:102D4000805CC0F820C0D0F81CC023F420432CF4D1
:102D5000407C4CEA012121F4704C4FF6FF7101EAEE
:102D600007314FF4204741EA0C0107EA02321A43C7
:102D7000C16102622868C16921F44061C1612868AB
:102D8000C169A26841EA0221C16181E710B504006E
:102D900003D094F83D0010B107E0012010BD0020E1
:102DA00084F83C00204600F01EF8022084F83D0024
:102DB000211D206801F008FD012084F8460084F8F8
:102DC0003E0084F83F0084F8400084F8410084F815
:102DD000420084F8430084F8440084F8450084F8F5
:102DE0003D00002010BD704730B50446002551B1AC
:102DF00004290DD0082910D094F8410094F84520FA
:102E0000012811D10EE094F83E0094F84220F7E733
:102E100094F83F0094F84320F2E794F8400094F8C7
:102E20004420EDE7012A01D0012030BD022059B134
:102E3000042912D0082919D084F8410084F84500EB
:102E40000C2944D0012540E084F83E0084F842007B
:102E50002068C26842F0020210E084F83F0084F863
:102E600043002068C26842F0040207E084F8400092
:102E700084F844002068C26842F00802C26001225F
:102E8000206801F00DFD14492068884214D0B0F18B
:102E9000804F11D0114988420ED0114988420BD081
:102EA0001049884208D01049884205D00F4988420D
:102EB00002D00F49884204D1816801F00701062938
:102EC00003D0016841F001010160284630BD20684F
:102ED000C26842F01002D1E7000001400004004047
:102EE00000080040000C0040000401400040014088
:102EF000001800402DE9F04104460068C6680569E5
:102F00004FF00007A90713D5B10711D5F91E0161CC
:102F100001202077206880698007204602D0FFF7D3
:102F200005FE04E000F0BCF8204600F04EF92777DB
:102F3000680716D5700714D521686FF00400086182
:102F4000022020772068806910F4407F204602D05C
:102F5000FFF7ECFD04E000F0A3F8204600F035F99F
:102F60002777280715D5300713D521686FF008009B
:102F70000861042020772068C0698007204602D0BD
:102F8000FFF7D4FD04E000F08BF8204600F01DF9B7
:102F90002777E80616D5F00614D521686FF01000E3
:102FA0000861082020772068C06910F4407F20461F
:102FB00002D0FFF7BBFD04E000F072F8204600F0FD
:102FC00004F92777E80708D0F00706D021686FF0EA
:102FD00001000861204600F05DF9280608D530069A
:102FE00006D521686FF0800008612046FFF72AFCB3
:102FF000680608D5700606D521686FF040000861A4
:10300000204600F066F9A8060AD5B00608D5216862
:103010006FF0200008612046BDE8F041FFF713BCC7
:10302000BDE8F08130B587B0044614216846FDF74D
:1030300071F917492068884227D116480024016891
:1030400041F001010160016801F001010591016891
:1030500041F0040101600068022500F004000590C1
:10306000C0200090CDE9015469460B48CDE90345E5
:10307000FEF74CFF4FF440700090CDE901546946D3
:103080000648CDE90345FEF741FF07B030BD00001B
:1030900000040040303802400000024000080240B6
:1030A000704770B5044690F83C0000260D46012894
:1030B0000FD0012084F83C006AB1042A1DD0082AF0
:1030C0002FD00C2A3FD00126002084F83C00304647
:1030D00070BD022070BD206801F002FC206881698B
:1030E00041F0080181612068816921F0040181615A
:1030F000206881692A69114311E0206801F020FCF1
:103100002068816941F4006181612068816921F44E
:1031100080618161206881692A6941EA02218161B7
:10312000D2E7206801F042FC2068C16941F0080143
:10313000C1612068C16921F00401C1612068C169D1
:103140002A69114311E0206801F064FC2068C1691C
:1031500041F40061C1612068C16921F48061C161ED
:103160002068C1692A6941EA0221C161ACE710B552
:10317000040003D094F83D0010B107E0012010BD19
:10318000002084F83C00204600F01EF8022084F85D
:103190003D00211D206801F017FB012084F8460046
:1031A00084F83E0084F83F0084F8400084F8410031
:1031B00084F8420084F8430084F8440084F8450011
:1031C00084F83D00002010BD7047704710B50446DC
:1031D000022249B104290ED0082913D094F84100E5
:1031E000012816D0012010BD94F83E000128F9D125
:1031F00084F83E200FE094F83F000128F2D184F8D3
:103200003F2008E094F840000128EBD184F84020EA
:1032100001E084F841200122206801F041FB1649B9
:103220002068164A884201D0904203D1436C43F48F
:10323000004343642068884213D0B0F1804F10D01F
:103240000F4988420DD00F4988420AD00E49884262
:1032500007D0904205D00D49884202D00C498842DF
:1032600004D1816801F00701062903D0016841F00B
:1032700001010160002010BD000001400004014078
:103280000004004000080040000C004000400140E5
:103290000018004000680349884201D1FEF746BF8C
:1032A00070470000000001400246002041B104299F
:1032B00009D008290AD00C2901D11068006C704788
:1032C0001068406B70471068806B70471068C06B67
:1032D00070477047704710B504460068406994F81D
:1032E0004110C0F3C010212911D180B120681430E1
:1032F00050E8001F21F0800140E80012002AF5D1BB
:10330000A06B08B1FEF722FC204601F001FD206809
:10331000406994F84210C0F38010222911D180B185
:103320002068143050E8001F21F0400140E80012EE
:10333000002AF5D1E06B08B1FEF708FC204601F049
:10334000C0FC002010BD7047F8B50168044608684D
:10335000CA684B6910F00F0F4FF000055AD003F008
:10336000010602F49077374365D0C10705D0D10537
:1033700003D5616C41F001016164410705D5D907AE
:1033800003D0616C41F002016164810705D5D90762
:1033900003D0616C41F004016164010707D502F0BC
:1033A0002001314303D0616C41F008016164616C1C
:1033B00000293BD0800604D5900602D5204601F0B6
:1033C000B5FC20684069616CC0F3801001F0080111
:1033D000014320462BD001F074FC20684069400670
:1033E00021D52068143050E8001F21F0400140E84A
:1033F0000012002AF5D1E06BA8B16E490165E06BBF
:10340000FEF7EDFB002811D0E06B016D01B0BDE8C7
:10341000F040084783060ED593060CD52046BDE83C
:10342000F84001F083BC2046FFF78DFFF8BDFFF7A1
:103430008AFF6564F8BD266B2023012E7DD1C60668
:103440007BD5D60679D508684868009048694FF062
:103450000206400641D5E16B086840680004000C94
:10346000E8D0A28D8242E5D9E085C869B0F5807FB9
:103470002DD020680C3050E8001F21F4807140E806
:103480000012002AF5D12168143151E8000F20F014
:10349000010041E80002002AF5D12068143050E80C
:1034A000001F21F0400140E80012002AF5D184F805
:1034B0004230256320680C3050E8001F21F01001D5
:1034C00040E80012002AF5D1E06BFEF73FFB66638F
:1034D000A08DE18D401A81B22AE0A08DE18D401AC5
:1034E00081B2E08D0028A5D00029A3D022680C323B
:1034F00052E8000F20F4907042E80007002FF5D149
:103500002068143050E8002F22F0010240E8002724
:10351000002FF5D184F84230256320680C3050E844
:10352000002F22F0100240E80023002BF5D1666343
:103530002046FFF7CFFEF8BDFFE705062BD51506A1
:1035400029D594F841002128F5D1A068B0F5805F15
:1035500001D12069B0B1206A411C21622168007844
:103560004860E08C401E0004000CE084E3D1206839
:10357000C16821F08001C1602068C16841F040014C
:10358000C160D8E7206A0088C0F308004860206A5C
:10359000801C2062E5E74006CDD55006CBD5CA6831
:1035A000204622F04002CA6084F8413000F091F9D0
:1035B000C1E70000C54B000870B5040004D094F8C2
:1035C0004100002510B106E0012070BD84F8405094
:1035D000204600F023F8242084F841002068C168C8
:1035E00021F40051C160204601F002FC206801690D
:1035F00021F4904101612068416921F02A01416173
:103600002068C16841F40051C1606564202084F8DD
:10361000410084F842006563002070BD2DE9F04F41
:1036200087B0044614216846FCF774FEDFF878C1C1
:10363000022126685D4803220723DFF874810025F4
:103640008F064FF0400B4FF48069664554D1574EBA
:103650001436D6F800C04CF0100CC6F800C036681E
:1036600006F010060596066846F00106066000683A
:1036700000F00100059050028DE8230069464046A5
:10368000CDE90323FEF742FC4B4E4A48B846306072
:10369000C6E90175C6E903594F4606F1180C4FF407
:1036A00080794FF4003A75618CE8200630467562E7
:1036B000FEF778FB08B1FDF761FFE663B4633E4EA9
:1036C0003C48603606F11801C6E90357756181E888
:1036D00020067830756286E801093046FEF762FB05
:1036E00008B1FDF74BFFA663002205212520B46336
:1036F000FEF7AEFD252052E0DFF8C0C0664550D190
:103700002A4E1036D6F800C04CF4003CC6F800C073
:10371000366806F400360596066846F0010606602F
:10372000006800F0010005900C208DE82300694638
:103730004046CDE90323FEF7E9FB1F4E2048C03683
:10374000C8463060C6E90175C6E9035975614FF492
:103750004039B561C6E9075930467562FEF722FB6C
:1037600008B1FDF70BFFE663B463164E1448C6E9D3
:1037700003587561B561C6E907591830756286E866
:1037800081083046FEF70EFB08B1FDF7F7FEA66391
:1037900000220F212620B463FEF75AFD2620FEF7F3
:1037A00049FD07B0BDE8F08F0010014030380240FD
:1037B00000000240406402405806002000440040DF
:1037C000886002407807002090F84230202B01D01A
:1037D0000220704721B11AB10023036301F08EBBB0
:1037E0000120704790F84230202B01D00220704712
:1037F00021B11AB10023036301F0C8BB0120704757
:1038000010B50068074988420AD10121064802F034
:103810007DFBBDE81040012203490448FFF7E2BFE9
:1038200010BD00000010014018000020C805002055
:1038300070472DE9F843044690F841009846164633
:103840000D46202802D00220BDE8F88385B17EB164
:1038500000206064212084F84100FEF761FCA6840A
:103860008146E684A0682027B0F5805F02D003E09F
:103870000120E9E7206910B12E4600250EE0002660
:103880000CE08021204601F09CFBA8B9C6B116F8D7
:10389000010B21684860E08C401EE084E08C4B46C0
:1038A0004FF00002CDF800800028EAD14FF040012F
:1038B000204601F086FB40B184F841700320C3E745
:1038C00035F8020BC0F30800E3E784F841700020EC
:1038D000BAE77047FEE700009FED101ADFED101AFF
:1038E000114A20EE010A80EE211A9FED0E0ADFED4B
:1038F0000F1A60EE800A92ED000A00EEA10ADFEDD9
:103900000C0A82ED000AF0EE401A41EE601A01EE58
:10391000200AC0ED001A81ED000A7047DB0F494014
:10392000000034430AE81C41580000200AD7233C19
:10393000CDCCCC3D02F0A4FA4FF4E13002F052FAC3
:1039400030B108A001F0BEFBC820FEF7CDFAFBE7BE
:103950000BA001F0B7FB00BF02F0EAFB642002F00D
:1039600061FCF9E741544B2D4D533630314D206900
:103970006E6974206661696C6564210D0A0000003F
:1039800041544B2D4D533630314D20696E697420B2
:1039900073756363657373210D0A0A004FF4006148
:1039A0000148FEF7ABBB0000001002404FF480510D
:1039B0000148FEF7A3BB0000001002404FF48061F5
:1039C0000148FEF79BBB00000010024000B587B025
:1039D00014216846FCF79EFC0B480021026842F067
:1039E00002020260006800F0020005904020009092
:1039F0000120CDE90101039169460448FEF786FAEA
:103A000001F0B0F807B000BD3038024000040240B9
:103A10007FB5002415480094019402941249039440
:103A200001604FF48031C0E901140125046105767D
:103A300080F820400E49C0E90A14C561C46080F8CE
:103A400030404561FDF758FF08B1FDF797FD0E20A6
:103A5000CDE90005694602940448FDF70DFE0028F3
:103A600001D0FDF78BFD7FBD0020014090030020B9
:103A70000100000F1D4808B5016841F48001016094
:103A8000016801F480010091016841F400110160B6
:103A90000068002200F40010009005211020FEF7BD
:103AA000D7FB1020FEF7C6FB002205211120FEF7F0
:103AB000CFFB1120FEF7BEFB002205213820FEF7C8
:103AC000C7FB3820FEF7B6FB002205213A20FEF79F
:103AD000BFFB3A20FEF7AEFB002205214620FEF791
:103AE000B7FBBDE808404620FEF7A4BB30380240D3
:103AF00010B5384BC4B03FAC0FCB84E80F000021A9
:103B00003FA802F0A7FB344C32491C222060103140
:103B10006846FCF7E6FB0021684602F027FC2D49C9
:103B200060601C222C3107A8FCF7DBFB002107A8F2
:103B300002F01CFC2749A0601C2248310EA8FCF7AB
:103B4000D0FB00210EA802F011FC2249E0601C22EB
:103B5000643115A8FCF7C5FB002115A802F006FC8E
:103B60001C4920611C2280311CA8FCF7BAFB0021F3
:103B70001CA802F0FBFB174960611C229C3123A8A2
:103B8000FCF7AFFB002123A802F0F0FB1149A06174
:103B90001C22B8312AA8FCF7A4FB00212AA802F0B5
:103BA000E5FB0C49E0611C22D43131A8FCF799FBFC
:103BB000002131A802F0DAFB064920621C22F03114
:103BC00038A8FCF78EFB002138A802F0CFFB44B0E8
:103BD00010BD00000C7800081C0000202DE9F04FFB
:103BE00087B014216846FCF795FB52480024016811
:103BF00041F010010160016801F0100105910168B8
:103C000041F080010160016801F0800105910168C7
:103C100041F001010160016801F0010105910168B5
:103C200041F004010160016801F00401059101689F
:103C300041F002010160016801F002010591016893
:103C400041F0080101600068DFF8ECB000F0080006
:103C50004FF403750590002229465846FEF75BFA9B
:103C6000DFF8D890002248F240014846FEF753FAA8
:103C7000DFF8CCA04FF47048002241465046FEF7D2
:103C80004AFA0095022601250396CDE901546946BA
:103C90005846FEF73BF941F63040CDE9000469464D
:103CA00058460294FEF732F941F23900CDE900049A
:103CB000694648460294FEF729F9EF030097CDE9DB
:103CC0000154694648460394FEF720F94FF44060DA
:103CD0008DE8310069465046FEF718F9CDF80080AE
:103CE0000396CDE9015469465046FEF70FF9CDE938
:103CF0000074694613480294FEF708F91F20CDE9C5
:103D00000004694650460294FEF700F94020CDE9D0
:103D10000005CDE9024669464846FEF7F7F8CDE9C9
:103D20000054694658460296FEF7F0F807B0BDE821
:103D3000F08F0000303802400010024000040240C2
:103D4000000C02400000024010B58AB00024254853
:103D5000049405940694079408940994009401949B
:103D600002944FF08041039401604721C0E901149F
:103D7000611EC0E903148461FEF7AEFD08B1FDF7D2
:103D8000FDFB4FF48050049004A91648FEF760FE36
:103D900008B1FDF7F3FB1348FEF7F8FF08B1FDF794
:103DA000EDFB089408A90F480994FEF74DFD08B1F2
:103DB000FDF7E4FB0120CDE90040029400226946B2
:103DC00008480394FEF750FF08B1FDF7D7FB042223
:103DD00069460448FEF748FF002801D0FDF7CEFBF6
:103DE0000AB010BD3804002030B58DB0002407940F
:103DF000089409940A940B941C2168460C94FCF7CF
:103E000089FA2C482A490160A721C0E9011440F22F
:103E1000E731C0E903148461FEF75EFD08B1FDF7E8
:103E2000ADFB4FF48050079007A92248FEF710FE23
:103E300008B1FDF7A3FB1F48FFF799F908B1FDF79B
:103E40009DFB0B940BA91B480C94FEF7FDFC08B1DD
:103E5000FDF794FB602000904FF4FA75CDE9015412
:103E60000022694613480494FFF71BF908B1FDF7D7
:103E700085FB042269460F48FFF713F908B1FDF7E7
:103E80007DFB082269460B480195FFF70AF908B146
:103E9000FDF774FB0C22694606480195FFF701F90E
:103EA00008B1FDF76BFB0348FFF7BCF80DB030BD60
:103EB00000040040800400200C4810B50A4901604D
:103EC0004FF4E1314160002181600C22C160C0E902
:103ED00004128161C161FFF76FFB002803D0BDE8C8
:103EE0001040FDF74BBB10BD00100140C80500207D
:103EF0000C4810B50A4901604FF4E13141600021DE
:103F000081600C22C160C0E904128161C161FFF7C8
:103F100053FB002803D0BDE81040FDF72FBB10BDB8
:103F20000044004010060020FEE7000010B50C4CD5
:103F300000224FF400512046FEF7EDF80122110354
:103F40002046FEF7E8F800224FF480412046FEF7B5
:103F5000E2F820460122BDE81040D103FEF7DBB8AD
:103F6000000C024010B50E4C012251032046FEF712
:103F7000D2F8012211032046FEF7CDF80122910369
:103F80002046FEF7C8F80122D1032046FEF7C3F809
:103F9000C820FDF7A9FFBDE8104000F0B7B8000049
:103FA000000C024010B50C4C012251032046FEF7D4
:103FB000B2F80022A1142046FEF7ADF801229103C9
:103FC0002046FEF7A8F82046BDE8104000224FF436
:103FD0000041FEF7A0B80000000C024000B587B019
:103FE00014216846FCF796F90E480021026842F059
:103FF000080202600068039100F0080005900120AB
:1040000001904FF47040009069460748FDF77EFF2D
:1040100008210648FFF7DAF80C210448FFF7D6F824
:1040200007B000BD30380240000C02408004002080
:1040300070B54FF400510D4C4D10B0F1FF3F09D059
:10404000012801D0002200E001222046FEF763F89B
:10405000002204E000222046FEF75DF801222946F6
:104060002046BDE87040FEF756B80000000C024044
:1040700070B54FF480410D4C4D00B0F1FF3F09D0B9
:10408000012801D0002200E001222046FEF743F87B
:10409000002204E000222046FEF73DF801222946D6
:1040A0002046BDE87040FEF736B80000000C024024
:1040B00070B50D462DED028B40F2E73110FB01F09B
:1040C000FCF761FB9FED0E8B53EC182BFCF7ECFA21
:1040D000FCF766FB044640F2E73015FB00F0FCF706
:1040E00052FB53EC182BFCF7DFFAFCF759FB064A9E
:1040F00001461068C46310680164BDEC028B70BD9A
:1041000000000000000059408004002010B50D4C54
:1041100000224FF400512046FDF7FDFF0022A114BC
:104120002046FDF7F8FF00224FF480412046FDF7BE
:10413000F2FF2046BDE8104000224FF40041FDF799
:10414000EABF0000000C02402DED088BFFF746FF90
:10415000DFEDD28AB0EE682A9FEDD18AF0EE481AE0
:104160009FEDD09AF7EE080AB0EE491A9FEDCE0AFD
:10417000CE4800F0F3F9B0EE682AF0EE481AB0EE3F
:10418000491AF7EE080A9FEDCA0AC8481C3000F029
:10419000E5F902F053F8C74EDFF81C830546DFED62
:1041A000C79AB6EE00AA9FEDC69AC64FDFF81893DD
:1041B000C64CF3EE04AA4FF0FF3A207840BB02F061
:1041C0003DF8411B00EE101AB8EE400ADFEDC00AC0
:1041D000C04A80EE20BA1BEE101A914218DB054649
:1041E0006068012818D00020D4F830B03C2120634A
:1041F0000846FFF75DFF5846BBF1010F7ED002284D
:104200007DD003287CD0BBF1040F7AD0FFF77EFF6E
:10421000322002F007F8D0E794ED0A0A84ED0D0A87
:1042200094ED0B0A84ED0E0A94ED0D0AB0EEC00A6F
:1042300010EE100AB04217DA94ED0E0AB0EEC00A82
:1042400010EE100AB0420FDAFFF78CFE002108468C
:10425000FFF72EFFFFF75AFF944800F08FF99348BD
:104260001C3000F08BF9A8E794ED0E0A9A4860EE36
:10427000290A94ED0D0A00EECA0A84ED0F0A94EDA6
:104280000E0A60EE290A94ED0D0A00EE8A0A84ED0A
:10429000100AD4ED0F0A80EE890AB0EEC00A84ED50
:1042A000110AD4ED100A80EE890AB0EEC00A84ED3E
:1042B000120A0168414505D2884991ED000A84ED52
:1042C000060A01E084ED068A85490968414505D260
:1042D000844890ED000A84ED070A01E084ED078A26
:1042E0007A49724894ED060A20312838FDF7A0F982
:1042F00084ED130A94ED070A744903E0BAE0BCE0C8
:10430000BEE0C4E0694824311438FDF791F984ED2A
:10431000140A94ED130AD4ED140AB0EE4B1A634854
:1043200030EE200A20EE090A20EE0A0A84ED020A85
:1043300094ED140AD4ED130A30EE600A20EE090A57
:10434000C0EE290AC4ED030AD4ED130A94ED110A54
:1043500000F01EF984ED040A5448B0EE4B1AD4ED77
:10436000140A94ED120A1C3000F012F984ED050ACB
:1043700094ED040AB5EEC00AF1EE10FA04D294ED01
:10438000040AF1EE400A01E0D4ED040A94ED050AB6
:10439000B5EEC00AF1EE10FA94ED050A01D2B1EEC5
:1043A000400AF5EEC00AF1EE10FA06DD10EE900AB2
:1043B000B84202DAF0EE6A0A06E0F5EEC00AF1EE63
:1043C00010FA01D8F0EE480AB5EEC00AF1EE10FA84
:1043D00006DD10EE100AB84202DAB0EE6A0A06E014
:1043E000B5EEC00AF1EE10FA01D8B0EE480A10EEB0
:1043F000901A494501DDF0EE680A10EE101A4945A1
:1044000001DDB0EE680ABCEEC00A10EE100ABCEE88
:10441000E00AC1B210EE100AC0B2FFF749FE94EDF7
:104420000F0AB5EEC00AF1EE10FA01DD012009E035
:1044300094ED0F0AB5EEC00AF1EE10FA01D2504623
:1044400000E00020FFF7F4FD94ED100AB5EEC00A7D
:10445000F1EE10FA01DD012009E094ED100AB5EE4D
:10446000C00AF1EE10FA01D2504600E00020FFF73A
:10447000FFFDCDE6FFF796FDCAE6FFF757FDC7E65D
:1044800032210846FFF714FE00F02EF8C0E6322174
:104490000846FFF70DFE00F043F8B9E60000C842F9
:1044A00000000000CDCCCC3D00004842DC0A0020DA
:1044B000000034420AD7233C80841E00A4703D3E95
:1044C0006666663E0000A0410000C8425C00002015
:1044D00000007A44CDCCCC3D040000200800002030
:1044E000100000201400002010B50C4C00224FF4E6
:1044F00000512046FDF70FFE012211032046FDF773
:104500000AFE012291032046FDF705FE2046BDE884
:10451000104000224FF40041FDF7FDBD000C0240A9
:1045200010B50C4C012251032046FDF7F4FD00228A
:10453000A1142046FDF7EFFD00224FF480412046F4
:10454000FDF7E9FD20460122BDE81040D103FDF74B
:10455000E2BD0000000C0240FEE7000080EC030A10
:104560009FED050A80ED030A80ED040AC0ED051AEF
:1045700080ED062A70470000000000009FED030A4E
:1045800080ED030A80ED040A70470000000000007F
:1045900070EE600A90ED030A1E4A00EE810A10EEEA
:1045A000101A80ED030A914202DD9FED1B0A06E01E
:1045B00010EE101A194A914203D99FED190A80EDA5
:1045C000030A90ED040A30EEC00AC0EE011A90ED25
:1045D000010A90ED031A20EE010A90ED001A01EE97
:1045E000200A90ED021A01EE210A90ED061AB4EEAF
:1045F000C01AF1EE10FA01D2B0EE410A90ED051AA0
:10460000B4EEC01AF1EE10FA01DDB0EE410AC0EDD1
:10461000040A70470000C8420000C8420000C8C237
:104620000000C8C200B587B014216846FBF772FECF
:104630000B480021026842F010020260006800F09E
:1046400010000590042000900120CDE901010391A4
:1046500069460448FDF75AFC00F08CFA07B000BD2B
:104660003038024000100240FFF7DCFF054C607854
:1046700010B100F097FA01E000F07CFA642001F03C
:10468000D1FDF4E75000002000B587B01421684642
:10469000FBF740FE0C480021026842F01002026065
:1046A000006800F0100005904FF4007000900120A9
:1046B000CDE90101039169460448FDF727FC00F0AC
:1046C00061FA07B000BD000030380240001002401F
:1046D000012001F0A7FDFBE710B5502080F3118801
:1046E000BFF34F8FBFF36F8F02F042FF18B1044941
:1046F0004FF080500860002080F3118810BD00004A
:1047000004ED00E030B593B030216846FBF702FEBF
:1047100014210CA8FBF7FEFD1C480025016841F0A0
:1047200080510160006800F08050119018480168C5
:1047300041F4804101600068022400F4804011903F
:104740000120039010200490009406940820CDE9E5
:104750000750A820CDE9090404200B906846FDF716
:10476000BBFE70B90CA90F2081E831004FF4A050B6
:104770000F90E002109005210CA8FDF79BFD00288A
:1047800001D0FCF7FBFE13B030BD00004038024002
:10479000007000400248016841F4700101607047F8
:1047A00088ED00E00148FEF7A5BB0000D807002017
:1047B0000148FEF79FBB0000380400200148FEF7C7
:1047C00099BB000080040020F0B50268294C2A4DF6
:1047D0002A4E2B4F2B4B4FF0804CA04209D0604506
:1047E00007D0A84205D0B04203D0B84201D09842C9
:1047F00004D122F0700E4A6842EA0E02A0421BD099
:10480000604519D0A84217D0B04215D0B84213D095
:10481000984211D01C4DA8420ED01C4DA8420BD07E
:104820001B4DA84208D01B4DA84205D01A4DA842E6
:1048300002D01A4DA84203D122F44075CA682A4317
:104840004D6922F080022A4302608A68C2620A68C7
:104850008262A04201D0984201D10969016301211D
:1048600041610169C90703D0016921F001010161BA
:10487000F0BD0000000001400004004000080040BE
:10488000000C004000040140004001400044014091
:104890000048014000180040001C0040002000407B
:1048A00010B501F01F030121046A99408C43046292
:1048B000016A9A401143016210BD10B5846842EA52
:1048C000032224F47F440A432243826010BD82689D
:1048D00022F070020A4342F0070181607047000035
:1048E000F0B5036A026A22F001020262426884693A
:1048F000124E24F073050C682C4323F002058B68DC
:104900002B430D4DA84201D0B04205D123F008073A
:10491000CB683B4323F00403A84201D0B04205D149
:104920004D6922F4407215438A692A4342608461CA
:10493000496841630362F0BD00000140000401408A
:10494000F0B5026A036A23F01003036243688469C6
:104950000D6824F4E64444EA05248D6822F0200220
:1049600042EA05120F4D104EA84201D0B04206D1C6
:10497000CF6822F0800242EA071222F04002A842E9
:1049800001D0B04207D14D6923F4406343EA850367
:104990008D6943EA850343608461496881630262EB
:1049A000F0BD00000000014000040140F0B5026AC3
:1049B000036A23F4807303624368C46922F40072BB
:1049C00024F073050C68124E2C438D6842EA0522D0
:1049D0000E4DA84201D0B04206D1CF6822F4006249
:1049E00042EA072222F48062A84201D0B04207D1F5
:1049F0004D6923F4405343EA05138D6943EA0513D7
:104A00004360C4614968C1630262F0BD00000140B7
:104A10000004014030B5046A026A22F48052026246
:104A20004268C3690D6823F4E64343EA05238D68B1
:104A300024F4005444EA0534084DA84202D0084D3D
:104A4000A84204D14D6922F4804242EA85124260B4
:104A5000C36149680164046230BD00000000014088
:104A60000004014010B5036A046A24F001040462E2
:104A7000846924F0F00444EA021423F00A020A4391
:104A80008461026210BD000070B5056A046A24F0FA
:104A9000010404628469154EB04214D0B0F1804F15
:104AA00011D0134EB0420ED0124EB0420BD0124E67
:104AB000B04208D0114EB04205D0114EB04202D0E3
:104AC000104EB04203D124F00304144301E044F03B
:104AD00001041A0724F0F00444EA126225F00A03E4
:104AE00001F00A0119438261016270BD00000140BA
:104AF0000004004000080040000C00400004014099
:104B0000004001400018004010B5036A046A24F018
:104B100010040462846923F0A00324F4704444EA7E
:104B2000023243EA01118261016210BD30B5046AAC
:104B3000056A25F010050562856925F4407545EA8A
:104B4000022222F470454FF6FF7202EA033224F08B
:104B5000A0032A43A02404EA0111194382610162DF
:104B600030BD0000002240210148FDF7D4BA00000A
:104B700000040240002204210148FDF7CCBA0000E5
:104B80000010024000224FF400710148FDF7C3BA43
:104B900000100240012240210148FDF7BCBA00008C
:104BA00000040240012204210148FDF7B4BA0000CC
:104BB00000100240012251020148FDF7ACBA00008A
:104BC0000010024010B5806B0021C185C184FEF742
:104BD000BAFB10BD70B5846B2068406994F8411031
:104BE000C0F3C0100025212904D118B1E584204666
:104BF00000F08EF82068406994F84210C0F38010ED
:104C0000222904D118B1E585204600F05AF8606CDD
:104C100040F0100060642046FEF795FB70BD10B5B3
:104C20000146806B096809684FF00002C9052ED45F
:104C3000C28501680C3151E8003F23F4807341E8DC
:104C40000034002CF5D10168143151E8003F23F005
:104C5000010341E80034002CF5D10168143151E81A
:104C6000003F23F0400341E80034002CF5D120211F
:104C700080F84210016B012909D101680C3151E81B
:104C8000003F23F0100341E80034002CF5D14263CB
:104C9000016B012902D0FEF7B3FD10BD818DFEF737
:104CA00019FB10BD10B5806B01214163016B012917
:104CB00002D0FEF7BDFD10BD818D4908FEF70AFB4D
:104CC00010BD01680C3151E8002F22F4907241E8C8
:104CD0000023002BF5D10168143151E8002F22F098
:104CE000010241E80023002BF5D1016B012909D114
:104CF00001680C3151E8002F22F0100241E8002336
:104D0000002BF5D1202180F842100021016370476B
:104D100001680C3151E8002F22F0C00241E8002365
:104D2000002BF5D1202180F84110704708B590F88C
:104D30004210222901D0022008BD82684FF480531E
:104D40009A4201D1016921B1816A9A421BD04AB1CC
:104D50000AE00268816A5268C2F308020A80816A26
:104D6000891C08E0026972B10268526802F07F0291
:104D70000A70816A491C8162C18D491E0904090CAF
:104D8000C18503D01BE002685268F1E70168CA6878
:104D900022F02002CA600168CA6822F48072CA60E8
:104DA00001684A6922F001024A61202180F842101C
:104DB00000214163026B012A03D0FEF721FD002090
:104DC00008BD016301680C3151E8002F22F0100288
:104DD00041E80023002BF5D101680A68D20602D50C
:104DE0000A6849680091818DFEF774FAE7E70000D0
:104DF00070B5044600680169E26821F4405111432E
:104E000001612169A068E2690843616911430843AF
:104E10002168CA6849F20C639A430243CA60206859
:104E20004169A26921F4407111434161314920680F
:104E3000884202D03049884202D1FDF70BFB01E0E5
:104E4000FDF7F8FAE2690023192164253226B2F54C
:104E5000004F626828D0A0FB0101930F9200FBF77E
:104E60000FFA0146B0FBF5F06FF01802504301EB6A
:104E7000800006EB0010B0FBF5F000F0F002B1FB93
:104E8000F5F002EB0012B1FBF5F06FF01803584398
:104E900001EB800006EB0010B0FBF5F000F00F0016
:104EA00021681044886070BDA0FB010192185B412D
:104EB000FBF7E6F90146B0FBF5F00201B1FBF5F0B6
:104EC0006FF01803584301EB800006EBC000B0FB05
:104ED000F5F000F0F80002EB4002B1FBF5F05843AA
:104EE00001EB800006EBC000B0FBF5F000F007001E
:104EF000D6E70000001001400014014038B581627F
:104F000004468285002013466064222284F84220F1
:104F1000E56B1B4AEA63E56B1A4A2A64E56B1A4A99
:104F2000EA64E26B10650A462168E06B091DFCF734
:104F3000A3FF2068016840680090206948B120689C
:104F40000C3050E8001F41F4807140E80012002A44
:104F5000F5D12068143050E8001F41F0010140E80D
:104F60000012002AF5D12068143050E8001F41F0EB
:104F7000400140E80012002AF5D1002038BD0000B1
:104F80001F4C0008A54C0008D54B000881628285A3
:104F9000C28500214164222180F84210016921B1BB
:104FA0000168CA6842F48072CA6001684A6942F0C6
:104FB00001024A610068C16841F02001C16000201F
:104FC00070472DE9F843984617460D460446089E5B
:104FD00024E0701C22D0FDF7A3F8A0EB0800B0423B
:104FE0001AD8CEB12068C168490717D5802D15D0D1
:104FF000402D13D00168C94309070FD4016800256B
:10500000406800902046FFF75CFE0820606484F84A
:1050100040500120BDE8F8830320FBE720680068CA
:1050200035EA000004D00020B842D2D00020F1E7D9
:105030000120F9E710B50348FEF786F9BDE81040F6
:10504000FCF71CB9C805002038B51148FEF77CF9FB
:105050000F4C20680168C943C90614D40168406830
:1050600000902046FEF737F9E06B00684068C0F515
:10507000807081B2074801F06FFC4FF480720549DF
:105080002046FEF7A1FBBDE838400148FEF75CB9B9
:1050900010060020C8040020074910B54FF48072A4
:1050A00001F5A470FEF790FB04480068C16841F068
:1050B0001001C16010BD0000C804002010060020CF
:1050C000FEE700000FB4054B10B503A9044A02988F
:1050D00000F0F6F810BC5DF814FB00004161000818
:1050E000380100200FB41CB50A46521ECDE900025B
:1050F00007A9054B6A46069800F0E2F8009A0021DD
:1051000011701CBC5DF814FBEF5900080907090E6B
:10511000002804DB00F1E02080F80014704700F064
:105120000F0000F1E02080F8141D704702E008C86D
:10513000121F08C1002AFAD170477047002001E011
:1051400001C1121F002AFBD1704700002DE9FF5F4B
:10515000DDE90220010DDDF838B0024318D044F635
:105160001050A1F2FF3141430D140F98012820D0B7
:10517000A5EB0B00401C5FEA000A4FF00004474E0D
:10518000DFF81C91A046504616D5CAF1000728E06A
:105190000F98012443A2012808D0002100980F9BFA
:1051A000C0E90021C0E90243BDE8FF9F6FEA0B019F
:1051B000F4E7CBF10000DEE7074612E0F80707D07E
:1051C0002246334640464946FBF784FC80468946E2
:1051D0002246334610461946FBF77CFC04460E4631
:1051E0007F10002FEAD1DDE90201BAF1000F42463B
:1051F0004B4602DAFBF76EFC01E0FBF755FA04467A
:105200000E460022284BFBF7FBFC03D84FF0FF3083
:10521000014607E00022254B20463146FBF7B3FB51
:10522000FBF7D6FC102409E0002C0ADB0A2200233D
:10523000FBF726F8019B30321A55641E50EA010232
:10524000F2D1641C019AC4F1110314440F9A012A8B
:1052500003D0012208430DD10AE0084304D0002006
:105260004FF0110B0F9080E7A3EB0B056D1E0DE0C7
:105270005B4504DD4FF0000205F1010504E003DAAF
:105280004FF00002A5F10105002AECD000980F991B
:10529000C0E90231C0E9004586E700000000244073
:1052A0000000F03F300000000000F0430000E03F4D
:1052B00030380A2801D201207047002070470000D2
:1052C0002DE9FF4F95B09B468946064600250FE223
:1052D000252877D100242746F84A0121059400E0CB
:1052E000044316F8013F203B01FA03F01042F7D1C6
:1052F00030782A2811D06FF02F033078A0F13002D7
:10530000092A16D8059A44F0020402EB820203EB44
:1053100042021044761C0590EFE759F8042B0592E1
:10532000002A03DA504244F40054059044F0020489
:10533000761C30782E2816D116F8010F44F004049C
:105340002A280DD06FF02F023078A0F13003092BFE
:1053500009D807EB870302EB4303C718761CF3E772
:1053600059F8047B761C30786C280FD006DC4C286A
:1053700017D068280DD06A2814D104E0742810D002
:105380007A280FD10DE044F400140AE044F48014AC
:1053900001E044F440147278824202D104F5801492
:1053A000761C761C307866280BD013DC582877D012
:1053B00009DC002875D04528F6D04628F4D04728C7
:1053C0001AD19DE118E0632835D0642879D065288A
:1053D00012D195E1702873D008DC6728F1D06928D4
:1053E0006FD06E280DD06F2806D1B5E073282CD071
:1053F000752875D0782874D05A46179990476D1C37
:1054000075E1C4F30250022809D003280DD0D9F861
:10541000001004280DD00D6009F1040967E1D9F8E6
:105420000010EA17C1E90052F6E7D9F800100D8024
:10543000F2E70D70F0E719F8041B8DF8001000205A
:105440008DF80100EA46012003E059F804AB4FF063
:10545000FF3061074FF0000102D40DE008F10101B7
:105460008846B9420FDA8045F8DB1AF8081000299F
:10547000F4D108E008F1010188468142FADB1AF80C
:1054800008100029F6D105985B46A0EB08072146D5
:105490003846179A00F094FA284400EB080507E014
:1054A0004DE029E10DE01AF8010B5A461799904793
:1054B000B8F10108F7D25B4621463846179A13E146
:1054C00042E00A220092C4F302524FF0000A022A7C
:1054D00008D059F804CB032A4FEAEC710AD00DE04A
:1054E00029E02AE009F1070121F00702F2E802C1F0
:1054F000914609E00FFA8CFC4FEAEC71042A03D1C3
:105500004FFA8CFC4FEAEC71002907DA0A460021B9
:10551000DCF1000C61EB02012D2202E0220504D532
:105520002B228DF80420012203E0E20701D0202283
:10553000F7E7904659E00A2102E010220DE0102121
:105540004FF0000A00910BE010224FF0000A44F0E7
:1055500004040827009203E008224FF0000A00929A
:10556000C4F30252022A05D059F804CB0021032AC1
:1055700008D009E009F1070121F00702F2E802C1B1
:10558000914605E01FFA8CFC042A01D10CF0FF0CB7
:105590004FF00008220728D5702806D0009B83F022
:1055A000100353EA0A0305D00EE040228DF80420D0
:1055B000012208E05CEA010206D030228DF80420C6
:1055C0008DF8050002229046009B83F0080353EA01
:1055D0000A030AD15CEA010201D1620705D5302233
:1055E0008DF804204FF001087F1E582804D034A005
:1055F00003900EA802900DE036A0F9E753466046EE
:10560000009AFAF73DFE84460398825C0298401E99
:10561000029002705CEA0100F0D1029806A9081A13
:1056200000F1200A600702D524F4803400E001274D
:10563000574502DDA7EB0A0000E0002000EB0A015D
:10564000009005984144401A0590E00306D45B465B
:105650002146179A059800F0B3F90544002706E0A3
:1056600001A85A46C05D179990476D1C7F1C47459D
:10567000F6DBE0030CD55B462146179A059800F04F
:105680009FF9054404E030205A46179990476D1C55
:105690000099481E00900029F5DC08E00298029964
:1056A0005A460078491C0291179990476D1CBAF12F
:1056B0000001AAF1010AF1DC65E1000009280100FE
:1056C0003031323334353637383961626364656678
:1056D000000000003031323334353637383941423A
:1056E000434445460000000000F058F90544761C8C
:1056F000307800287FF4ECAD19B02846BDE8F08F73
:10570000620700D4062709F1070222F0070CFCE823
:105710000223E14603F000485FEA080C02D00FF2D2
:10572000702C0DE05FEA045C02D50FF2682C07E0F4
:105730005FEAC47C02D00FF2602C01E0AFF2700C83
:105740004FF0FF3823F00043CDF850C065280CD04F
:1057500006DC452809D046281DD047283DD13DE02C
:10576000662818D067287ED138E00021112F01DB90
:10577000112000E0781CCDE9000106A90EA8FFF772
:10578000E5FCDDE90F010E9A03910021009207F17B
:10579000010A04914DE04FF000400097CDE901105F
:1057A00006A90EA8FFF7D2FCDDE90F0203920E9BBB
:1057B00011990022DDF80CA00093049211B9791C14
:1057C00000EB010AB7EB0A0004D4C0F1FF3007F187
:1057D000010A0490AAEB0700019044E0012F00DACF
:1057E00001270021112F01DD112000E03846CDE90D
:1057F000000106A90EA8FFF7A9FCDDE90F010E9A2A
:105800000391002104910092BA4621070CD4039918
:10581000514500DA8A46BAF1010F05DD009AAAF176
:105820000101515C302908D0B84202DA10F1040FAE
:1058300006DA0121CDE9011015E0AAF10101E9E73D
:10584000002805DC049901440491AAEB000102E060
:10585000411C514500DD8A460499401A401C0190C4
:105860004FF000400290200704D40198504501DB1E
:10587000CDF8048000208DF84F0002980DF14F07FD
:10588000B0F1004F25D02B200E9002984FF0020867
:1058900000280CDA404202902D200E9007E00A21E9
:1058A0000298FAF7A9FF3031029007F8011DB8F10C
:1058B0000001A8F10108F2DC02980028EFD1791E5E
:1058C0000E980870307800F0200040F0450007F88E
:1058D000020D12A8C01B00F107081498007800B14F
:1058E000012000EB0A01019801EBE07105984144A9
:1058F000401A401E0590E00306D45B462146179AE5
:10590000059800F05DF805441498007818B15A46DF
:10591000179990476D1CE00324D55B462146179AE2
:10592000059800F04DF805441CE00498002807DBBA
:10593000DDE90301884203DD0098405C179901E02E
:10594000179930205A469047049805F10105401CEC
:1059500004900198401E019004D12E205A461799B8
:1059600090476D1CBAF10001AAF1010ADDDC05E0E7
:1059700017F8010B5A46179990476D1CB8F10001B2
:10598000A8F10108F4DC5B462146179A0598ABE6BE
:105990002D0000002B000000200000002DE9F04148
:1059A000044600251E461746880404D405E03946FF
:1059B0002020B0476D1C641EF9D52846BDE8F08153
:1059C0002DE9F041044600251E469046C80301D546
:1059D000302700E02027880404D505E041463846FA
:1059E000B0476D1C641EF9D52846BDE8F0814A68B1
:1059F000002A06D00A68531C0B6010704868401ECD
:105A00004860704730B589B00D4604462421684689
:105A1000FAF780FC34B12B4600220121684600F0E1
:105A200041F810B1012009B030BD9DF805009DF886
:105A30000410000200B2084300EE100AF8EEC00A9B
:105A40009FED160A20EE801ADFED150A21EE201ACE
:105A500084ED001A9DF807009DF80610000200B2C0
:105A6000084301EE100AB8EEC11A21EE001A21EE29
:105A7000201A84ED011A9DF809009DF80810000213
:105A800000B2084301EE100A0020B8EEC11A21EE60
:105A9000000A20EE200A84ED020AC4E70000003864
:105AA000000034432DE9F84F00241F4692468B46F0
:105AB0008146264625464FF47A786FB10121684623
:105AC00000F0FAF9C0B3042C44D008DC64B1012C16
:105AD00014D0022C42D130E00320BDE8F88F082C0E
